:020000040800F2
:1000000000500020FD1E0008A11E0008A91E0008C7
:10001000B11E0008B91E0008C11E00080000000043
:1000200000000000000000000000000071710008E6
:10003000C91E00080000000051730008D51E00080A
:10004000451F0008451F0008451F0008451F000800
:10005000451F0008451F0008451F0008451F0008F0
:10006000451F0008451F0008451F0008451F0008E0
:10007000451F0008451F0008451F0008451F0008D0
:10008000451F0008451F0008451F0008451F0008C0
:10009000451F0008451F0008451F0008451F0008B0
:1000A000451F0008451F0008451F0008451F0008A0
:1000B000451F0008451F0008451F0008451F000890
:1000C000451F0008451F0008451F0008451F000880
:1000D000451F0008451F0008451F0008451F000870
:1000E000451F0008451F0008451F000800000000CC
:1000F0000000000000000000000000000000000000
:0C01000000000000000000005FF808F1A3
:1001100010B5054C237833B9044B13B10448AFF341
:1001200000800123237010BD180000200000000093
:10013000EC78000808B5034B1BB103490348AFF343
:10014000008008BD000000001C000020EC780008C2
:1001500080F0004002E000BF81F0004142001FBF7C
:100160005FEA410392EA030F7FEA226C7FEA236C85
:100170006AD04FEA1262D2EB1363C1BFD21841407A
:1001800048404140B8BF5B42192B88BF704710F010
:10019000004F40F4000020F07F4018BF404211F0B3
:1001A000004F41F4000121F07F4118BF494292EA1B
:1001B000030F3FD0A2F1010241FA03FC10EB0C0047
:1001C000C3F1200301FA03F100F0004302D54942D4
:1001D00060EB4000B0F5000F13D3B0F1807F06D381
:1001E00040084FEA310102F10102FE2A51D2B1F179
:1001F000004F40EBC25008BF20F0010040EA03006E
:100200007047490040EB0000013A28BFB0F5000FED
:10021000EDD2B0FA80FCACF1080CB2EB0C0200FAA3
:100220000CF0AABF00EBC25052421843BCBFD040F2
:100230001843704792F0000F81F4000106BF80F46C
:1002400000000132013BB5E74FEA41037FEA226C2F
:1002500018BF7FEA236C21D092EA030F04D092F0FA
:10026000000F08BF0846704790EA010F1CBF00202E
:10027000704712F07F4F04D1400028BF40F000408B
:10028000704712F100723CBF00F50000704700F0AB
:10029000004343F0FE4040F4000070477FEA2262D2
:1002A00016BF08467FEA23630146420206BF5FEAA3
:1002B000412390EA010F40F4800070474FF00003A3
:1002C00004E000BF10F0004348BF40425FEA000C6A
:1002D00008BF704743F0964301464FF000001CE012
:1002E00050EA010208BF70474FF000030AE000BF68
:1002F00050EA010208BF704711F0004302D54042A6
:1003000061EB41015FEA010C02BF84460146002017
:1003100043F0B64308BFA3F18053A3F50003BCFA32
:100320008CF2083AA3EBC25310DB01FA02FC6344DF
:1003300000FA02FCC2F12002BCF1004F20FA02F2E6
:1003400043EB020008BF20F00100704702F12002D9
:1003500001FA02FCC2F1200250EA4C0021FA02F23A
:1003600043EB020008BF20EADC7070474FF0FF0C3F
:100370001CEAD0521EBF1CEAD15392EA0C0F93EA3A
:100380000C0F6FD01A4480EA010C400218BF5FEADC
:1003900041211ED04FF0006343EA501043EA51114F
:1003A000A0FB01310CF00040B1F5000F3EBF490049
:1003B00041EAD3715B0040EA010062F17F02FD2A4D
:1003C0001DD8B3F1004F40EBC25008BF20F0010030
:1003D000704790F0000F0CF0004C08BF49024CEA47
:1003E000502040EA51207F3AC2BFD2F1FF0340EAD9
:1003F000C250704740F400004FF00003013A5DDC4A
:1004000012F1190FDCBF00F000407047C2F100028A
:10041000410021FA02F1C2F1200200FA02FC5FEA77
:10042000310040F1000053EA4C0308BF20EADC70C1
:10043000704792F0000F00F0004C02BF400010F433
:10044000000F013AF9D040EA0C0093F0000F01F0E0
:10045000004C02BF490011F4000F013BF9D041EA02
:100460000C018FE70CEAD15392EA0C0F18BF93EA04
:100470000C0F0AD030F0004C18BF31F0004CD8D12E
:1004800080EA010000F00040704790F0000F17BFB5
:1004900090F0004F084691F0000F91F0004F14D0FB
:1004A00092EA0C0F01D142020FD193EA0C0F03D153
:1004B0004B0218BF084608D180EA010000F0004056
:1004C00040F0FE4040F40000704740F0FE4040F431
:1004D000400070474FF0FF0C1CEAD0521EBF1CEAD0
:1004E000D15392EA0C0F93EA0C0F69D0A2EB0302EE
:1004F00080EA010C49024FEA402037D04FF0805388
:1005000043EA111143EA10130CF000408B4238BF4C
:100510005B0042F17D024FF4000C8B4224BF5B1A5A
:1005200040EA0C00B3EB510F24BFA3EB510340EAA8
:100530005C00B3EB910F24BFA3EB910340EA9C0056
:10054000B3EBD10F24BFA3EBD10340EADC001B01C6
:1005500018BF5FEA1C1CE0D1FD2A3FF650AF8B426A
:1005600040EBC25008BF20F0010070470CF0004C77
:100570004CEA50207F32C2BFD2F1FF0340EAC250A2
:10058000704740F400004FF00003013A37E792F063
:10059000000F00F0004C02BF400010F4000F013AC1
:1005A000F9D040EA0C0093F0000F01F0004C02BFBC
:1005B000490011F4000F013BF9D041EA0C0195E725
:1005C0000CEAD15392EA0C0F08D142027FF47DAFBE
:1005D00093EA0C0F7FF470AF084676E793EA0C0FAE
:1005E00004D14B023FF44CAF08466EE730F0004CAC
:1005F00018BF31F0004CCAD130F000427FF45CAF3C
:1006000031F000437FF43CAF5FE700BF42000ED201
:10061000B2F1FE4F0BD34FF09E03B3EB126209D43D
:100620004FEA002343F0004323FA02F070474FF0F3
:100630000000704712F1610F01D1420202D14FF068
:10064000FF3070474FF00000704700BF7BB972B9B0
:100650000029BEBF00204FF0004106E008BF00287F
:100660001CBF6FF000414FF0FF3000F0BFB9ADF19B
:10067000080C6DE904CE002909DB002B1ADB00F021
:1006800035F8DDF804E0DDE9022304B070474042AC
:1006900061EB4101002B1BDB00F028F8DDF804E0E2
:1006A000DDE9022304B0404261EB4101524263EBB9
:1006B00043037047524263EB430300F017F8DDF841
:1006C00004E0DDE9022304B0404261EB41017047E0
:1006D000524263EB430300F009F8DDF804E0DDE982
:1006E000022304B0524263EB430370472DE9F04705
:1006F000089D8E4604468846002B4AD18A421746FA
:1007000062D9B2FA82F64EB1C6F1200301FA06F8B8
:1007100020FA03F3B74043EA0808B4404FEA174E03
:10072000B8FBFEF11FFA87FC0EFB118801FB0CF2EF
:10073000230C43EA08439A4209D9FB1801F1FF3020
:1007400080F0EB809A4240F2E88002393B449A1AEA
:10075000B2FBFEF00EFB102200FB0CFCA3B243EA3E
:1007600002439C4509D9FB1800F1FF3280F0D78085
:100770009C4540F2D4803B44023840EA01400021CD
:10078000A3EB0C031DB10022F340C5E90032BDE824
:10079000F0878B4205D90DB1C5E90001002108465B
:1007A000F5E7B3FA83F1002946D1734502D38242BB
:1007B00000F20881841A6EEB030201209046002D9E
:1007C000E5D0C5E90048E2E7002A00F09180B2FADE
:1007D00082F6002E40F0A5808A1A0121030C4FEA10
:1007E000174E80B2BCB2B2FBFEFC0EFB1C2243EAE9
:1007F000024304FB0CF29A4207D9FB180CF1FF38B4
:1008000002D29A4200F2E380C4469B1AB3FBFEF286
:100810000EFB123302FB04F440EA03439C4207D967
:10082000FB1802F1FF3002D29C4200F2CD8002465A
:100830001B1B42EA0C40A5E7C1F120068B4022FABF
:1008400006F71F432EFA06FA4FEA1749BAFBF9F8E2
:100850000EFA01FE20FA06F309FB18AA1FFA87FC1C
:1008600043EA0E0300FA01FE08FB0CF01C0C44EAFC
:100870000A44A04202FA01F20AD93C1908F1FF3AEF
:1008800080F09E80A04240F29B80A8F102083C4488
:10089000241A98B2B4FBF9F309FB134403FB0CFCD4
:1008A00040EA0444A44509D93C1903F1FF3080F023
:1008B0008580A44540F28280023B3C4443EA0840E4
:1008C000A4EB0C04A0FB028C64454346E14664D3D0
:1008D00061D05DB1BEEB030264EB090404FA06F6D5
:1008E00022FA01F31E43CC40C5E9006400214EE723
:1008F000B1FBF2FC010C41EA0E4180B240EA014238
:100900003B46B1FBF7F138463C46B846BE4620268A
:10091000A2EB080241EA0C4165E7014617E71046E1
:100920002BE7C6F120012EFA01FCB7400EFA06FEB5
:1009300020FA01F141EA0E014FEA174EBCFBFEF826
:10094000BCB20EFB18CC08FB04F90A0C42EA0C42BC
:10095000B04091454FEA104380B23ED9BA1808F131
:10096000FF3C01D291451FD8A2EB0902B2FBFEF970
:1009700009FB04F80EFB192A8AB242EA0A424245F0
:1009800029D2BA1809F1FF31C2D24245C0D2A9F129
:1009900002013A44BCE7C6459BD2B8EB02036CEBBC
:1009A000070C0138E14694E7A7EB09094A44B2FB7A
:1009B000FEF9A8F1020C09FB04F8DBE703467DE72A
:1009C000D04665E70846FAE63B44023A30E7ACF128
:1009D000020C3B4419E749469AE7A2EB0902B2FB35
:1009E000FEF9C44609FB04F8C4E700BF704700BF26
:1009F00080B500AF044B1B68044A118800221846DA
:100A000002F0D3F900BF80BD380000203C00002078
:100A100080B500AF044B1B68044A118801221846B8
:100A200002F0C3F900BF80BD380000203C00002068
:100A300080B584B000AF03460A46FB711346BB7114
:100A4000FB7903F07F03DBB23B73BB797B73FFF76A
:100A5000CFFF074B186807F10C014FF0FF3302225C
:100A600002F0BCFFFFF7D4FF00BF1037BD4680BDCA
:100A70003400002080B582B000AF03463960FB71BE
:100A80001346BB80FB7963F07F03DBB2FB71FFF79A
:100A9000AFFF0B4B1868F91D4FF0FF33012202F036
:100AA0009DFF074B1868BA884FF0FF33396803F091
:100AB000D9F8FFF7ADFF00BF0837BD4680BD00BFC6
:100AC0003400002080B586B000AF3B46182219469E
:100AD0008820FFF7CFFF7B781BB21B021AB23B784E
:100AE0001BB213431BB29AB23A4B1A80FB781BB26B
:100AF0001B021AB2BB781BB213431AB2354B5A8091
:100B00007B791BB21B021AB23B791BB213431AB298
:100B1000304B9A80FB791BB21B021AB2BB791BB215
:100B200013431BB29AB22B4BDA807B7A1BB21B02A7
:100B30001AB23B7A1BB213431AB2264B1A81FB7AC4
:100B40001BB21B021AB2BB7A1BB213431AB2214B5F
:100B50005A817B7B1BB21B021AB23B7B1BB2134335
:100B60001AB21C4B9A81FB7B1BB21B021AB2BB7BD5
:100B70001BB213431AB2174BDA817B7C1BB21B02E8
:100B80001AB23B7C1BB213431AB2124B1A82FB7C83
:100B90001BB21B021AB2BB7C1BB213431AB20D4B21
:100BA0005A827B7D1BB21B021AB23B7D1BB21343E0
:100BB0001AB2084B9A82FB7D1BB21B021AB2BB7D94
:100BC0001BB213431AB2034BDA8200BF1837BD467B
:100BD00080BD00BF4000002080B586B000AFF86047
:100BE000B9601346FB80184AFB681360174ABB685C
:100BF0001360174AFB881380FFF70AFF642001F097
:100C000005FAB621E020FFF713FF642001F0FEF99A
:100C10000023FB7507F1170301221946D020FFF7C7
:100C200029FFFB7D582B01D000BFFDE7FFF74AFFEE
:100C30002721F420FFF7FCFE0021F520FFF7F8FE46
:100C400000BF1837BD4680BD3400002038000020AA
:100C50003C00002080B586B000AF3B1D0322194642
:100C6000FA20FFF707FF3B791A037B791B01134337
:100C7000BA791209D2B213437B617B69DA101C4B3B
:100C80001B885B00D31A1A4AB2F9022002FB03F355
:100C9000DB123B617B691B11154A12889B1A7A692A
:100CA000121113490988521A02FB03F31B13104A4D
:100CB000B2F9042002FB03F39B13FB603A69FB6863
:100CC00013440C4A13600B4B1A6813469B001344E1
:100CD00080331B121846FFF7F5FA0346BB6006493E
:100CE000B868FFF7F7FB034618461837BD4680BDC6
:100CF00040000020580000200000C8422DE9B04FFD
:100D0000CCB000AF07F5867303221946F720FFF732
:100D1000B1FE97F80C311A0397F80D311B011A43F5
:100D200097F80E311B09DBB21343C7F82C31AC4BDB
:100D30001B68DA179A469346BAF5FA33BB644BF14F
:100D4000FF33FB64D7E91223C7E94823D7F82421EE
:100D5000D7F8203103FB02F1D7F82421D7F820314E
:100D600002FB03F3CA18D7F82031A3FB034553193C
:100D70001D469C4BB3F910301BB2DA17C7F8C030D0
:100D8000C7F8C420D7E93001034603FB05F20B4640
:100D900004FB03F313440246A4FB02894B44994627
:100DA000C7E94689C7E946898E4BB3F90E301BB2B5
:100DB000DA17C7F8B830C7F8BC20D7F82031D7E920
:100DC0002E452A4602FB03F2D7F82431214601FBC7
:100DD00003F31A44D7F820312146A3FB0131C7F8A9
:100DE0000411C7F80031D7F80431D318C7F804311B
:100DF0004FF000004FF00001D7E940452B46590461
:100E0000224641EAD23123465804D7E94623141832
:100E10003C644B417B64D7E91034C7E94634714BDD
:100E2000B3F90C301BB2DA17C7F8B030C7F8B420EA
:100E30004FF000004FF00001D7F8B030D90000208B
:100E4000D7E946231418BC634B41FB63D7E90E3442
:100E5000C7E94634D7F82421D7F8203103FB02F143
:100E6000D7F82421D7F8203102FB03F3CA18D7F8AA
:100E70002031A3FB0331C7F8FC10C7F8F830D7F8CE
:100E8000FC30D318C7F8FC30564BB3F90A301BB20C
:100E9000DA17C7F8A830C7F8AC20D7E93E342246A5
:100EA000D7E92A89414601FB02F24D461846214600
:100EB000034603FB05F3134402464146A2FB01210E
:100EC000C7F8F410C7F8F020D7F8F4201344C7F897
:100ED000F4304FF000004FF00001D7E93C452346C5
:100EE000180A2A4640EA02602B4619123D4BB3F914
:100EF00008301BB2DA17C7F8A030C7F8A420D7F81B
:100F00002031D7E928894A4602FB03F2D7F8243179
:100F1000444604FB03F31A44D7F820314446A3FBAC
:100F20000434C7F8EC40C7F8E830D7F8EC30D318F1
:100F3000C7F8EC304FF000024FF00003D7E93A89D0
:100F40004C462303C44643EA1C53444622038418F8
:100F50003C6341EB03037B63D7E90C34C7E94834B6
:100F6000D7E9482303F50041C7F89C10C7F898203B
:100F70001C4BDB889BB20022C7F89030C7F8942046
:100F8000D7E926342246D7E92489414601FB02F2FB
:100F90004D4618462146034603FB05F3134402461B
:100FA0004146A2FB0121C7F8E410C7F8E020D7F8BA
:100FB000E4201344C7F8E4304FF000024FF0000380
:100FC000D7E9384529464A102946CB17C7E94823AF
:100FD000D7E94823134307D14FF0000352E100BF84
:100FE0005800002040000020D7F82C31C3F58013B2
:100FF000DA17BB62FA62D7E90A34C7E94434D7F892
:1010000010315B10C7F88C30D7F81031DB07C7F808
:101010008830D7E94623D7E922010446A41AC7F845
:10102000804061EB0303C7F88430D7E920452246AE
:101030002B46911839625B417B62D7E90823214630
:101040005118B96129464B41FB614FF000024FF046
:101050000003D7E9068949468B01414643EA91637B
:1010600041468A01414689183961494643EB0101ED
:1010700079614FF000024FF00003D7E90489494637
:101080008B00C44643EA9C7341468A0010461946C9
:10109000034622469B18BB600B462A4642EB0303DD
:1010A000FB604FF000024FF00003D7E90289494688
:1010B0008B00C44643EA9C7341468A001046194699
:1010C000034622469B18BB672B460A4642EB0303A6
:1010D000FB67D7E94823D7E91E01FFF7B7FA0246B5
:1010E0000B46C7E944236A4BB3F916301BB2DA1733
:1010F0003B677A67D7E944234FF000004FF00001C7
:10110000500B40EAC3405913D7E91C452B4600FB5E
:1011100003F2234603FB01F313442246A2FB002102
:10112000C7F8DC10C7F8D820D7F8DC201344C7F87C
:10113000DC30D7E944234FF000004FF00001500BA2
:1011400040EAC3405913D7E936452B4600FB03F26A
:10115000234603FB01F313442246A2FB0021C7F8F8
:10116000D410C7F8D020D7F8D4201344C7F8D4300F
:101170004FF000024FF00003D7E9344521464A0EF4
:10118000204629460C4642EAC4124B16C7E94823BA
:101190003F4BB3F914301BB2DA17BB66FA66D7F8C7
:1011A0001031D7E91A452A4602FB03F2D7F8143169
:1011B000214601FB03F31344D7F810212146A2FB7B
:1011C0000121C7F8CC10C7F8C820D7F8CC201344A9
:1011D000C7F8CC304FF000024FF00003D7E932459A
:1011E0002146CA0C204629460C4642EA4432CB141A
:1011F000C7E94623D7E94401D7E9482384183C6668
:1012000041EB03037B66D7E94623D7E9184521461E
:101210008918B965294643EB0101F9654FF00000D3
:101220004FF00001D7E916452346180A2A4640EA3E
:1012300002602B461912164BB3F912301BB2DA17A3
:101240003B657A654FF000024FF00003D7E914893F
:101250004C462301C44643EA1C73444622018418C9
:101260003C6041EB03037B60D7E90034C7E94434B9
:10127000D7E94401FFF73CF8034606491846FFF753
:1012800029F90346184607F59877BD46BDE8B08FA3
:10129000400000200000C84680B485B000AFF86070
:1012A000B9607A60FB68064A1A60BB68054A1A6032
:1012B0007B6880221A6000BF1437BD4680BC70472F
:1012C0005C000020B000002080B485B000AF7860E2
:1012D0000B46FB7007233B730023FB730023BB7398
:1012E00024E0BB7B7A6813441A78FB7B5340FB7382
:1012F00000237B7314E097F90F30002B09DA97F97C
:101300000F305B005AB297F90C3053405BB2DBB23E
:1013100002E0FB7B5B00DBB2FB737B7B01337B7307
:101320007B7B072BE7D9BB7B0133BB73BA7BFB7895
:101330009A42D6D3FB7B18461437BD4680BC704713
:1013400080B582B000AF78600B467B80012202211D
:101350000C4801F02AFD7A884FF0FF3379680A487B
:1013600003F0C8FC00BF094B1B6803F04003002BCF
:10137000F9D000220221034801F017FD00BF083711
:10138000BD4680BD000C0140C8030020004800405D
:10139000B0B598B000AF00F0D7FD00F083F800F0D2
:1013A00015FA00F0BFF900F023F900F057F900F04A
:1013B000E3F900F0D1F800212D4803F06FF8042183
:1013C0002B4803F06BF82B4800F01CFF4FF48052C1
:1013D00029492A48FFF700FC0023BB650023FB6571
:1013E00007F15803184603F046FF0346244A1360EA
:1013F00005222449244803F008FD244B07F13C044E
:101400001D460FCD0FC495E8070084E8070007F1DB
:101410003C030021184603F0CEFE03461C4A13602D
:101420001C4B07F120041D460FCD0FC495E80700A3
:1014300084E8070007F120030021184603F0BBFEF3
:101440000346154A1360154B3C1D1D460FCD0FC4B6
:1014500095E8070084E807003B1D0021184603F0CB
:10146000AAFE03460E4A136003F09EFE00BFFDE78E
:1014700038030020B0020020000C0140E0020020F0
:101480002C04002000000020C80300201079000870
:10149000100400203C79000814040020647900083E
:1014A0001804002080B594B000AF07F1280328226B
:1014B0000021184606F0E0F907F1140300221A6033
:1014C0005A609A60DA601A613B1D00221A605A6005
:1014D0009A60DA600123BB624FF48033FB62002321
:1014E0003B630123BB6302237B644FF48033BB6403
:1014F0000023FB6407F12803184601F06FFC034644
:10150000002B01D000F02EFB0F237B610223BB6177
:101510000023FB6100233B6200237B6207F114037D
:101520000021184601F0DCFE0346002B01D000F03C
:1015300019FB02237B604FF44043FB603B1D1846C0
:1015400002F05CF80346002B01D000F00BFB00BF5B
:101550005037BD4680BD000080B584B000AF3B1D54
:1015600000221A605A609A601F4B204A1A601E4B74
:101570004FF480729A601C4B01221A731A4B00229E
:101580001A75194B4FF46022DA61174B00225A602A
:10159000154B02221A61144800F05CFD0346002B33
:1015A00001D000F0DFFA00237B600123BB60002341
:1015B000FB603B1D19460C4800F0E4FF0346002B7E
:1015C00001D000F0CFFA0223BB603B1D194606484C
:1015D00000F0D8FF0346002B01D000F0C3FA00BF93
:1015E0001037BD4680BD00BFB0020020002401407E
:1015F00080B500AF174B184A1A60164B4FF4827231
:101600005A60144B00229A60124B0022DA60114B90
:1016100000221A610F4B00225A610E4B4FF40072E8
:101620009A610C4B1822DA610A4B00221A62094BAC
:1016300000225A62074B00229A62064B0A22DA62A3
:10164000044802F047F90346002B01D000F08AFA63
:1016500000BF80BDE00200200038004080B58AB0A5
:1016600000AF07F1200300221A605A603B1D0022E0
:101670001A605A609A60DA601A615A619A61274B5F
:10168000274A1A60254B47225A60244B00229A6051
:10169000224B40F6FF72DA60204B00221A611F4B8A
:1016A00080229A611D4802F0AAFE0346002B01D059
:1016B00000F058FA00233B6200237B6207F120030D
:1016C0001946164803F068FA0346002B01D000F0D3
:1016D00049FA60237B600023BB600023FB6000238A
:1016E0007B613B1D002219460C4802F079FF03463E
:1016F000002B01D000F036FA3B1D042219460748A2
:1017000002F06EFF0346002B01D000F02BFA0348D5
:1017100000F00CFB00BF2837BD4680BD3803002019
:101720000004004080B500AF114B124A1A60104B04
:101730004FF4E1325A600E4B00229A600C4B0022AB
:10174000DA600B4B00221A61094B0C225A61084BDC
:1017500000229A61064B0022DA61054803F07AFA0A
:101760000346002B01D000F0FDF900BF80BD00BF93
:10177000800300200038014080B500AF114B124AB1
:101780001A60104B4FF4E1325A600E4B00229A60FF
:101790000C4B0022DA600B4B00221A61094B0C2221
:1017A0005A61084B00229A61064B0022DA61054813
:1017B00003F050FA0346002B01D000F0D3F900BF2C
:1017C00080BD00BFC80300200048004080B588B03D
:1017D00000AF07F1100300221A605A609A60DA60C5
:1017E000434B9B69424A43F010039361404B9B6912
:1017F00003F01003FB60FB683D4B9B693C4A43F0E0
:10180000200393613A4B9B6903F02003BB60BB68E4
:10181000374B9B69364A43F004039361344B9B6911
:1018200003F004037B607B68314B9B69304A43F0D3
:10183000080393612E4B9B6903F008033B603B68F0
:1018400000224FF400512B4801F0AFFA002241F280
:101850005A01294801F0A9FA4FF400533B610123D2
:101860007B610023BB610223FB6107F11003194672
:10187000204801F0FFF838233B6100237B610223FD
:10188000BB6107F1100319461C4801F0F3F841F25F
:101890001A033B6101237B610023BB610223FB61CF
:1018A00007F110031946144801F0E4F840233B61A6
:1018B00001237B610223BB610123FB6107F110035C
:1018C00019460D4801F0D6F8002208210A4801F017
:1018D0006CFA00221021084801F067FA002240212A
:1018E000054801F062FA00BF2037BD4680BD00BF49
:1018F0000010024000100140000C014000080140AF
:1019000080B58AB000AF786000237B6212E04FF0B0
:10191000FF314A4800F024FD484800F027FE034606
:101920009AB27B6A5B0028333B4423F81C2C7B6A09
:1019300001337B627B6A022BE9DD002387F82330C9
:1019400008213F4801F01AFA03461A4697F8233057
:10195000134387F823301021394801F00FFA03466A
:101960005B005AB297F9233013435BB287F82330F8
:101970002021334801F002FA03469B005AB297F93E
:10198000233013435BB287F82330FFF763F9F86124
:10199000FFF7B4F9B861B869FEF738FE03467B611A
:1019A000284B1B684FF0FF31184603F07DFC264B97
:1019B00002221A70BB89DAB2234B5A70BB891B0A08
:1019C0009BB2DAB2204B9A70FB89DAB21E4BDA7006
:1019D000FB891B0A9BB2DAB21B4B1A713B8ADAB243
:1019E000194B5A713B8A1B0A9BB2DAB2164B9A7199
:1019F000154A97F82330D371F869FEF707FE0346BE
:101A0000DAB2114B1A727B691B0ADAB20E4B5A72A8
:101A10007B69DAB20C4B9A720B210B48FFF754FC2E
:101A200003461A46084BDA72064B1B68184603F049
:101A300089FC642003F00BFC66E700BFB0020020C5
:101A4000000801402C0400201C04002080B584B054
:101A500000AF78600023FB732C4B1B684FF0FF3105
:101A6000184603F021FC4FF0FF330C222849294887
:101A700003F040F9254B1B68184603F063FC264B26
:101A80001B78DBB2002B10D005F008FC234A07F1CD
:101A9000080392E803001860043319700123FB73F4
:101AA0001D4B00221A7005F029FCFB7B002B28D06F
:101AB0007B7A03F00103DBB21A460821184801F0D3
:101AC00074F97B7A5B10DBB203F00103DBB21A46D8
:101AD0001021134801F069F97B7A9B10DBB203F007
:101AE0000103DBB21A4620210D4801F05EF9BA7AF3
:101AF0000C4B1B681A64FA7A0A4B1B681A640023A1
:101B0000FB734FF4FA7003F0A2FBA5E72C0400204E
:101B10001C04002080030020280400200000002076
:101B2000000801403803002080B582B000AF786023
:101B30000A4B1B684FF0FF31184603F0B5FB0C2130
:101B40000748FFF7FDFB054B1B68184603F0FAFB3F
:101B50004FF47A7003F07BFB00BFE9E72C04002010
:101B60001C04002080B400AF72B600BF00BFFDE7C8
:101B700080B584B000AF184B9B69174A43F001034E
:101B80009361154B9B6903F00103BB60BB68124B6B
:101B9000DB69114A43F08053D3610F4BDB6903F0DB
:101BA00080537B607B6800220F216FF0010000F002
:101BB00038FF0A4B5B68FB60FB6823F0E063FB6067
:101BC000FB6843F00073FB60044AFB68536000BF8E
:101BD0001037BD4680BD00BF00100240000001402C
:101BE00080B588B000AF786007F1100300221A605A
:101BF0005A609A60DA607B681B68144A934221D16C
:101C0000134B9B69124A43F400739361104B9B6919
:101C100003F40073FB60FB680D4B9B690C4A43F0B7
:101C2000040393610A4B9B6903F00403BB60BB6828
:101C300007233B6103237B6107F110031946054825
:101C400000F018FF00BF2037BD4680BD00240140D2
:101C5000001002400008014080B588B000AF7860F5
:101C600007F1100300221A605A609A60DA607B68FC
:101C70001B681C4A934231D11B4BDB691A4A43F45F
:101C80008043D361184BDB6903F48043FB60FB683E
:101C9000154B9B69144A43F008039361124B9B69EF
:101CA00003F00803BB60BB684FF420433B61022391
:101CB0007B610323FB6107F1100319460B4800F019
:101CC000D9FE4FF480433B6100237B610023BB615D
:101CD00007F110031946054800F0CCFE00BF20377D
:101CE000BD4680BD0038004000100240000C01409D
:101CF00080B485B000AF78607B681B68094A934266
:101D00000BD1094BDB69084A43F00203D361064B50
:101D1000DB6903F00203FB60FB6800BF1437BD46BC
:101D200080BC7047000400400010024080B588B0BD
:101D300000AF786007F1100300221A605A609A60C1
:101D4000DA607B681B680F4A934217D10E4B9B6980
:101D50000D4A43F0040393610B4B9B6903F00403AA
:101D6000FB60FB68C0233B6102237B610223FB61B4
:101D700007F110031946054800F07CFE00BF20372C
:101D8000BD4680BD00040040001002400008014034
:101D900080B58AB000AF786007F1180300221A609E
:101DA0005A609A60DA607B681B68384A934232D185
:101DB000374B9B69364A43F480439361344B9B69AC
:101DC00003F480437B617B69314B9B69304A43F06C
:101DD000040393612E4B9B6903F004033B613B6951
:101DE0004FF40073BB610223FB6103237B6207F1A5
:101DF00018031946274800F03DFE4FF48063BB618D
:101E00000023FB6100233B6207F1180319462148B8
:101E100000F030FE36E07B681B681F4A934231D1E8
:101E20001B4BDB691A4A43F48023D361184BDB69EF
:101E300003F48023FB60FB68154B9B69144A43F055
:101E400008039361124B9B6903F00803BB60BB68F6
:101E50004FF48063BB610223FB6103237B6207F1C4
:101E6000180319460D4800F005FE4FF40063BB61EE
:101E70000023FB6100233B6207F118031946074862
:101E800000F0F8FD00BF2837BD4680BD0038014096
:101E9000001002400008014000480040000C0140D2
:101EA00080B400AF00BFFDE780B400AF00BFFDE726
:101EB00080B400AF00BFFDE780B400AF00BFFDE716
:101EC00080B400AF00BFFDE780B400AF00BFBD46E7
:101ED00080BC704780B500AF00F07CF804F0C8FE0D
:101EE0000346012B01D005F057FA00BF80BD80B436
:101EF00000AF00BFBD4680BC70470000FFF7F7FF92
:101F00000B480C490C4A002302E0D458C450043357
:101F1000C4188C42F9D3094A094C002301E013602C
:101F20000432A242FBD305F0AFFCFFF731FA704751
:101F30000000002018000020D879000818000020B8
:101F400088110020FEE7000080B500AF084B1B6839
:101F5000074A43F010031360032000F057FD0F20E1
:101F600000F008F8FFF704FE0023184680BD00BF0C
:101F70000020024080B582B000AF7860124B1A6832
:101F8000124B1B7819464FF47A73B3FBF1F3B2FB93
:101F9000F3F3184600F061FD0346002B01D0012346
:101FA0000EE07B680F2B0AD8002279684FF0FF30D3
:101FB00000F037FD064A7B681360002300E0012330
:101FC00018460837BD4680BD0800002010000020DC
:101FD0000C00002080B400AF054B1B781A46054B5F
:101FE0001B681344034A136000BFBD4680BC7047A2
:101FF000100000203004002080B400AF024B1B68AA
:102000001846BD4680BC70473004002080B584B0BF
:1020100000AF7860FFF7F0FFB8607B68FB60FB689B
:10202000B3F1FF3F05D00A4B1B781A46FB681344F7
:10203000FB6000BFFFF7E0FF0246BB68D31AFA68F7
:102040009A42F7D800BF00BF1037BD4680BD00BF21
:102050001000002080B586B000AF78600023FB75CB
:1020600000233B610023BB600023FB607B68002BE7
:1020700001D10123BEE07B689B68002B7B689B6AD3
:10208000002B09D17B680022DA627B68002283F88A
:1020900024207868FFF7A4FD786800F0C5FB0346AC
:1020A000FB757B689B6A03F01003002B40F099805E
:1020B000FB7D002B40F095807B689B6A23F488535E
:1020C00023F0020343F002027B689A627B685A683D
:1020D0007B68DB691A437B681B7B5B001343BA6830
:1020E0001343BB607B689B68B3F5807F03D07B683C
:1020F0009B68012B02D14FF4807300E000233A6902
:1021000013433B617B681B7D012B19D17B681B7BD3
:10211000002B09D17B689B69013B5A033B69134340
:1021200043F400633B610BE07B689B6A43F0200251
:102130007B689A627B68DB6A43F001027B68DA6243
:102140007B681B685B6823F469417B681B683A699C
:102150000A435A607B681B689A68284B13407A6868
:102160001268B9680B4393607B689B68B3F5807F06
:1021700003D07B689B68012B04D17B681B69013B02
:102180001B05FB607B681B68DB6A23F470017B68BE
:102190001B68FA680A43DA627B681B689A68184B06
:1021A0001340BA689A420BD17B680022DA627B68DE
:1021B0009B6A23F0030343F001027B689A6218E0F4
:1021C0007B689B6A23F0120343F010027B689A62DB
:1021D0007B68DB6A43F001027B68DA620123FB75EE
:1021E00007E07B689B6A43F010027B689A620123D8
:1021F000FB75FB7D18461837BD4680BDFDF7E1FF36
:10220000FE0E1FFF80B584B000AF78600023FB7323
:102210007B6893F82430012B01D1022398E07B687E
:10222000012283F82420786800F0A4FA0346FB73A7
:10223000FB7B002B40F087807B689B6A23F4407314
:1022400023F0010343F480727B689A627B681B6809
:10225000414A934205D1414B5B6803F47023002B44
:1022600015D17B689B6A23F480127B689A627B6835
:102270001B685B6803F48063002B26D07B689B6A35
:1022800023F4405343F480527B689A621DE07B68DC
:102290009B6A43F480127B689A627B681B682F4AB2
:1022A000934204D07B681B682B4A93420DD12B4B81
:1022B0005B6803F48063002B07D07B689B6A23F480
:1022C000405343F480527B689A627B689B6A03F4B4
:1022D0008053002B06D07B68DB6A23F006027B6804
:1022E000DA6202E07B680022DA627B68002283F80F
:1022F00024207B681B686FF002021A607B681B68F1
:102300009B6803F46023B3F5602F13D17B681B68CF
:10231000114A934205D1114B5B6803F47023002BE3
:1023200008D17B681B689A687B681B6842F4A0022E
:102330009A600CE07B681B689A687B681B6842F4B3
:1023400080129A6003E07B68002283F82420FB7BE4
:1023500018461037BD4680BD0028014000240140CA
:1023600090B587B000AF7860396000237B610023AF
:10237000FB6000233B61FFF73FFE78617B681B68D1
:102380009B6803F48073002B0BD07B689B6A43F03F
:1023900020027B689A627B68002283F82420012354
:1023A000D3E07B681B685B6803F48073002B31D13A
:1023B0007B681B68DB6A03F47003002B2AD121E0E1
:1023C0003B68B3F1FF3F1DD03B68002B07D0FFF700
:1023D00013FE02467B69D31A3A689A4212D27B688E
:1023E0001B681B6803F00203002B0BD17B689B6A00
:1023F00043F004027B689A627B68002283F8242001
:102400000323A2E07B681B681B6803F00203002B18
:10241000D6D070E04F4B1C68022001F0A5F90346AE
:10242000B4FBF3F27B681B6819694B4B0B40002B24
:1024300018D17B681B68D968484B0B40002B11D121
:102440007B681B681969464B0B40002B08D17B68E1
:102450001B68D968434B0B40002B01D1142320E0AB
:1024600029231EE07B681B6819693D4B0B40002B3C
:1024700006D17B681B68D9683A4B0B40002B0DD006
:102480007B681B681969384B0B40002B08D17B68AF
:102490001B68D968344B0B40002B01D1542300E05A
:1024A000FC2302FB03F33B6121E03B68B3F1FF3FF8
:1024B0001AD03B68002B07D0FFF79EFD02467B69D0
:1024C000D31A3A689A420FD2FB683A699A420BD9FA
:1024D0007B689B6A43F004027B689A627B680022F7
:1024E00083F82420032330E0FB680133FB60FB68A2
:1024F0003A699A42D9D87B681B686FF012021A6059
:102500007B689B6A43F400727B689A627B681B68F5
:102510009B6803F46023B3F5602F15D17B681B7BA8
:10252000002B11D17B689B6A23F480727B689A62CE
:102530007B689B6A03F48053002B05D17B689B6A00
:1025400043F001027B689A62002318461C37BD469F
:1025500090BD00BF08000020244992242449920025
:1025600092244912922449004992240080B483B0F5
:1025700000AF78607B681B68DB6C18460C37BD4683
:1025800080BC704780B485B000AF786039600023AC
:10259000FB730023BB607B6893F82430012B01D1CF
:1025A0000223DCE07B68012283F824203B685B681F
:1025B000062B1CD87B681B68596B3B685A6813460E
:1025C0009B001344053B1F2202FA03F3DB4319402F
:1025D0003B6818683B685A6813469B001344053BE8
:1025E00000FA03F27B681B680A435A633CE03B68CD
:1025F0005B680C2B1CD87B681B68196B3B685A689E
:1026000013469B001344233B1F2202FA03F3DB43D0
:1026100019403B6818683B685A6813469B0013448E
:10262000233B00FA03F27B681B680A431A631BE032
:102630007B681B68D96A3B685A6813469B00134441
:10264000413B1F2202FA03F3DB4319403B68186841
:102650003B685A6813469B001344413B00FA03F25F
:102660007B681B680A43DA623B681B68092B1CD92C
:102670007B681B68D9683B681A6813465B00134483
:102680001E3B072202FA03F3DB4319403B689868BC
:102690003B681A6813465B0013441E3B00FA03F2C2
:1026A0007B681B680A43DA6019E07B681B6819695C
:1026B0003B681A6813465B001344072202FA03F3CF
:1026C000DB4319403B6898683B681A6813465B0017
:1026D000134400FA03F27B681B680A431A613B68E3
:1026E0001B68102B03D03B681B68112B32D17B6811
:1026F0001B681D4A934225D17B681B689B6803F4C5
:102700000003002B26D17B681B689A687B681B68D6
:1027100042F400029A603B681B68102B1AD1134BDD
:102720001B68134AA2FB03239A0C13469B00134415
:102730005B00BB6002E0BB68013BBB60BB68002B79
:10274000F9D107E07B689B6A43F020027B689A62BC
:102750000123FB737B68002283F82420FB7B18464F
:102760001437BD4680BC704700240140080000209B
:1027700083DE1B4380B584B000AF78600023FB602C
:102780000023BB607B681B689B6803F00103012B7F
:1027900040D07B681B689A687B681B6842F0010226
:1027A0009A601F4B1B681F4AA2FB03239B0CBB6054
:1027B00002E0BB68013BBB60BB68002BF9D1FFF7AF
:1027C0001BFCF8601FE0FFF717FC0246FB68D31AFA
:1027D000022B18D97B681B689B6803F00103012B4F
:1027E00011D07B689B6A43F010027B689A627B6819
:1027F000DB6A43F001027B68DA627B68002283F8BF
:102800002420012307E07B681B689B6803F0010319
:10281000012BD8D1002318461037BD4680BD00BF1C
:102820000800002083DE1B4380B584B000AF7860D1
:102830000023FB607B681B689B6803F00103012B8E
:102840002ED17B681B689A687B681B6822F00102A6
:102850009A60FFF7D1FBF8601BE0FFF7CDFB024663
:10286000FB68D31A022B14D97B681B689B6803F0A2
:102870000103012B0DD17B689B6A43F010027B683A
:102880009A627B68DB6A43F001027B68DA620123AB
:1028900007E07B681B689B6803F00103012BDCD019
:1028A000002318461037BD4680BD000080B485B0B7
:1028B00000AF78607B6803F00703FB600C4BDB68BC
:1028C000BB60BA684FF6FF031340BB60FB681A0297
:1028D000BB68134343F0BF6343F40033BB60044A57
:1028E000BB68D36000BF1437BD4680BC704700BFD3
:1028F00000ED00E080B400AF044BDB681B0A03F07E
:1029000007031846BD4680BC704700BF00ED00E0DD
:1029100080B483B000AF03463960FB7197F907308C
:10292000002B0ADB3B68DAB20C4997F90730120139
:10293000D2B20B4483F800230AE03B68DAB20849BC
:10294000FB7903F00F03043B1201D2B20B441A7659
:1029500000BF0C37BD4680BC704700BF00E100E0FF
:1029600000ED00E080B489B000AFF860B9607A6033
:10297000FB6803F00703FB61FB69C3F10703042B4A
:1029800028BF0423BB61FB690433062B02D9FB6912
:10299000033B00E000237B614FF0FF32BB6902FA8A
:1029A00003F3DA43BB681A407B699A404FF0FF316A
:1029B0007B6901FA03F3D9437B680B401343184644
:1029C0002437BD4680BC704780B582B000AF7860C8
:1029D0007B68013BB3F1807F01D301230FE00A4AFA
:1029E0007B68013B53600F214FF0FF30FFF790FFF2
:1029F000054B00229A60044B07221A6000231846F8
:102A00000837BD4680BD00BF10E000E080B582B051
:102A100000AF78607868FFF749FF00BF0837BD4610
:102A200080BD80B586B000AF0346B9607A60FB73A5
:102A300000237B61FFF75EFF78617A68B968786987
:102A4000FFF790FF024697F90F3011461846FFF73F
:102A50005FFF00BF1837BD4680BD80B582B000AFB4
:102A600078607868FFF7B0FF034618460837BD4620
:102A700080BD000080B48BB000AF78603960002367
:102A80007B6200233B6269E101227B6A02FA03F365
:102A9000FB613B681B68FA691340BB61BA69FB695B
:102AA0009A4240F058813B685B689A4A93425ED0F4
:102AB000984A934275D8984A934258D0964A93427E
:102AC0006FD8964A934252D0944A934269D8944A16
:102AD00093424CD0924A934263D8924A934246D052
:102AE000904A93425DD8122B2AD8122B59D801A2B2
:102AF00052F823F06F2B0008492B00085B2B0008CD
:102B00009D2B0008A32B0008A32B0008A32B000873
:102B1000A32B0008A32B0008A32B0008A32B00085D
:102B2000A32B0008A32B0008A32B0008A32B00084D
:102B3000A32B0008A32B0008512B0008652B0008CD
:102B4000794A934213D02CE03B68DB683B6229E072
:102B50003B68DB6804333B6224E03B68DB68083396
:102B60003B621FE03B68DB680C333B621AE03B686A
:102B70009B68002B02D104233B6213E03B689B68F7
:102B8000012B05D108233B627B68FA691A6109E0D1
:102B900008233B627B68FA695A6103E000233B62C9
:102BA00000E000BFBB69FF2B01D87B6801E07B68B8
:102BB00004337B61BB69FF2B02D87B6A9B0002E078
:102BC0007B6A083B9B003B617B691A680F213B696C
:102BD00001FA03F3DB431A40396A3B6901FA03F354
:102BE0001A437B691A603B685B6803F08053002BD3
:102BF00000F0B1804D4B9B694C4A43F00103936157
:102C00004A4B9B6903F00103BB60BB68484A7B6A7F
:102C10009B08023352F82330FB607B6A03F0030306
:102C20009B000F2202FA03F3DB43FA681340FB60B8
:102C30007B68404A934213D07B683F4A93420DD051
:102C40007B683E4A934207D07B683D4A934201D15C
:102C5000032306E0042304E0022302E0012300E052
:102C600000237A6A02F0030292009340FA68134349
:102C7000FB602F497B6A9B080233FA6841F82320E6
:102C80003B685B6803F48013002B06D02D4B9A68D9
:102C90002C49BB6913438B6006E02A4B9A68BB69D9
:102CA000DB43284913408B603B685B6803F40013E7
:102CB000002B06D0234BDA682249BB691343CB6053
:102CC00006E0204BDA68BB69DB431E491340CB604A
:102CD0003B685B6803F40033002B06D0194B5A683D
:102CE0001849BB6913434B6006E0164B5A68BB6931
:102CF000DB43144913404B603B685B6803F480334B
:102D0000002B21D00F4B1A680E49BB6913430B608F
:102D100021E000BF0000321000003110000022103E
:102D200000002110000012100000111000100240DD
:102D30000000014000080140000C0140001001406B
:102D400000140140000401400B4B1A68BB69DB43CF
:102D5000094913400B607B6A01337B623B681A6848
:102D60007B6A22FA03F3002B7FF48EAE00BF00BF14
:102D70002C37BD4680BC70470004014080B485B04C
:102D800000AF78600B467B807B689A687B88134035
:102D9000002B02D00123FB7301E00023FB73FB7BBC
:102DA00018461437BD4680BC704780B483B000AF6E
:102DB00078600B467B8013467B707B78002B03D0BA
:102DC0007A887B681A6103E07B881A047B681A6141
:102DD00000BF0C37BD4680BC7047000080B586B090
:102DE00000AF78607B68002B01D1012372E27B6821
:102DF0001B6803F00103002B00F08780924B5B6897
:102E000003F00C03042B0CD08F4B5B6803F00C0316
:102E1000082B12D18C4B5B6803F48033B3F5803FF1
:102E20000BD1894B1B6803F40033002B6CD07B68FB
:102E30005B68002B68D101234CE27B685B68B3F5CB
:102E4000803F06D1804B1B687F4A43F48033136078
:102E50002EE07B685B68002B0CD17B4B1B687A4AA9
:102E600023F480331360784B1B68774A23F4802364
:102E700013601DE07B685B68B3F5A02F0CD1724B2B
:102E80001B68714A43F4802313606F4B1B686E4AC2
:102E900043F4803313600BE06B4B1B686A4A23F4E6
:102EA00080331360684B1B68674A23F480231360E8
:102EB0007B685B68002B13D0FFF79EF8386108E051
:102EC000FFF79AF802463B69D31A642B01D9032312
:102ED00000E25D4B1B6803F40033002BF0D014E0DC
:102EE000FFF78AF8386108E0FFF786F802463B6989
:102EF000D31A642B01D90323ECE1534B1B6803F471
:102F00000033002BF0D100E000BF7B681B6803F0AA
:102F10000203002B63D04C4B5B6803F00C03002BC7
:102F20000BD0494B5B6803F00C03082B1CD1464BBC
:102F30005B6803F48033002B16D1434B1B6803F00E
:102F40000203002B05D07B681B69012B01D00123F4
:102F5000C0E13D4B1B6823F0F8027B685B69DB0036
:102F6000394913430B603AE07B681B69002B20D082
:102F7000364B01221A60FFF73FF8386108E0FFF78F
:102F80003BF802463B69D31A022B01D90323A1E186
:102F90002D4B1B6803F00203002BF0D02A4B1B685B
:102FA00023F0F8027B685B69DB00274913430B6061
:102FB00015E0264B00221A60FFF71EF8386108E082
:102FC000FFF71AF802463B69D31A022B01D90323F3
:102FD00080E11D4B1B6803F00203002BF0D17B68DE
:102FE0001B6803F00803002B3AD07B689B69002B19
:102FF00019D0174B01221A60FEF7FEFF386108E076
:10300000FEF7FAFF02463B69D31A022B01D90323CC
:1030100060E10D4B5B6A03F00203002BF0D001204E
:1030200000F0CEFA1CE00A4B00221A60FEF7E4FF23
:1030300038610FE0FEF7E0FF02463B69D31A022B2E
:1030400008D9032346E100BF0010024000004242BD
:1030500080044242924B5B6A03F00203002BE9D1E9
:103060007B681B6803F00403002B00F0A68000239C
:10307000FB758B4BDB6903F08053002B0DD1884B24
:10308000DB69874A43F08053D361854BDB6903F0EA
:103090008053BB60BB680123FB75824B1B6803F444
:1030A0008073002B18D17F4B1B687E4A43F48073DA
:1030B0001360FEF7A1FF386108E0FEF79DFF0246AE
:1030C0003B69D31A642B01D9032303E1754B1B68B9
:1030D00003F48073002BF0D07B68DB68012B06D1F2
:1030E0006F4B1B6A6E4A43F0010313622DE07B684D
:1030F000DB68002B0CD16A4B1B6A694A23F0010381
:103100001362674B1B6A664A23F0040313621CE0D8
:103110007B68DB68052B0CD1614B1B6A604A43F06E
:10312000040313625E4B1B6A5D4A43F001031362A2
:103130000BE05B4B1B6A5A4A23F001031362584BA6
:103140001B6A574A23F0040313627B68DB68002B79
:1031500015D0FEF751FF38610AE0FEF74DFF024639
:103160003B69D31A41F28832934201D90323B1E07B
:103170004B4B1B6A03F00203002BEED014E0FEF76A
:103180003BFF38610AE0FEF737FF02463B69D31A7E
:1031900041F28832934201D903239BE0404B1B6AE2
:1031A00003F00203002BEED1FB7D012B05D13C4B3C
:1031B000DB693B4A23F08053D3617B68DB69002BDA
:1031C00000F08780364B5B6803F00C03082B61D05E
:1031D0007B68DB69022B46D1334B00221A60FEF775
:1031E0000BFF386108E0FEF707FF02463B69D31A80
:1031F000022B01D903236DE0294B1B6803F00073F8
:10320000002BF0D17B681B6AB3F5803F08D1244BBB
:103210005B6823F400327B689B68214913434B6051
:103220001F4B5B6823F474127B68196A7B685B6AC6
:103230000B431B4913434B601B4B01221A60FEF7E3
:10324000DBFE386108E0FEF7D7FE02463B69D31A81
:10325000022B01D903233DE0114B1B6803F00073DF
:10326000002BF0D035E0104B00221A60FEF7C4FEB0
:10327000386108E0FEF7C0FE02463B69D31A022B14
:1032800001D9032326E0064B1B6803F00073002BD3
:10329000F0D11EE07B68DB69012B07D1012319E027
:1032A0000010024000700040600042420B4B5B681F
:1032B000FB60FB6803F480327B681B6A9A4206D18C
:1032C000FB6803F470127B685B6A9A4201D00123A9
:1032D00000E0002318461837BD4680BD00100240AC
:1032E00080B584B000AF786039607B68002B01D175
:1032F0000123D0E06A4B1B6803F007033A689A4247
:1033000010D9674B1B6823F0070265493B681343DC
:103310000B60634B1B6803F007033A689A4201D0C5
:103320000123B8E07B681B6803F00203002B20D068
:103330007B681B6803F00403002B05D0594B5B68C6
:10334000584A43F4E06353607B681B6803F008034A
:10335000002B05D0534B5B68524A43F460535360D3
:10336000504B5B6823F0F0027B689B684D49134328
:103370004B607B681B6803F00103002B40D07B6827
:103380005B68012B07D1474B1B6803F40033002B0C
:1033900015D101237FE07B685B68022B07D1414B8D
:1033A0001B6803F00073002B09D1012373E03D4B30
:1033B0001B6803F00203002B01D101236BE0394BA2
:1033C0005B6823F003027B685B68364913434B60FC
:1033D000FEF712FEF8600AE0FEF70EFE0246FB68FA
:1033E000D31A41F28832934201D9032353E02D4B83
:1033F0005B6803F00C027B685B689B009A42EBD130
:10340000274B1B6803F007033A689A4210D2244BFB
:103410001B6823F0070222493B6813430B60204BD3
:103420001B6803F007033A689A4201D0012332E097
:103430007B681B6803F00403002B08D0194B5B6802
:1034400023F4E0627B68DB68164913434B607B68BA
:103450001B6803F00803002B09D0124B5B6823F4B0
:1034600060527B681B69DB000E4913434B6000F020
:1034700021F802460B4B5B681B0903F00F030A4956
:10348000CB5C22FA03F3094A1360094B1B68184608
:10349000FEF770FD002318461037BD4680BD00BF03
:1034A0000020024000100240887900080800002037
:1034B0000C00002080B487B000AF0023FB60002325
:1034C000BB6000237B6100237B6000233B611E4BBC
:1034D0005B68FB60FB6803F00C03042B02D0082B35
:1034E00003D027E0194B3B6127E0FB689B0C03F0FE
:1034F0000F03174AD35C7B60FB6803F48033002B17
:1035000010D0114B5B685B0C03F00103114AD35CD4
:10351000BB607B680D4A03FB02F2BB68B2FBF3F3AE
:103520007B6104E07B680C4A02FB03F37B617B69EF
:103530003B6102E0054B3B6100BF3B6918461C370D
:10354000BD4680BC704700BF0010024000127A00E8
:10355000A0790008B079000800093D0080B400AFF0
:10356000024B1B681846BD4680BC7047080000200F
:1035700080B500AFFFF7F2FF0246054B5B681B0A00
:1035800003F007030349CB5C22FA03F3184680BD1E
:10359000001002409879000880B500AFFFF7DEFF09
:1035A0000246054B5B68DB0A03F007030349CB5C6B
:1035B00022FA03F3184680BD0010024098790008F3
:1035C00080B485B000AF78600A4B1B680A4AA2FB42
:1035D00003235B0A7A6802FB03F3FB6000BFFB680E
:1035E0005A1EFA60002BF9D100BF00BF1437BD4648
:1035F00080BC704708000020D34D621080B586B0B3
:1036000000AF786000233B610023FB607B681B6890
:1036100003F00103002B7DD00023FB754F4BDB69CA
:1036200003F08053002B0DD14C4BDB694B4A43F028
:103630008053D361494BDB6903F08053BB60BB68A7
:103640000123FB75464B1B6803F48073002B18D1D4
:10365000434B1B68424A43F480731360FEF7CCFC73
:10366000386108E0FEF7C8FC02463B69D31A642BB8
:1036700001D903236DE03A4B1B6803F48073002BE0
:10368000F0D0364B1B6A03F44073FB60FB68002BE1
:103690002ED07B685B6803F44073FA689A4227D0A7
:1036A0002E4B1B6A23F44073FB602E4B01221A60E1
:1036B0002C4B00221A60294AFB681362FB6803F056
:1036C0000103002B14D0FEF797FC38610AE0FEF7E7
:1036D00093FC02463B69D31A41F28832934201D9E6
:1036E000032336E01D4B1B6A03F00203002BEED0D0
:1036F0001A4B1B6A23F440727B685B6817491343BB
:103700000B62FB7D012B05D1144BDB69134A23F0BF
:103710008053D3617B681B6803F00203002B08D041
:103720000E4B5B6823F440427B689B680B49134354
:103730004B607B681B6803F01003002B08D0074B1D
:103740005B6823F480027B68DB68044913434B60A9
:10375000002318461837BD4680BD00BF0010024048
:10376000007000404004424280B588B000AF7860ED
:1037700000237B610023FB6100233B610023FB608E
:103780000023BB617B68102B0AD07B68102B00F2F2
:103790008A807B68012B45D07B68022B75D082E044
:1037A000464B5B68FB60454B1B6803F08073002B46
:1037B0007BD0FB689B0C03F00F03414AD35C3B6159
:1037C000FB6803F48033002B15D03C4B5B685B0C2B
:1037D00003F001033B4AD35C7B61FB6803F4803355
:1037E000002B0DD0384A7B69B2FBF3F23B6902FB38
:1037F00003F3FB6104E03B69344A02FB03F3FB6122
:103800002E4B5B6803F48003B3F5800F02D1FB6994
:10381000BB614AE0FB695B002D4AA2FB03235B0806
:10382000BB6142E0254B1B6AFB60FB6803F44073FD
:10383000B3F5807F08D1FB6803F00203002B03D0AF
:103840004FF40043BB611FE0FB6803F44073B3F522
:10385000007F09D1194B5B6A03F00203002B03D0F0
:1038600049F64043BB610FE0FB6803F44073B3F5D6
:10387000407F1CD1114B1B6803F40033002B16D082
:103880004FF22443BB6112E011E0FFF785FE0246D0
:103890000A4B5B689B0B03F0030301335B00B2FB35
:1038A000F3F3BB6104E000BF02E000BF00E000BF33
:1038B000BB6918462037BD4680BD00BF00100240DE
:1038C000B4790008C479000800127A0000093D00AC
:1038D000ABAAAAAA80B582B000AF78607B68002B43
:1038E00001D1012376E07B685B6A002B08D17B68FD
:1038F0005B68B3F5827F09D07B680022DA6105E05E
:103900007B6800221A617B6800225A617B68002272
:103910009A627B6893F85130DBB2002B06D17B684A
:10392000002283F850207868FEF796F97B6802221F
:1039300083F851207B681B681A687B681B6822F03B
:1039400040021A607B685B6803F482727B689B6844
:1039500003F404431A437B68DB6803F400631A43EF
:103960007B681B6903F002031A437B685B6903F001
:1039700001031A437B689B6903F400731A437B6855
:10398000DB6903F038031A437B681B6A03F080038A
:1039900042EA03017B689B6A03F400527B681B6860
:1039A0000A431A607B689B691A0C7B681B6802F0EB
:1039B00004025A607B681B68DA697B681B6822F422
:1039C0000062DA617B6800225A657B68012283F815
:1039D0005120002318460837BD4680BD80B588B009
:1039E00000AFF860B9603B601346FB80FEF704FB54
:1039F000F861FB887B83FB6893F85130DBB2012BC5
:103A000001D002232AE1BB68002B02D0FB88002BE7
:103A100001D1012322E1FB6893F85030012B01D141
:103A200002231BE1FB68012283F85020FB6803227C
:103A300083F85120FB6800225A65FB68BA681A6354
:103A4000FB68FA889A86FB68FA88DA86FB680022A7
:103A50009A63FB6800229A87FB680022DA87FB687A
:103A600000225A64FB6800221A64FB689B68B3F565
:103A7000004F0FD1FB681B681A68FB681B6822F0B7
:103A800040021A60FB681B681A68FB681B6842F4F6
:103A900080421A60FB681B681B6803F04003402BE0
:103AA00007D0FB681B681A68FB681B6842F040027D
:103AB0001A60FB68DB68B3F5006F52D1FB685B6886
:103AC000002B02D07B8B012B45D1FB681B6B1A8826
:103AD000FB681B68DA60FB681B6B9A1CFB681A6347
:103AE000FB68DB8E9BB2013B9AB2FB68DA8632E060
:103AF000FB681B689B6803F00203022B12D1FB6872
:103B00001B6B1A88FB681B68DA60FB681B6B9A1CCE
:103B1000FB681A63FB68DB8E9BB2013B9AB2FB68C1
:103B2000DA8618E0FEF768FA0246FB69D31A3A68AB
:103B30009A4203D83B68B3F1FF3F02D13B68002BA8
:103B400009D1FB68012283F85120FB68002283F829
:103B50005020032382E0FB68DB8E9BB2002BC7D191
:103B600053E0FB685B68002B02D07B8B012B47D1B5
:103B7000FB681A6BFB681B680C3312781A70FB68C1
:103B80001B6B5A1CFB681A63FB68DB8E9BB2013B04
:103B90009AB2FB68DA8633E0FB681B689B6803F027
:103BA0000203022B13D1FB681A6BFB681B680C33F2
:103BB00012781A70FB681B6B5A1CFB681A63FB684F
:103BC000DB8E9BB2013B9AB2FB68DA8618E0FEF707
:103BD00013FA0246FB69D31A3A689A4203D83B6843
:103BE000B3F1FF3F02D13B68002B09D1FB680122F2
:103BF00083F85120FB68002283F8502003232DE036
:103C0000FB68DB8E9BB2002BC6D1FA693968F86875
:103C100000F0C4FB0346002B02D0FB6820225A654B
:103C2000FB689B68002B0AD100237B61FB681B6843
:103C3000DB687B61FB681B689B687B617B69FB6859
:103C4000012283F85120FB68002283F85020FB6892
:103C50005B6D002B01D0012300E0002318462037C4
:103C6000BD4680BD80B588B002AFF860B9603B60EA
:103C70001346FB80FB6893F85130DBB2012B01D077
:103C8000022304E1FB685B68B3F5827F12D1FB6815
:103C90009B68002B0ED1FB68042283F85120FA8820
:103CA0003B6800931346BA68B968F86800F0F3F807
:103CB0000346ECE0FEF7A0F97861BB68002B02D068
:103CC000FB88002B01D10123E1E0FB6893F8503021
:103CD000012B01D10223DAE0FB68012283F8502096
:103CE000FB68042283F85120FB6800225A65FB68B8
:103CF000BA689A63FB68FA889A87FB68FA88DA8759
:103D0000FB6800221A63FB6800229A86FB68002287
:103D1000DA86FB6800221A64FB6800225A64FB689A
:103D20009B68B3F5004F0FD1FB681B681A68FB68EE
:103D30001B6822F040021A60FB681B681A68FB6867
:103D40001B6822F480421A60FB681B681B6803F042
:103D50004003402B07D0FB681B681A68FB681B6890
:103D600042F040021A60FB68DB68002B70D135E03E
:103D7000FB681B689B6803F00103012B15D1FB68EE
:103D80001B6803F10C02FB689B6B1278D2B21A70AD
:103D9000FB689B6B5A1CFB689A63FB68DB8F9BB2CA
:103DA000013B9AB2FB68DA8718E0FEF725F9024674
:103DB0007B69D31A3A689A4203D83B68B3F1FF3F54
:103DC00002D13B68002B09D1FB68012283F8512006
:103DD000FB68002283F85020032358E0FB68DB8F48
:103DE0009BB2002BC4D138E0FB681B689B6803F0D2
:103DF0000103012B13D1FB681B68DA68FB689B6B1E
:103E000092B21A80FB689B6B9A1CFB689A63FB68F2
:103E1000DB8F9BB2013B9AB2FB68DA8718E0FEF7B2
:103E2000EBF802467B69D31A3A689A4203D83B689A
:103E3000B3F1FF3F02D13B68002B09D1FB6801229F
:103E400083F85120FB68002283F8502003231EE0F2
:103E5000FB68DB8F9BB2002BC6D17A693968F868A2
:103E600000F04AFA0346002B02D0FB6820225A6574
:103E7000FB68012283F85120FB68002283F8502060
:103E8000FB685B6D002B01D0012300E00023184686
:103E90001837BD4680BD80B58AB000AFF860B96004
:103EA0007A607B8001237B62FEF7A6F83862FB68AC
:103EB00093F85130FB77FB685B68BB617B88FB82C2
:103EC000FB7F012B0CD0BB69B3F5827F06D1FB6869
:103ED0009B68002B02D1FB7F042B01D002237FE1E2
:103EE000BB68002B05D07B68002B02D07B88002BA1
:103EF00001D1012374E1FB6893F85030012B01D10B
:103F000002236DE1FB68012283F85020FB6893F8DF
:103F10005130DBB2042B03D0FB68052283F851201B
:103F2000FB6800225A65FB687A689A63FB687A88A6
:103F3000DA87FB687A889A87FB68BA681A63FB6835
:103F40007A88DA86FB687A889A86FB6800221A6487
:103F5000FB6800225A64FB681B681B6803F040037F
:103F6000402B07D0FB681B681A68FB681B6842F08F
:103F700040021A60FB68DB68B3F5006F7ED1FB6816
:103F80005B68002B02D0FB8A012B6CD1FB681B6B9A
:103F90001A88FB681B68DA60FB681B6B9A1CFB685D
:103FA0001A63FB68DB8E9BB2013B9AB2FB68DA8630
:103FB00059E0FB681B689B6803F00203022B1BD1CE
:103FC000FB68DB8E9BB2002B16D07B6A012B13D1D2
:103FD000FB681B6B1A88FB681B68DA60FB681B6B4D
:103FE0009A1CFB681A63FB68DB8E9BB2013B9AB29A
:103FF000FB68DA8600237B62FB681B689B6803F022
:104000000103012B19D1FB68DB8F9BB2002B14D06D
:10401000FB681B68DA68FB689B6B92B21A80FB68CE
:104020009B6B9A1CFB689A63FB68DB8F9BB2013B1E
:104030009AB2FB68DA8701237B62FDF7DDFF024657
:104040003B6AD31A3A6B9A420DD83B6BB3F1FF3FF0
:1040500009D0FB68012283F85120FB68002283F815
:1040600050200323BCE0FB68DB8E9BB2002BA0D169
:10407000FB68DB8F9BB2002B9BD182E0FB685B6807
:10408000002B02D0FB8A012B71D1FB681A6BFB68F5
:104090001B680C3312781A70FB681B6B5A1CFB6888
:1040A0001A63FB68DB8E9BB2013B9AB2FB68DA862F
:1040B0005DE0FB681B689B6803F00203022B1CD1C8
:1040C000FB68DB8E9BB2002B17D07B6A012B14D1CF
:1040D000FB681A6BFB681B680C3312781A70FB685C
:1040E0001B6B5A1CFB681A63FB68DB8E9BB2013B9F
:1040F0009AB2FB68DA8600237B62FB681B689B68C8
:1041000003F00103012B19D1FB68DB8F9BB2002B5D
:1041100014D0FB681B68DA68FB689B6BD2B21A701C
:10412000FB689B6B5A1CFB689A63FB68DB8F9BB236
:10413000013B9AB2FB68DA8701237B62FDF75CFFE3
:1041400002463B6AD31A3A6B9A4203D83B6BB3F1EF
:10415000FF3F02D13B6B002B09D1FB68012283F8A2
:104160005120FB68002283F85020032338E0FB68CD
:10417000DB8E9BB2002B9CD1FB68DB8F9BB2002BAC
:1041800097D13A6A396BF86800F008F90346002BBA
:1041900008D0FB6820225A65FB68002283F8502073
:1041A00001231DE0FB689B68002B0AD100233B61C3
:1041B000FB681B68DB683B61FB681B689B683B61B5
:1041C0003B69FB68012283F85120FB68002283F8D9
:1041D0005020FB685B6D002B01D0012300E0002321
:1041E00018462837BD4680BD80B588B000AFF8605E
:1041F000B9603B601346FB71FDF7FEFE0246BB6AE9
:104200009B1A3A681344FB61FDF7F6FEB861394B1F
:104210001B685B011B0DFA6902FB03F37B6154E031
:104220003B68B3F1FF3F50D0FDF7E6FE0246BB69A5
:10423000D31AFA699A4202D9FB69002B3DD1FB6877
:104240001B685A68FB681B6822F0E0025A60FB6832
:104250005B68B3F5827F11D1FB689B68B3F5004FB3
:1042600004D0FB689B68B3F5806F07D1FB681B68BF
:104270001A68FB681B6822F040021A60FB689B6AA0
:10428000B3F5005F0FD1FB681B681A68FB681B68F9
:1042900022F400521A60FB681B681A68FB681B68EE
:1042A00042F400521A60FB68012283F85120FB6837
:1042B000002283F85020032317E07B69002B01D1F3
:1042C0000023FB617B69013B7B61FB681B689A688B
:1042D000BB681340BA689A420CBF01230023DBB2CB
:1042E0001A46FB799A429BD1002318462037BD46D7
:1042F00080BD00BF0800002080B586B002AFF86026
:10430000B9607A60FB685B68B3F5827F11D1FB68A6
:104310009B68B3F5004F04D0FB689B68B3F5806FD2
:1043200007D1FB681B681A68FB681B6822F0400213
:104330001A60FB685B68B3F5827F17D1FB689B68E6
:10434000B3F5806F12D17B680093BB680022012116
:10435000F868FFF749FF0346002B1AD0FB685B6D36
:1043600043F02002FB685A65032313E07B68009347
:10437000BB6800228021F868FFF736FF0346002B58
:1043800007D0FB685B6D43F02002FB685A6503238E
:1043900000E0002318461037BD4680BD80B586B0CA
:1043A00002AFF860B9607A607B680093BB68012255
:1043B0000221F868FFF718FF0346002B07D0FB68BF
:1043C0005B6D43F02002FB685A65032313E07B68B2
:1043D0000093BB6800228021F868FFF705FF0346C1
:1043E000002B07D0FB685B6D43F02002FB685A6529
:1043F000032300E0002318461037BD4680BD80B57A
:1044000082B000AF78607B68002B01D1012341E0CE
:104410007B6893F83D30DBB2002B06D17B6800222D
:1044200083F83C207868FDF763FC7B68022283F800
:104430003D207B681A687B6804331946104600F0FB
:1044400091F97B68012283F846207B68012283F87A
:104450003E207B68012283F83F207B68012283F89D
:1044600040207B68012283F841207B68012283F889
:1044700042207B68012283F843207B68012283F875
:1044800044207B68012283F845207B68012283F861
:104490003D20002318460837BD4680BD80B584B056
:1044A00000AF786039603B68002B09D17B6893F8D6
:1044B0003E30DBB2012B14BF01230023DBB222E02C
:1044C0003B68042B09D17B6893F83F30DBB2012BAA
:1044D00014BF01230023DBB215E03B68082B09D190
:1044E0007B6893F84030DBB2012B14BF012300231B
:1044F000DBB208E07B6893F84130DBB2012B14BFDC
:1045000001230023DBB2002B01D001235EE03B68D6
:10451000002B04D17B68022283F83E2013E03B6825
:10452000042B04D17B68022283F83F200BE03B6818
:10453000082B04D17B68022283F8402003E07B68CB
:10454000022283F841207B681B68012239681846E3
:1045500000F0FEFA7B681B681E4A934207D17B6815
:104560001B685A6C7B681B6842F400425A647B6883
:104570001B68184A93420ED07B681B68B3F1804FCA
:1045800009D07B681B68144A934204D07B681B687F
:10459000124A934211D17B681B689B6803F00703A2
:1045A000FB60FB68062B10D07B681B681A687B6871
:1045B0001B6842F001021A6007E07B681B681A68FA
:1045C0007B681B6842F001021A600023184610370E
:1045D000BD4680BD002C01400004004000080040A2
:1045E00080B586B000AFF860B9607A600023FB75D3
:1045F000FB6893F83C30012B01D10223AEE0FB684D
:10460000012283F83C207B680C2B00F29F8001A2E2
:1046100052F823F0494600084D4700084D4700086E
:104620004D470008894600084D4700084D470008DF
:104630004D470008CB4600084D4700084D4700088D
:104640004D4700080B470008FB681B68B96818460F
:1046500000F0F6F8FB681B689A69FB681B6842F07B
:1046600008029A61FB681B689A69FB681B6822F064
:1046700004029A61FB681B689969BB681A69FB6848
:104680001B680A439A6164E0FB681B68B9681846B6
:1046900000F03CF9FB681B689A69FB681B6842F4F0
:1046A00000629A61FB681B689A69FB681B6822F4C8
:1046B00080629A61FB681B689969BB681B691A0272
:1046C000FB681B680A439A6143E0FB681B68B96892
:1046D000184600F085F9FB681B68DA69FB681B68FF
:1046E00042F00802DA61FB681B68DA69FB681B6844
:1046F00022F00402DA61FB681B68D969BB681A6999
:10470000FB681B680A43DA6123E0FB681B68B96831
:10471000184600F0CFF9FB681B68DA69FB681B6874
:1047200042F40062DA61FB681B68DA69FB681B68A7
:1047300022F48062DA61FB681B68D969BB681B6977
:104740001A02FB681B680A43DA6102E00123FB7569
:1047500000BFFB68002283F83C20FB7D1846183719
:10476000BD4680BD80B485B000AF786039607B689D
:104770001B68FB607B682F4A93420BD07B68B3F1C8
:10478000804F07D07B682C4A934203D07B682B4A2A
:10479000934208D1FB6823F07003FB603B685B68C1
:1047A000FA681343FB607B68224A93420BD07B6814
:1047B000B3F1804F07D07B681F4A934203D07B68D8
:1047C0001E4A934208D1FB6823F44073FB603B68A8
:1047D000DB68FA681343FB60FB6823F080023B68E8
:1047E0005B691343FB607B68FA681A603B689A68F0
:1047F0007B68DA623B681A687B689A627B680D4A5C
:10480000934203D13B681A697B681A637B68012273
:104810005A617B681B6903F00103002B05D07B689C
:104820001B6923F001027B681A6100BF1437BD4683
:1048300080BC7047002C014000040040000800408C
:1048400080B487B000AF786039607B681B6A7B6199
:104850007B681B6A23F001027B681A627B685B68D5
:104860003B617B689B69FB60FB6823F07003FB6026
:10487000FB6823F00303FB603B681B68FA68134383
:10488000FB607B6923F002037B613B689B687A696C
:1048900013437B617B681C4A93420CD17B6923F0F4
:1048A00008037B613B68DB687A6913437B617B6942
:1048B00023F004037B617B68134A934211D13B6967
:1048C00023F480733B613B6923F400733B613B68D5
:1048D0005B693A6913433B613B689B693A691343DF
:1048E0003B617B683A695A607B68FA689A613B6809
:1048F0005A687B685A637B687A691A6200BF1C3702
:10490000BD4680BC704700BF002C014080B487B01A
:1049100000AF786039607B681B6A7B617B681B6ACB
:1049200023F010027B681A627B685B683B617B68DE
:104930009B69FB60FB6823F4E043FB60FB6823F4A6
:104940004073FB603B681B681B02FA681343FB6003
:104950007B6923F020037B613B689B681B017A69BC
:1049600013437B617B681D4A93420DD17B6923F021
:1049700080037B613B68DB681B017A6913437B61C1
:104980007B6923F040037B617B68144A934213D117
:104990003B6923F480633B613B6923F400633B6123
:1049A0003B685B699B003A6913433B613B689B69C9
:1049B0009B003A6913433B617B683A695A607B68A4
:1049C000FA689A613B685A687B689A637B687A697F
:1049D0001A6200BF1C37BD4680BC7047002C0140E6
:1049E00080B487B000AF786039607B681B6A7B61F8
:1049F0007B681B6A23F480727B681A627B685B6841
:104A00003B617B68DB69FB60FB6823F07003FB6044
:104A1000FB6823F00303FB603B681B68FA681343E1
:104A2000FB607B6923F400737B613B689B681B021E
:104A30007A6913437B617B681D4A93420DD17B6980
:104A400023F400637B613B68DB681B027A691343D4
:104A50007B617B6923F480637B617B68144A9342AA
:104A600013D13B6923F480533B613B6923F400532A
:104A70003B613B685B691B013A6913433B613B68DF
:104A80009B691B013A6913433B617B683A695A6031
:104A90007B68FA68DA613B685A687B68DA637B682E
:104AA0007A691A6200BF1C37BD4680BC704700BFE0
:104AB000002C014080B487B000AF786039607B681B
:104AC0001B6A3B617B681B6A23F480527B681A6215
:104AD0007B685B687B617B68DB69FB60FB6823F458
:104AE000E043FB60FB6823F44073FB603B681B689A
:104AF0001B02FA681343FB603B6923F400533B61DC
:104B00003B689B681B033A6913433B617B680F4A10
:104B1000934209D17B6923F480437B613B685B69E5
:104B20009B017A6913437B617B687A695A607B6871
:104B3000FA68DA613B685A687B681A647B683A698C
:104B40001A6200BF1C37BD4680BC7047002C014074
:104B500080B487B000AFF860B9607A60BB6803F0DA
:104B60001F03012202FA03F37B61FB681A6A7B6967
:104B7000DB431A40FB681A62FB681A6ABB6803F0E1
:104B80001F03796801FA03F31A43FB681A6200BF36
:104B90001C37BD4680BC704780B485B000AF7860DC
:104BA00039607B6893F83C30012B01D1022346E049
:104BB0007B68012283F83C207B68022283F83D2039
:104BC0007B681B685B68FB607B681B689B68BB60DD
:104BD000FB6823F07003FB603B681B68FA681343B3
:104BE000FB607B681B68FA685A607B681B68164A22
:104BF00093420ED07B681B68B3F1804F09D07B686D
:104C00001B68124A934204D07B681B68104A934287
:104C10000CD1BB6823F08003BB603B685B68BA685B
:104C20001343BB607B681B68BA689A607B6801228B
:104C300083F83D207B68002283F83C20002318463F
:104C40001437BD4680BC7047002C01400004004072
:104C50000008004080B582B000AF78607B68002B10
:104C600001D1012342E07B6893F84130DBB2002B95
:104C700006D17B68002283F840207868FDF788F829
:104C80007B68242283F841207B681B68DA687B6894
:104C90001B6822F40052DA60786800F0CFF97B6874
:104CA0001B681A697B681B6822F490421A617B6852
:104CB0001B685A697B681B6822F02A025A617B686C
:104CC0001B68DA687B681B6842F40052DA607B6814
:104CD00000225A647B68202283F841207B682022CE
:104CE00083F842207B6800225A6300231846083765
:104CF000BD4680BD80B58AB002AFF860B9603B6048
:104D00001346FB8000237B61FB6893F84130DBB2E4
:104D1000202B75D1BB68002B02D0FB88002B01D162
:104D200001236EE0FB6800225A64FB68212283F8AD
:104D30004120FDF761F97861FB68FA889A84FB6885
:104D4000FA88DA84FB689B68B3F5805F08D1FB685A
:104D50001B69002B04D10023FB61BB68BB6103E02E
:104D6000BB68FB610023BB612EE03B6800937B695D
:104D700000228021F86800F06DF80346002B05D072
:104D8000FB68202283F8412003233AE0FB69002BD3
:104D90000BD1BB691B881A46FB681B68C2F308026B
:104DA0005A60BB690233BB6107E0FB691A78FB6894
:104DB0001B685A60FB690133FB61FB68DB8C9BB2AB
:104DC000013B9AB2FB68DA84FB68DB8C9BB2002B58
:104DD000CBD13B6800937B6900224021F86800F04A
:104DE00039F80346002B05D0FB68202283F84120C8
:104DF000032306E0FB68202283F84120002300E023
:104E0000022318462037BD4680BD80B584B000AF70
:104E1000F860B9601346FB80FB6893F84230DBB260
:104E2000202B12D1BB68002B02D0FB88002B01D1B4
:104E300001230BE0FB6800221A63FB881A46B9685D
:104E4000F86800F060F8034600E0022318461037C7
:104E5000BD4680BD80B586B000AFF860B9603B60EC
:104E60001346FB713BE03B6AB3F1FF3F37D0FDF7E0
:104E7000C3F802463B68D31A3A6A9A4202D33B6AA5
:104E8000002B01D103233AE0FB681B68DB6803F0C9
:104E90000403002B23D0BB68802B20D0BB68402BA1
:104EA0001DD0FB681B681B6803F00803082B16D194
:104EB00000237B61FB681B681B687B61FB681B68C8
:104EC0005B687B617B69F86800F056F8FB68082234
:104ED0005A64FB68002283F8402001230FE0FB683E
:104EE0001B681A68BB681340BA689A420CBF01235A
:104EF0000023DBB21A46FB799A42B4D0002318464D
:104F00001837BD4680BD80B485B000AFF860B96089
:104F10001346FB80FB68BA689A62FB68FA889A8538
:104F2000FB68FA88DA85FB6800225A64FB68222253
:104F300083F84220FB681B69002B07D0FB681B68C5
:104F4000DA68FB681B6842F48072DA60FB681B68F1
:104F50005A69FB681B6842F001025A61FB681B68D2
:104F6000DA68FB681B6842F02002DA60002318460A
:104F70001437BD4680BC704780B495B000AF7860F0
:104F80007B681B680C337B637B6B53E8003F3B63A0
:104F90003B6B23F49073FB647B681B680C33FA6CE7
:104FA0003A64FB63F96B3A6C41E80023BB63BB6B6B
:104FB000002BE5D17B681B6814333B623B6A53E8E6
:104FC000003FFB61FB6923F00103BB647B681B6846
:104FD0001433BA6CFA62BB62B96AFA6A41E8002318
:104FE0007B627B6A002BE5D17B681B6B012B19D19F
:104FF0007B681B680C33FB60FB6853E8003FBB60B9
:10500000BB6823F010037B647B681B680C337A6CED
:10501000BA617B617969BA6941E800233B613B6908
:10502000002BE5D17B68202283F842207B68002298
:105030001A6300BF5437BD4680BC704780B584B04A
:1050400000AF78607B681B681B6923F440517B6864
:10505000DA687B681B680A431A617B689A687B6818
:105060001B691A437B685B691343BB607B681B68E1
:10507000DB6823F4B05323F00C037A681268B96834
:105080000B43D3607B681B685B6923F440717B68CA
:105090009A697B681B680A435A617B681B682C4AC3
:1050A000934203D1FEF778FAF86002E0FEF760FA67
:1050B000F860FA6813469B0013449A001A447B6810
:1050C0005B689B00B2FBF3F3224AA2FB03235B095C
:1050D0001901FA6813469B0013449A001A447B682E
:1050E0005B689B00B2FBF3F21A4BA3FB02035B0964
:1050F000642000FB03F3D31A1B013233154AA2FBD1
:1051000003235B0903F0F0031944FA6813469B007C
:1051100013449A001A447B685B689B00B2FBF3F26D
:105120000C4BA3FB02035B09642000FB03F3D31ABF
:105130001B013233074AA2FB03235B0903F00F0272
:105140007B681B680A449A6000BF1037BD4680BD6B
:10515000003801401F85EB5180B485B000AF034695
:10516000FB800023FB60B7F90630842B05D0B7F92C
:105170000620FB6813440333FB60FB6818461437B2
:10518000BD4680BC704780B483B000AFEFF30583A9
:105190007B607B68002B14BF01230023DBB2184621
:1051A0000C37BD4680BC704780B500AF01F056F9A2
:1051B0000023184680BDF0B589B004AF786039602F
:1051C0007B685B69002B20D07B689B69002B1CD01F
:1051D0007B685C687B681D687B681E697B68B3F9C7
:1051E00008301846FFF7B8FF01467B685B697A68AC
:1051F00092690292019300913B683246294620460B
:1052000000F05FFF0346FB601CE07B685C687B6826
:105210001D687B681B699EB27B68B3F9083018462D
:10522000FFF79AFF024607F10C03019300923B68D7
:1052300032462946204600F0A4FF0346012B01D048
:10524000002300E0FB6818461437BD46F0BD80B56A
:1052500084B000AF78607B68FB60FB68002B01D0F6
:10526000FB6800E00123184601F0C2F8002318464D
:105270001037BD4680BD80B582B000AF78607B68D6
:105280005B68002B07D07B685B681946012000F043
:10529000B2FA034603E0012000F095FA03461846EF
:1052A0000837BD4680BD000080B584B000AF78608F
:1052B00039600023BB607B68002B01D180233AE07A
:1052C0000023FB603B68B3F1FF3F03D14FF0FF3396
:1052D000FB6009E03B68002B06D03B68FB60FB6885
:1052E000002B01D10123FB60FFF74DFF0346002B8C
:1052F00017D007F108031A460021786800F038FD3E
:105300000346012B01D0FF2315E0BB68002B11D011
:105310000B4B4FF080521A60BFF34F8FBFF36F8F6C
:1053200008E0F968786800F013FC0346012B01D00F
:10533000FF2300E0002318461037BD4680BD00BFA4
:1053400004ED00E080B584B000AF78600023FB601E
:105350000023BB60FFF717FF0346002B16D007F1B1
:1053600008031946786800F063FB0346012B01D05F
:10537000FF2317E0BB68002B13D00C4B4FF080527B
:105380001A60BFF34F8FBFF36F8F0AE00023002234
:105390000021786800F04AFA0346012B01D0FF2370
:1053A000FB60FB6818461037BD4680BD04ED00E089
:1053B00080B483B000AF78607B6803F108027B683B
:1053C0005A607B684FF0FF329A607B6803F10802F5
:1053D0007B68DA607B6803F108027B681A617B688E
:1053E00000221A6000BF0C37BD4680BC704780B4F5
:1053F00083B000AF78607B6800221A6100BF0C3771
:10540000BD4680BC704780B485B000AF786039601D
:105410007B685B68FB603B68FA685A60FB689A6867
:105420003B689A60FB689B683A685A60FB683A6818
:105430009A603B687A681A617B681B685A1C7B68B3
:105440001A6000BF1437BD4680BC704780B485B079
:1054500000AF786039603B681B68BB60BB68B3F124
:10546000FF3F03D17B681B69FB600CE07B6808335E
:10547000FB6002E0FB685B68FB60FB685B681B68C5
:10548000BA689A42F6D2FB685A683B685A603B6831
:105490005B683A689A603B68FA689A60FB683A68A9
:1054A0005A603B687A681A617B681B685A1C7B6883
:1054B0001A6000BF1437BD4680BC704780B485B009
:1054C00000AF78607B681B69FB607B685B687A680B
:1054D00092689A607B689B687A6852685A60FB6839
:1054E0005B687A689A4203D17B689A68FB685A6065
:1054F0007B6800221A61FB681B685A1EFB681A60F1
:10550000FB681B6818461437BD4680BC7047000016
:1055100080B584B000AF786039607B68FB60FB6861
:10552000002B0BD14FF0500383F31188BFF36F8F23
:10553000BFF34F8FBB6000BF00BFFDE701F0AEFEC1
:10554000FB681A68FB68DB6BF968096C01FB03F305
:105550001A44FB689A60FB6800229A63FB681A6829
:10556000FB685A60FB681A68FB68DB6B013BF968F3
:10557000096C01FB03F31A44FB68DA60FB68FF2245
:1055800083F84420FB68FF2283F845203B68002B0A
:1055900014D1FB681B69002B1AD0FB681033184626
:1055A00001F0A6F90346002B12D00D4B4FF08052AC
:1055B0001A60BFF34F8FBFF36F8F09E0FB681033A2
:1055C0001846FFF7F5FEFB6824331846FFF7F0FE98
:1055D00001F094FE012318461037BD4680BD00BF80
:1055E00004ED00E080B58EB002AFF860B9607A607B
:1055F0003B60FB68002B0BD14FF0500383F3118805
:10560000BFF36F8FBFF34F8FBB6200BF00BFFDE7DB
:105610003B68002B0BD14FF0500383F31188BFF38D
:105620006F8FBFF34F8F7B6200BF00BFFDE77B68CA
:10563000002B02D0BB68002B01D0012300E0002327
:10564000002B0BD14FF0500383F31188BFF36F8F02
:10565000BFF34F8F3B6200BF00BFFDE77B68002BAD
:1056600002D1BB68002B01D1012300E00023002BF5
:105670000BD14FF0500383F31188BFF36F8FBFF34B
:105680004F8FFB6100BF00BFFDE748237B617B6953
:10569000482B0BD04FF0500383F31188BFF36F8F6B
:1056A000BFF34F8FBB6100BF00BFFDE77B693B6865
:1056B000FB62FB6A002B0DD0FB6A012283F84620B7
:1056C00097F83820FB6A009313467A68B968F8683F
:1056D00000F040F8FB6A18463037BD4680BD80B503
:1056E0008AB002AFF860B9601346FB71FB68002B0B
:1056F0000BD14FF0500383F31188BFF36F8FBFF3CB
:105700004F8F3B6100BF00BFFDE7FB68BA6802FB3B
:1057100003F3FB61FB694833184601F0C1FEB86131
:10572000BB69002B11D0BB697B617B6948337B610E
:10573000BB69002283F84620FA79BB6900931346BF
:105740007A69B968F86800F005F8BB69184620372F
:10575000BD4680BD80B584B000AFF860B9607A60A6
:10576000FB70BB68002B03D1BB69BA691A6002E009
:10577000BB697A681A60BB69FA68DA63BB69BA68A0
:105780001A640121B869FFF7C3FE00BF1037BD4698
:1057900080BD80B582B000AF78607B68002B0ED0F2
:1057A0007B6800229A607B6800221A607B68002276
:1057B000DA60002300220021786800F037F800BF8B
:1057C0000837BD4680BD80B586B000AF0346FB718B
:1057D00001237B6100233B61FB791A4639697869B3
:1057E000FFF77DFFF860F868FFF7D3FFFB68184606
:1057F0001837BD4680BD80B588B002AF034639601A
:10580000FB7101237B6100233B61FB7900933B68C3
:10581000002239697869FFF7E5FEF860F868FFF75C
:10582000B8FFFB6818461837BD4680BD80B58EB0FE
:1058300000AFF860B9607A603B6000237B63FB686F
:105840003B633B6B002B0BD14FF0500383F311886C
:10585000BFF36F8FBFF34F8FBB6200BF00BFFDE789
:10586000BB68002B03D13B6B1B6C002B01D10123C8
:1058700000E00023002B0BD14FF0500383F311887D
:10588000BFF36F8FBFF34F8F7B6200BF00BFFDE799
:105890003B68022B03D13B6BDB6B012B01D1012356
:1058A00000E00023002B0BD14FF0500383F311884D
:1058B000BFF36F8FBFF34F8F3B6200BF00BFFDE7A9
:1058C00001F0D6F90346002B02D17B68002B01D1F1
:1058D000012300E00023002B0BD14FF0500383F392
:1058E0001188BFF36F8FBFF34F8FFB6100BF00BF05
:1058F000FDE701F0D3FC3B6B9A6B3B6BDB6B9A4291
:1059000002D33B68022B29D13A68B968386B00F0A2
:10591000C8FAF8623B6B5B6A002B10D03B6B2433F8
:10592000184600F0E5FF0346002B13D03F4B4FF025
:1059300080521A60BFF34F8FBFF36F8F0AE0FB6A8C
:10594000002B07D0394B4FF080521A60BFF34F8FB6
:10595000BFF36F8F01F0D2FC012363E07B68002B63
:1059600003D101F0CBFC00235CE07B6B002B06D164
:1059700007F11403184601F01FF801237B6301F0BF
:10598000BDFC00F0CDFD01F089FC3B6B93F8443089
:105990005BB2B3F1FF3F03D13B6B002283F844209D
:1059A0003B6B93F845305BB2B3F1FF3F03D13B6BE8
:1059B000002283F8452001F0A1FC3A1D07F11403F1
:1059C0001146184601F00EF80346002B24D1386B1F
:1059D00000F05FFB0346002B18D03B6B10337A6856
:1059E0001146184600F05EFF386B00F0EAFA00F04E
:1059F000A5FD0346002B7FF47CAF0C4B4FF080528B
:105A00001A60BFF34F8FBFF36F8F72E7386B00F0F0
:105A1000D8FA00F093FD6CE7386B00F0D2FA00F092
:105A20008DFD002318463837BD4680BD04ED00E0EB
:105A300080B58EB000AF786039607B683B633B6BAC
:105A4000002B0BD14FF0500383F31188BFF36F8FFE
:105A5000BFF34F8F3B6200BF00BFFDE73B6B1B6C8A
:105A6000002B0BD04FF0500383F31188BFF36F8FDF
:105A7000BFF34F8FFB6100BF00BFFDE73B6B1B68AF
:105A8000002B03D13B6B9B68002B01D1012300E06D
:105A90000023002B0BD14FF0500383F31188BFF389
:105AA0006F8FBFF34F8FBB6100BF00BFFDE701F0F9
:105AB000B7FCEFF311824FF0500383F31188BFF36B
:105AC0006F8FBFF34F8F7A613B617B69FB623B6BEA
:105AD0009B6BBB623B6BDB6BBA6A9A422BD23B6B14
