:020000000F28C7
:10000800DE00030E8312AD000408AE000A08AF003C
:100018005F08B00017281028831334308400473055
:10002800592283018C290B1D1A281B281D288101A0
:100038000B118B1C202821285A286400831681154F
:1000480007308104831281010B118B160B108B1161
:10005800C401C5010C100B13B12083122008210420
:1000680003193728382846281B30222101308312EB
:10007800C4000030C5004608AB00AC012B08C00026
:100088002C08C10081010B118B12B601B701901029
:10009800303090040B308F00E0308E000C101014BC
:1000A80083160C140B108B100B178B1583120C1C5A
:1000B8005E285F2893280B308F00E0308E000C10EC
:1000C80044034504031D69286A2891280130B607AE
:1000D8000318B70A0030B707C83036063704031DBF
:1000E800762877287928EE302221EC3083123606DC
:1000F8003704031D802881288328EE302221F03020
:10010800831236063704031D8A288B289328EE307D
:1001180022218312C401C501932883160C100B1CDD
:1001280096289728A62883120508B1000B10851C6D
:100138009E289F28A62844034504031DA428A52813
:10014800A628F421831230082F088A002E0884007C
:100158002D0E8300DE0E5E0E09008312A701A80192
:100168000130A4000030A500A901AA01A6010519C3
:10017800BE28BF281D29A5308100F7280B1DC528DA
:10018800C628F728A53081000B112808803ADF001F
:1001980080305F02031DD228083027020318D528B3
:1001A800D628E6288312050CA200220C0139A300E8
:1001B800270AE0280310A30DFF3E031DDE282308AD
:1001C800A604F1288312051DEA28EB28EF28013040
:1001D800A9000030AA00A401A5010130A70703184F
:1001E800A80A0030A807240325040319FC28FD28C1
:1001F800C2283630A200A20BFF2802298312051953
:1002080006290829013009290030A20029032A04F7
:1002180003190F291129013012290030220500384D
:100228000319172918291B292608C6001D29A90101
:10023800AA012A08A1002908A00008008312A30027
:10024800A401A5010130A1000030A200A530810061
:1002580078290B1D302931292D29A53083128100D9
:100268000B114A290512722923080139A000A00E92
:1002780005082006EF39200685000310A30C722913
:10028800051672290516A101A20172292508003A4E
:1002980003194F2972292408003A03193629013A0B
:1002A80003193829033A03193829013A0319382957
:1002B800073A03193829013A03193829033A031967
:1002C8003829013A031938290F3A03193829013A0C
:1002D80003194429033A0319462972290130A4074E
:1002E8000318A50A0030A5072108220403197D294F
:1002F8007E298B292508803ADF0080305F02031DA4
:1003080087290B302402031C8A298B292D290800F0
:1003180083160510851405150512073083129900F8
:100328000510051683168112831281018316811523
:10033800073081040B1601138B1096148B128B1740
:100348008B118312B201B301640083124403450484
:10035800031DAF29B029DD29400A4104031DB52931
:10036800B629B8290514C52941083302031DBE2939
:10037800400832020318C129C229C4290514C52915
:1003880005103308803ADF0080305F02031DCE2954
:10039800FF3032020318D129D229DA290530831215
:1003A800B2070318B30A0030B307DD298312B2017C
:1003B800B3013708803ADF0080305F02031DE62969
:1003C800EC3036020318E929EA29EB296400831284
:1003D800031AEF29F029A929C401C501A9290F2861
:1003E8000030831241021930031940020318FD2915
:1003F800FE29032A1930C0000030C100442A003009
:10040800410240300319400203180B2A0C2A112A12
:100418004030C0000030C100442A003041027A3028
:10042800031940020318192A1A2A1F2A7A30C00011
:100438000030C100442A00304102C0300319400294
:100448000318272A282A2D2AC030C0000030C100EE
:10045800442A00304102FF30031940020318352AAC
:10046800362A3B2AFF30C0000030C100442A400A27
:100478004104031D402A412A442AC001C101442ADB
:10048800080002308A000408840A82070034EC3429
:10049800003434340034323400346134B934E03454
:1004A8000B3400340034A534003464008001840A1D
:0A04B80004060319003404065A2A52
:02400E00CC31B3
:00000001FF
