:020000040800F2
:1000000000500020490F0008710B0008790B000810
:10001000810B0008890B0008910B0008000000000C
:10002000000000000000000000000000316800082F
:10003000990B000800000000116A0008596A0008C6
:10004000910F0008910F0008910F0008910F000810
:10005000910F0008910F0008910F0008910F000800
:10006000910F0008910F0008910F0008A50B0008E0
:10007000910F0008910F0008910F0008910F0008E0
:10008000910F0008910F0008910F0008910F0008D0
:10009000910F0008910F0008910F0008910F0008C0
:1000A000910F0008910F0008910F0008910F0008B0
:1000B000910F0008910F0008B90B0008910F00087C
:1000C000910F0008910F0008910F0008910F000890
:1000D000910F0008CD0B0008910F0008910F000848
:1000E000910F0008910F0008910F00080000000018
:1000F0000000000000000000000000000000000000
:0C01000000000000000000005FF808F1A3
:1001100010B5054C237833B9044B13B10448AFF341
:1001200000800123237010BD60000020000000004B
:100130001471000808B5034B1BB103490348AFF322
:10014000008008BD00000000640000201471000859
:1001500080B584B000AF3B1D00221A605A609A60DF
:10016000274B284A1A60264B4FF480729A60244B22
:1001700001221A73224B00221A75214B4FF4602280
:10018000DA611F4B00225A601D4B03221A611C4882
:1001900000F032FF0346002B01D000F02DFC0023BD
:1001A0007B600123BB600723FB603B1D194614489D
:1001B00001F0F4F80346002B01D000F01DFC0123F0
:1001C0007B600223BB603B1D19460D4801F0E6F839
:1001D0000346002B01D000F00FFC02237B600323B9
:1001E000BB603B1D1946064801F0D8F80346002BBA
:1001F00001D000F001FC00BF1037BD4680BD00BF3C
:100200007C0000200024014080B588B000AF7860F9
:1002100007F1100300221A605A609A60DA607B6866
:100220001B68284A934249D1274B9B69264A43F4CD
:1002300000739361244B9B6903F40073FB60FB68BC
:10024000214B9B69204A43F0040393611E4B9B6939
:1002500003F00403BB60BB6807233B6103237B619E
:1002600007F110031946194801F014FE184B194AFA
:100270001A60174B00225A60154B00229A60144BEB
:100280008022DA60124B4FF480721A61104B4FF4E7
:1002900080625A610E4B20229A610D4B0022DA6176
:1002A0000B4801F055FB0346002B01D000F0A4FBE6
:1002B0007B68074A1A62064A7B68536200BF203790
:1002C000BD4680BD002401400010024000080140EE
:1002D000AC0000200800024080B584B000AF786018
:1002E0007B681B680F4A934217D106210E4800F025
:1002F00021F80346FB730C4B9B79DBB2FA7B9A42E5
:1003000003D10A4B01221A7002E0084B00221A7036
:1003100007220549064803F0B4FC00BF1037BD466C
:1003200080BD00BF00380140F4000020F000002034
:10033000A004002080B485B000AF78600B46FB704D
:100340000023FB730023BB7323E0BB7B7A68134459
:100350001A78FB7B5340FB7300237B7313E097F900
:100360000F30002B08DA97F90F305B005BB283F097
:1003700007035BB2DBB202E0FB7B5B00DBB2FB732B
:100380007B7B01337B737B7B072BE8D9BB7B013302
:10039000BB73BA7BFB789A42D7D3FB7B18461437E2
:1003A000BD4680BC7047000080B582B000AF0C4BEA
:1003B0005B690B4A43F001035361094B5B6903F02E
:1003C00001037B607B68002205210B2001F095FA78
:1003D0000B2001F0AEFA00BF0837BD4680BD00BF5C
:1003E0000010024080B485B000AFF860B9607A6058
:1003F000FB68064A1A60BB68054A1A607B6880225F
:100400001A6000BF1437BD4680BC70472001002031
:10041000C0010020B0B59EB000AF00233B670023B1
:100420007B6707F17003184604F049FA03462B4A2C
:1004300013602B4804F043FA03462A4A13602A4B00
:1004400007F154041D460FCD0FC495E8070084E85A
:10045000070007F154030021184604F0D0F90346C1
:10046000224A1360224B07F138041D460FCD0FC4FA
:1004700095E8070084E8070007F1380300211846D3
:1004800004F0BDF903461B4A13601B4B07F11C0423
:100490001D460FCD0FC495E8070084E8070007F15B
:1004A0001C030021184604F0AAF90346134A1360FE
:1004B000134B3C461D460FCD0FC495E8070084E85A
:1004C00007003B460021184604F099F903460D4AFF
:1004D000136000BF7837BD46B0BD00BF08010020E3
:1004E000E47100080C0100203871000810010020A0
:1004F00064710008140100209071000818010020A8
:10050000B47100081C01002080B582B000AF786093
:10051000012004F0C0F9FBE780B58AB000AF786035
:1005200042F210733B62504A07F1080307CA83E89E
:1005300007004E4B1B684FF0FF31184604F0D8F906
:1005400001237B620CE04A4A7B6A1344197807F165
:1005500008027B6A13440A461A707B6A01337B6285
:100560007B6A072BEFDD414B1B68184604F00EFA3F
:1005700007F108030B211846FFF7DCFE0346FB7466
:100580003C4B1B684FF0FF31184604F0B1F907F1FE
:1005900008014FF0FF330C22374803F0E7FA354BE0
:1005A0001B68184604F0F2F905F0AAFBF86102E0B6
:1005B0000A2004F070F9314B1B78DBB283F00103A1
:1005C000DBB2002B07D005F09BFB0246FB69D31A78
:1005D0003A6A9A42ECD8294B1B78DBB2002B3ED00A
:1005E00006F0BCF9264A07F11403106818609188D8
:1005F000927999809A71214B00221A7006F0DEF9E7
:100600007B7D03F00103DBB21A4608211D4801F08F
:10061000DCFD7B7D5B10DBB203F00103DBB21A462D
:100620001021184801F0D1FD7B7D9B10DBB203F057
:100630000103DBB21A462021124801F0C6FDBB7D42
:100640001A46FB7D1B021A430F4B1B685A633B7E05
:100650001A467B7E1B021A430B4B1B689A6332209F
:1006600004F019F965E700BFD07100080C01002003
:10067000FC00002008010020A0040020F000002061
:10068000F4000020000801405804002080B582B02A
:1006900000AF7860264B1B684FF0FF31184604F01E
:1006A00027F9244B0022DA710821234801F076FD56
:1006B0000346002B0CBF01230023DBB219461D4B60
:1006C000DB795AB24BB213435BB2DAB2194BDA712F
:1006D0001021194801F062FD0346002B01D10221CF
:1006E00000E00021134BDB795AB24BB213435BB2EB
:1006F000DAB2104BDA7140210F4801F04FFD03468A
:10070000002B01D1042100E000210A4BDB795AB211
:100710004BB213435BB2DAB2064BDA71044B1B687F
:10072000184604F033F9012004F0B5F8B2E700BF31
:100730000C010020FC000020000C014080B584B0BA
:1007400000AF78601A4B1B684FF0FF31184604F079
:10075000CFF80023FB601FE0164AFB6832F8133025
:100760009AB2FB685B000133D1B2134AD154114AEB
:10077000FB6832F813309BB21B0A9AB2FB68013354
:100780005B00D1B20C4AD1544FF400510B4801F038
:1007900034FDFB680133FB60FB68022BDCDD044B9E
:1007A0001B68184604F0F2F8642004F074F8C9E7F6
:1007B0000C010020C0030020FC00002000100140BC
:1007C00080B588B000AF07F1100300221A605A60AC
:1007D0009A60DA60334B9B69324A43F010039361AD
:1007E000304B9B6903F01003FB60FB682D4B9B694A
:1007F0002C4A43F0200393612A4B9B6903F02003AA
:10080000BB60BB68274B9B69264A43F00403936196
:10081000244B9B6903F004037B607B68214B9B693D
:10082000204A43F0080393611E4B9B6903F00803C1
:100830003B603B6800224FF400511B4801F0C5FCAF
:1008400000223821194801F0C0FC4FF400533B61ED
:1008500001237B610023BB610223FB6107F11003CD
:100860001946114801F016FB38233B6101237B61D7
:100870000023BB610123FB6107F1100319460B48FC
:1008800001F008FB58233B6100237B610123BB611E
:1008900007F110031946064801F0FCFA00BF2037A3
:1008A000BD4680BD0010024000100140000801401C
:1008B000000C014080B500AF00F06CFB00F02EF89A
:1008C000FFF77EFFFFF770FD00F0C0FA00F0DAF9E5
:1008D00000F08CF9FFF73CFC07220B490B4803F0B2
:1008E000D0F900210A4802F091FA0421084802F0E8
:1008F0008DFA03220749084800F056FCFFF78AFDED
:1009000003F076FF00BFFDE7F4000020A004002004
:1009100058040020C00300207C00002080B594B063
:1009200000AF07F1280328220021184606F004FB37
:1009300007F1140300221A605A609A60DA601A61A3
:100940003B1D00221A605A609A60DA600123BB6284
:100950004FF48033FB6200233B630123BB6302231C
:100960007B644FF48033BB644FF4E013FB6407F106
:100970002803184601F05AFC0346002B01D000F072
:100980003BF80F237B610223BB610023FB614FF423
:1009900080633B6200237B6207F114030221184647
:1009A00001F0C6FE0346002B01D000F025F802231B
:1009B0007B604FF40043FB603B1D184602F076F865
:1009C0000346002B01D000F017F800BF5037BD469A
:1009D00080BD000080B582B000AF78607B681B6886
:1009E000044A934201D100F0EBFA00BF0837BD463C
:1009F00080BD00BF0008004080B400AF72B600BFE9
:100A000000BFFDE780B584B000AF184B9B69174A63
:100A100043F001039361154B9B6903F00103BB6035
:100A2000BB68124BDB69114A43F08053D3610F4B13
:100A3000DB6903F080537B607B6800220F216FF03D
:100A4000010000F05AFF0A4B5B68FB60FB6823F073
:100A5000E063FB60FB6843F00073FB60044AFB68E3
:100A6000536000BF1037BD4680BD00BF001002407C
:100A70000000014080B58EB000AF78600023FB62BB
:100A80000023BB62002387F83330344BDB69334AE1
:100A900043F00403D361314BDB6903F00403FB60D3
:100AA000FB6807F1100207F114031146184601F024
:100AB000AFFF3B6AFB62FB6A002B03D101F080FFB2
:100AC000786304E001F07CFF03465B007B637B6B93
:100AD000234AA2FB03239B0C013BBB62214B224A0E
:100AE0001A60204B40F2E732DA601E4ABB6A53605C
:100AF0001C4B00221A611B4B00229A60194B0022EA
:100B00009A61184802F088F8034687F8333097F85E
:100B10003330002B1BD1134802F0CEF8034687F880
:100B2000333097F83330002B11D11E2000F001FF35
:100B30007B680F2B08D8002279681E2000F0DDFEAC
:100B40000A4A7B68136002E0012387F8333097F884
:100B5000333018463837BD4680BD00BF0010024014
:100B600083DE1B43C803002000080040040000206F
:100B700080B400AF00BFFDE780B400AF00BFFDE769
:100B800080B400AF00BFFDE780B400AF00BFFDE759
:100B900080B400AF00BFFDE780B400AF00BFBD462A
:100BA00080BC704780B500AF024801F03FF800BF3D
:100BB00080BD00BFAC00002080B500AF024802F04D
:100BC000C7F900BF80BD00BFC803002080B500AFDB
:100BD000024803F07BF800BF80BD00BFA0040020E6
:100BE00080B400AF00BFBD4680BC704780B586B002
:100BF00000AF07F1080300221A605A609A60DA60B9
:100C00003B4600221A605A601D4B4FF080421A602A
:100C10001B4B47225A601A4B00229A60184B6322E2
:100C2000DA60174B00221A61154B00229A611448B2
:100C300001F0F2FF0346002B01D0FFF7DDFE4FF479
:100C40008053BB6007F1080319460D4802F032FBE0
:100C50000346002B01D0FFF7CFFE20233B6000238B
:100C60007B603B461946064802F0C0FE0346002B57
:100C700001D0FFF7C1FE00BF1837BD4680BD00BFE1
:100C80001004002080B58EB000AF07F128030022C9
:100C90001A605A609A60DA6007F1200300221A6035
:100CA0005A603B1D00221A605A609A60DA601A612D
:100CB0005A619A61324B334A1A60314B02225A60B0
:100CC0002F4B00229A602E4B40F2FF32DA602C4B01
:100CD00000221A612A4B80229A61294801F09CFF68
:100CE0000346002B01D0FFF787FE4FF48053BB6211
:100CF00007F128031946224802F0DCFA0346002BCC
:100D000001D0FFF779FE1E4802F028F80346002BB9
:100D100001D0FFF771FE00233B6200237B6207F1E5
:100D200020031946164802F061FE0346002B01D04D
:100D3000FFF762FE60237B600023BB600023FB6043
:100D400000237B613B1D002219460D4802F0F0F99B
:100D50000346002B01D0FFF74FFE3B1D042219462E
:100D6000074802F0E5F90346002B01D0FFF744FEE7
:100D7000034800F039F800BF3837BD4680BD00BFDA
:100D8000580400200004004080B485B000AF7860B3
:100D90007B681B68B3F1804F0CD1114BDB69104AA3
:100DA00043F00103D3610E4BDB6903F00103FB60E9
:100DB000FB6810E07B681B680A4A93420BD1084B22
:100DC000DB69074A43F00203D361054BDB6903F09B
:100DD0000203BB60BB6800BF1437BD4680BC7047D0
:100DE000001002400004004080B588B000AF786079
:100DF00007F1100300221A605A609A60DA607B687B
:100E00001B680F4A934217D10E4B9B690D4A43F062
:100E1000040393610B4B9B6903F00403FB60FB68C5
:100E2000C0233B6102237B610123FB6107F11003B7
:100E30001946054801F02EF800BF2037BD4680BD99
:100E400000040040001002400008014080B500AFDF
:100E5000114B124A1A60104B4FF4E1325A600E4B9C
:100E600000229A600C4B0022DA600B4B00221A61C0
:100E7000094B0C225A61084B00229A61064B002252
:100E8000DA61054802F022FE0346002B01D0FFF78D
:100E9000B3FD00BF80BD00BFA004002000380140AA
:100EA00080B588B000AF786007F1100300221A60A7
:100EB0005A609A60DA607B681B68204A934239D195
:100EC0001F4B9B691E4A43F4804393611C4B9B69F3
:100ED00003F48043FB60FB68194B9B69184A43F09D
:100EE00004039361164B9B6903F00403BB60BB686A
:100EF0004FF400733B6102237B610323FB6107F125
:100F0000100319460F4800F0C5FF4FF480633B61A2
:100F100000237B610023BB6107F1100319460948D8
:100F200000F0B8FF00220521252000F0E6FC252076
:100F300000F0FFFC00BF2037BD4680BD00380140F7
:100F40000010024000080140FFF74AFE0B480C4920
:100F50000C4A002302E0D458C4500433C4188C4215
:100F6000F9D3094A094C002301E013600432A2427C
:100F7000FBD306F047F8FFF79DFC70470000002008
:100F80006000002020720008600000208017002010
:100F9000FEE7000080B500AF084B1B68074A43F02E
:100FA00010031360032000F09DFC0F20FFF762FD8B
:100FB000FFF728FD0023184680BD00BF0020024037
:100FC00080B400AF054B1B781A46054B1B681344D1
:100FD000034A136000BFBD4680BC70470800002074
:100FE000E804002080B400AF024B1B681846BD46E1
:100FF00080BC7047E804002080B586B000AF786000
:101000000023FB7500233B610023BB600023FB60D2
:101010007B68002B01D10123BEE07B689B68002B1D
:101020007B689B6A002B09D17B680022DA627B68AF
:10103000002283F824207868FFF7E6F8786800F04B
:10104000FFFA0346FB757B689B6A03F01003002BD5
:1010500040F09980FB7D002B40F095807B689B6A77
:1010600023F4885323F0020343F002027B689A6260
:101070007B685A687B68DB691A437B681B7B5B0073
:101080001343BA681343BB607B689B68B3F5807FEA
:1010900003D07B689B68012B02D14FF4807300E082
:1010A00000233A6913433B617B681B7D012B19D1F7
:1010B0007B681B7B002B09D17B689B69013B5A0332
:1010C0003B69134343F400633B610BE07B689B6A1D
:1010D00043F020027B689A627B68DB6A43F001027E
:1010E0007B68DA627B681B685B6823F469417B6814
:1010F0001B683A690A435A607B681B689A68284BE8
:1011000013407A681268B9680B4393607B689B68E8
:10111000B3F5807F03D07B689B68012B04D17B688B
:101120001B69013B1B05FB607B681B68DB6A23F4C2
:1011300070017B681B68FA680A43DA627B681B6887
:101140009A68184B1340BA689A420BD17B68002208
:10115000DA627B689B6A23F0030343F001027B6839
:101160009A6218E07B689B6A23F0120343F0100236
:101170007B689A627B68DB6A43F001027B68DA6213
:101180000123FB7507E07B689B6A43F010027B68D4
:101190009A620123FB75FB7D18461837BD4680BD5A
:1011A000FDF7E1FFFE0E1FFF80B586B000AFF860CF
:1011B000B9607A600023FB75FB681B68644A934240
:1011C00004D0FB681B68634A934206D1604B5B689E
:1011D00003F47023002B40F0B380FB6893F82430B5
:1011E000012B01D10223AEE0FB68012283F8242009
:1011F000F86800F0CBF90346FB75FB7D002B40F04F
:101200009A80FB689B6A23F4706323F0010343F424
:101210008072FB689A62FB681B684E4A934205D154
:101220004B4B5B6803F47023002B15D1FB689B6A62
:1012300023F48012FB689A62FB681B685B6803F406
:101240008063002B26D0FB689B6A23F4405343F451
:101250008052FB689A621DE0FB689B6A43F480122F
:10126000FB689A62FB681B68394A934204D0FB68AA
:101270001B68384A93420DD1354B5B6803F4806399
:10128000002B07D0FB689B6A23F4405343F4805241
:10129000FB689A62FB689B6A03F48053002B06D0BC
:1012A000FB68DB6A23F00602FB68DA6202E0FB6897
:1012B0000022DA62FB68002283F82420FB681B6AA4
:1012C000254A9A62FB681B6A244ADA62FB681B6A39
:1012D000234A1A63FB681B686FF002021A60FB68FE
:1012E0001B689A68FB681B6842F480729A60FB680E
:1012F000186AFB681B684C331946BA687B6800F0B3
:1013000081FBFB681B689B6803F46023B3F5602FC7
:1013100008D1FB681B689A68FB681B6842F4A0024E
:101320009A600FE0FB681B689A68FB681B6842F4D0
:1013300080129A6006E0FB68002283F8242001E016
:101340000123FB75FB7D18461837BD4680BD00BFE5
:101350000024014000280140C31600083F17000880
:101360005B17000880B483B000AF786000BF0C3713
:10137000BD4680BC704780B483B000AF786000BFCA
:101380000C37BD4680BC704780B483B000AF786036
:1013900000BF0C37BD4680BC7047000080B485B0EC
:1013A00000AF786039600023FB730023BB607B686B
:1013B00093F82430012B01D10223DCE07B68012269
:1013C00083F824203B685B68062B1CD87B681B686D
:1013D000596B3B685A6813469B001344053B1F2218
:1013E00002FA03F3DB4319403B6818683B685A680C
:1013F00013469B001344053B00FA03F27B681B680D
:101400000A435A633CE03B685B680C2B1CD87B6842
:101410001B68196B3B685A6813469B001344233BB7
:101420001F2202FA03F3DB4319403B6818683B684C
:101430005A6813469B001344233B00FA03F27B686F
:101440001B680A431A631BE07B681B68D96A3B6808
:101450005A6813469B001344413B1F2202FA03F3D0
:10146000DB4319403B6818683B685A6813469B0089
:101470001344413B00FA03F27B681B680A43DA62BB
:101480003B681B68092B1CD97B681B68D9683B68C3
:101490001A6813465B0013441E3B072202FA03F34B
:1014A000DB4319403B6898683B681A6813465B0049
:1014B00013441E3B00FA03F27B681B680A43DA60A0
:1014C00019E07B681B6819693B681A6813465B0062
:1014D0001344072202FA03F3DB4319403B68986880
:1014E0003B681A6813465B00134400FA03F27B68FA
:1014F0001B680A431A613B681B68102B03D03B68CA
:101500001B68112B32D17B681B681D4A934225D181
:101510007B681B689B6803F40003002B26D17B6863
:101520001B689A687B681B6842F400029A603B68FB
:101530001B68102B1AD1134B1B68134AA2FB032301
:101540009A0C13469B0013445B00BB6002E0BB682F
:10155000013BBB60BB68002BF9D107E07B689B6A4D
:1015600043F020027B689A620123FB737B680022B0
:1015700083F82420FB7B18461437BD4680BC704797
:10158000002401400000002083DE1B4380B584B0AE
:1015900000AF78600023FB600023BB607B681B68A2
:1015A0009B6803F00103012B40D07B681B689A689D
:1015B0007B681B6842F001029A601F4B1B681F4A40
:1015C000A2FB03239B0CBB6002E0BB68013BBB603A
:1015D000BB68002BF9D1FFF705FDF8601FE0FFF7AE
:1015E00001FD0246FB68D31A022B18D97B681B68E1
:1015F0009B6803F00103012B11D07B689B6A43F0C9
:1016000010027B689A627B68DB6A43F001027B68A8
:10161000DA627B68002283F82420012307E07B68DC
:101620001B689B6803F00103012BD8D100231846E7
:101630001037BD4680BD00BF0000002083DE1B4385
:1016400080B584B000AF78600023FB607B681B68C6
:101650009B6803F00103012B2ED17B681B689A68FD
:101660007B681B6822F001029A60FFF7BBFCF86000
:101670001BE0FFF7B7FC0246FB68D31A022B14D914
:101680007B681B689B6803F00103012B0DD17B680D
:101690009B6A43F010027B689A627B68DB6A43F0C6
:1016A00001027B68DA62012307E07B681B689B68A4
:1016B00003F00103012BDCD0002318461037BD4690
:1016C00080BD80B584B000AF78607B685B6AFB60EA
:1016D000FB689B6A03F05003002B27D1FB689B6AD1
:1016E00043F40072FB689A62FB681B689B6803F412
:1016F0006023B3F5602F15D1FB681B7B002B11D144
:10170000FB689B6A23F48072FB689A62FB689B6AA1
:1017100003F48053002B05D1FB689B6A43F0010260
:10172000FB689A62F868FFF71DFE04E0FB681B6A1D
:101730001B6B7868984700BF1037BD4680BD80B5E9
:1017400084B000AF78607B685B6AFB60F868FFF785
:1017500012FE00BF1037BD4680BD80B584B000AF1B
:1017600078607B685B6AFB60FB689B6A43F04002C1
:10177000FB689A62FB68DB6A43F00402FB68DA628A
:10178000F868FFF701FE00BF1037BD4680BD0000BE
:1017900080B485B000AF78607B6803F00703FB601E
:1017A0000C4BDB68BB60BA684FF6FF031340BB60AD
:1017B000FB681A02BB68134343F0BF6343F4003372
:1017C000BB60044ABB68D36000BF1437BD4680BC11
:1017D000704700BF00ED00E080B400AF044BDB6851
:1017E0001B0A03F007031846BD4680BC704700BFC4
:1017F00000ED00E080B483B000AF0346FB7197F9C1
:101800000730002B0BDBFB7903F01F02064997F929
:1018100007305B09012000FA02F241F8232000BFE3
:101820000C37BD4680BC704700E100E080B483B057
:1018300000AF03463960FB7197F90730002B0ADBD4
:101840003B68DAB20C4997F907301201D2B20B4467
:1018500083F800230AE03B68DAB20849FB7903F019
:101860000F03043B1201D2B20B441A7600BF0C37AF
:10187000BD4680BC704700BF00E100E000ED00E025
:1018800080B489B000AFF860B9607A60FB6803F09B
:101890000703FB61FB69C3F10703042B28BF042383
:1018A000BB61FB690433062B02D9FB69033B00E0F3
:1018B00000237B614FF0FF32BB6902FA03F3DA4386
:1018C000BB681A407B699A404FF0FF317B6901FA8F
:1018D00003F3D9437B680B40134318462437BD46B6
:1018E00080BC704780B582B000AF78607868FFF741
:1018F0004FFF00BF0837BD4680BD80B586B000AF42
:101900000346B9607A60FB7300237B61FFF764FFD5
:1019100078617A68B9687869FFF7B2FF024697F98B
:101920000F3011461846FFF781FF00BF1837BD463C
:1019300080BD80B582B000AF0346FB7197F90730D8
:101940001846FFF757FF00BF0837BD4680BD0000AF
:1019500080B485B000AF78600023FB607B68002B0B
:1019600001D1012343E07B681B681A46224B1344D4
:10197000224AA2FB03231B099A007B681A647B6836
:101980001F4ADA637B68022283F821207B681B6888
:101990001B68FB60FB6823F47F5323F03003FB607C
:1019A0007B685A687B689B681A437B68DB681A43CC
:1019B0007B681B691A437B685B691A437B689B6978
:1019C0001A437B68DB691343FA681343FB607B6847
:1019D0001B68FA681A607B6800229A637B680122A0
:1019E00083F821207B68002283F8202000231846FA
:1019F0001437BD4680BC7047F8FFFDBFCDCCCCCCC2
:101A00000000024080B586B000AFF860B9607A602F
:101A10003B600023FB75FB6893F82030012B01D15C
:101A200002234BE0FB68012283F82020FB6893F837
:101A30002130DBB2012B3AD1FB68022283F821204E
:101A4000FB6800229A63FB681B681A68FB681B68C6
:101A500022F001021A603B687A68B968F86800F001
:101A6000EBF9FB68DB6A002B08D0FB681B681A687F
:101A7000FB681B6842F00E021A600FE0FB681B68EF
:101A80001A68FB681B6822F004021A60FB681B6876
:101A90001A68FB681B6842F00A021A60FB681B6840
:101AA0001A68FB681B6842F001021A6005E0FB68D7
:101AB000002283F820200223FB75FB7D184618378F
:101AC000BD4680BD80B485B000AF78600023FB7355
:101AD0007B6893F82130DBB2022B08D07B680422AC
:101AE0009A637B68002283F82020012320E07B6832
:101AF0001B681A687B681B6822F00E021A607B68FC
:101B00001B681A687B681B6822F001021A607B68F8
:101B10001A6C7B68DB6B012101FA02F25A607B6868
:101B2000012283F821207B68002283F82020FB7BA0
:101B300018461437BD4680BC7047000080B584B09D
:101B400000AF78600023FB737B6893F82130DBB231
:101B5000022B05D07B6804229A630123FB7351E0BA
:101B60007B681B681A687B681B6822F00E021A608B
:101B70007B681B681A687B681B6822F001021A6088
:101B80007B681B68224A934229D07B681B68214AE4
:101B9000934222D07B681B681F4A93421AD07B680D
:101BA0001B681E4A934212D07B681B681C4A9342F2
:101BB0000AD07B681B681B4A934202D14FF4801302
:101BC0000EE04FF080730BE04FF4803308E04FF4E9
:101BD000805305E04FF4807302E0102300E00123FE
:101BE000114A53607B68012283F821207B68002220
:101BF00083F820207B685B6B002B03D07B685B6BDA
:101C000078689847FB7B18461037BD4680BD00BFFB
:101C1000080002401C000240300002404400024024
:101C2000580002406C0002400000024080B584B0C1
:101C300000AF78607B68DB6B1B68FB607B681B68B0
:101C40001B68BB607B681B6C04229A40FB681340D6
:101C5000002B4FD0BB6803F00403002B4AD07B68F5
:101C60001B681B6803F02003002B07D17B681B68EF
:101C70001A687B681B6822F004021A607B681B6884
:101C8000664A934229D07B681B68654A934222D0FA
:101C90007B681B68634A93421AD07B681B68624A60
:101CA000934212D07B681B68604A93420AD07B68DB
:101CB0001B685F4A934202D14FF480030EE04FF05D
:101CC00080630BE04FF4802308E04FF4804305E08D
:101CD0004FF4806302E0402300E00423554A536040
:101CE0007B68DB6A002B00F094807B68DB6A786895
:101CF00098478EE07B681B6C02229A40FB68134079
:101D0000002B56D0BB6803F00203002B51D07B6838
:101D10001B681B6803F02003002B0BD17B681B683A
:101D20001A687B681B6822F00A021A607B6801222D
:101D300083F821207B681B68384A934229D07B684E
:101D40001B68374A934222D07B681B68354A93420E
:101D50001AD07B681B68344A934212D07B681B6898
:101D6000324A93420AD07B681B68314A934202D1BF
:101D70004FF400130EE04FF000730BE04FF400330C
:101D800008E04FF4005305E04FF4007302E0202315
:101D900000E00223274A53607B68002283F820205A
:101DA0007B689B6A002B34D07B689B6A7868984775
:101DB0002FE07B681B6C08229A40FB681340002BC5
:101DC00028D0BB6803F00803002B23D07B681B6876
:101DD0001A687B681B6822F00E021A607B681A6C16
:101DE0007B68DB6B012101FA02F25A607B680122F9
:101DF0009A637B68012283F821207B68002283F8A4
:101E000020207B681B6B002B04D07B681B6B7868E1
:101E1000984700BF00BF1037BD4680BD0800024094
:101E20001C000240300002404400024058000240C2
:101E30006C0002400000024080B485B000AFF86042
:101E4000B9607A603B60FB681A6CFB68DB6B012150
:101E500001FA02F25A60FB681B683A685A60FB6834
:101E60005B68102B08D1FB681B687A689A60FB6876
:101E70001B68BA68DA6007E0FB681B68BA689A609A
:101E8000FB681B687A68DA6000BF1437BD4680BC07
:101E90007047000080B48BB000AF786039600023D9
:101EA0007B6200233B6269E101227B6A02FA03F351
:101EB000FB613B681B68FA691340BB61BA69FB6947
:101EC0009A4240F058813B685B689A4A93425ED0E0
:101ED000984A934275D8984A934258D0964A93426A
:101EE0006FD8964A934252D0944A934269D8944A02
:101EF00093424CD0924A934263D8924A934246D03E
:101F0000904A93425DD8122B2AD8122B59D801A29D
:101F100052F823F08F1F0008691F00087B1F00087C
:101F2000BD1F0008C31F0008C31F0008C31F00080F
:101F3000C31F0008C31F0008C31F0008C31F0008F9
:101F4000C31F0008C31F0008C31F0008C31F0008E9
:101F5000C31F0008C31F0008711F0008851F000869
:101F6000794A934213D02CE03B68DB683B6229E05E
:101F70003B68DB6804333B6224E03B68DB68083382
:101F80003B621FE03B68DB680C333B621AE03B6856
:101F90009B68002B02D104233B6213E03B689B68E3
:101FA000012B05D108233B627B68FA691A6109E0BD
:101FB00008233B627B68FA695A6103E000233B62B5
:101FC00000E000BFBB69FF2B01D87B6801E07B68A4
:101FD00004337B61BB69FF2B02D87B6A9B0002E064
:101FE0007B6A083B9B003B617B691A680F213B6958
:101FF00001FA03F3DB431A40396A3B6901FA03F340
:102000001A437B691A603B685B6803F08053002BBE
:1020100000F0B1804D4B9B694C4A43F00103936142
:102020004A4B9B6903F00103BB60BB68484A7B6A6B
:102030009B08023352F82330FB607B6A03F00303F2
:102040009B000F2202FA03F3DB43FA681340FB60A4
:102050007B68404A934213D07B683F4A93420DD03D
:102060007B683E4A934207D07B683D4A934201D148
:10207000032306E0042304E0022302E0012300E03E
:1020800000237A6A02F0030292009340FA68134335
:10209000FB602F497B6A9B080233FA6841F82320D2
:1020A0003B685B6803F48013002B06D02D4B9A68C5
:1020B0002C49BB6913438B6006E02A4B9A68BB69C5
:1020C000DB43284913408B603B685B6803F40013D3
:1020D000002B06D0234BDA682249BB691343CB603F
:1020E00006E0204BDA68BB69DB431E491340CB6036
:1020F0003B685B6803F40033002B06D0194B5A6829
:102100001849BB6913434B6006E0164B5A68BB691C
:10211000DB43144913404B603B685B6803F4803336
:10212000002B21D00F4B1A680E49BB6913430B607B
:1021300021E000BF0000321000003110000022102A
:1021400000002110000012100000111000100240C9
:102150000000014000080140000C01400010014057
:1021600000140140000401400B4B1A68BB69DB43BB
:10217000094913400B607B6A01337B623B681A6834
:102180007B6A22FA03F3002B7FF48EAE00BF00BF00
:102190002C37BD4680BC70470004014080B485B038
:1021A00000AF78600B467B807B689A687B88134021
:1021B000002B02D00123FB7301E00023FB73FB7BA8
:1021C00018461437BD4680BC704780B483B000AF5A
:1021D00078600B467B8013467B707B78002B03D0A6
:1021E0007A887B681A6103E07B881A047B681A612D
:1021F00000BF0C37BD4680BC704780B485B000AFCF
:1022000078600B467B807B68DB68FB607A88FB68C4
:1022100013401A04FB68D9437B880B401A437B6840
:102220001A6100BF1437BD4680BC704780B586B0C8
:1022300000AF78607B68002B01D1012372E27B68DC
:102240001B6803F00103002B00F08780924B5B6852
:1022500003F00C03042B0CD08F4B5B6803F00C03D2
:10226000082B12D18C4B5B6803F48033B3F5803FAD
:102270000BD1894B1B6803F40033002B6CD07B68B7
:102280005B68002B68D101234CE27B685B68B3F587
:10229000803F06D1804B1B687F4A43F48033136034
:1022A0002EE07B685B68002B0CD17B4B1B687A4A65
:1022B00023F480331360784B1B68774A23F4802320
:1022C00013601DE07B685B68B3F5A02F0CD1724BE7
:1022D0001B68714A43F4802313606F4B1B686E4A7E
:1022E00043F4803313600BE06B4B1B686A4A23F4A2
:1022F00080331360684B1B68674A23F480231360A4
:102300007B685B68002B13D0FEF76CFE386108E039
:10231000FEF768FE02463B69D31A642B01D90323FA
:1023200000E25D4B1B6803F40033002BF0D014E097
:10233000FEF758FE386108E0FEF754FE02463B699E
:10234000D31A642B01D90323ECE1534B1B6803F42C
:102350000033002BF0D100E000BF7B681B6803F066
:102360000203002B63D04C4B5B6803F00C03002B83
:102370000BD0494B5B6803F00C03082B1CD1464B78
:102380005B6803F48033002B16D1434B1B6803F0CA
:102390000203002B05D07B681B69012B01D00123B0
:1023A000C0E13D4B1B6823F0F8027B685B69DB00F2
:1023B000394913430B603AE07B681B69002B20D03E
:1023C000364B01221A60FEF70DFE386108E0FEF779
:1023D00009FE02463B69D31A022B01D90323A1E16E
:1023E0002D4B1B6803F00203002BF0D02A4B1B6817
:1023F00023F0F8027B685B69DB00274913430B601D
:1024000015E0264B00221A60FEF7ECFD386108E06B
:10241000FEF7E8FD02463B69D31A022B01D90323DC
:1024200080E11D4B1B6803F00203002BF0D17B6899
:102430001B6803F00803002B3AD07B689B69002BD4
:1024400019D0174B01221A60FEF7CCFD386108E065
:10245000FEF7C8FD02463B69D31A022B01D90323BC
:1024600060E10D4B5B6A03F00203002BF0D001200A
:1024700000F0FEFA1CE00A4B00221A60FEF7B2FDE3
:1024800038610FE0FEF7AEFD02463B69D31A022B1E
:1024900008D9032346E100BF001002400000424279
:1024A00080044242924B5B6A03F00203002BE9D1A5
:1024B0007B681B6803F00403002B00F0A680002358
:1024C000FB758B4BDB6903F08053002B0DD1884BE0
:1024D000DB69874A43F08053D361854BDB6903F0A6
:1024E0008053BB60BB680123FB75824B1B6803F400
:1024F0008073002B18D17F4B1B687E4A43F4807396
:102500001360FEF76FFD386108E0FEF76BFD0246D1
:102510003B69D31A642B01D9032303E1754B1B6874
:1025200003F48073002BF0D07B68DB68012B06D1AD
:102530006F4B1B6A6E4A43F0010313622DE07B6808
:10254000DB68002B0CD16A4B1B6A694A23F001033C
:102550001362674B1B6A664A23F0040313621CE094
:102560007B68DB68052B0CD1614B1B6A604A43F02A
:10257000040313625E4B1B6A5D4A43F0010313625E
:102580000BE05B4B1B6A5A4A23F001031362584B62
:102590001B6A574A23F0040313627B68DB68002B35
:1025A00015D0FEF71FFD38610AE0FEF71BFD02465D
:1025B0003B69D31A41F28832934201D90323B1E037
:1025C0004B4B1B6A03F00203002BEED014E0FEF726
:1025D00009FD38610AE0FEF705FD02463B69D31AA2
:1025E00041F28832934201D903239BE0404B1B6A9E
:1025F00003F00203002BEED1FB7D012B05D13C4BF8
:10260000DB693B4A23F08053D3617B68DB69002B95
:1026100000F08780364B5B6803F00C03082B61D019
:102620007B68DB69022B46D1334B00221A60FEF730
:10263000D9FC386108E0FEF7D5FC02463B69D31AA5
:10264000022B01D903236DE0294B1B6803F00073B3
:10265000002BF0D17B681B6AB3F5803F08D1244B77
:102660005B6823F400327B689B68214913434B600D
:102670001F4B5B6823F474127B68196A7B685B6A82
:102680000B431B4913434B601B4B01221A60FEF79F
:10269000A9FC386108E0FEF7A5FC02463B69D31AA5
:1026A000022B01D903233DE0114B1B6803F000739B
:1026B000002BF0D035E0104B00221A60FEF792FCA0
:1026C000386108E0FEF78EFC02463B69D31A022B04
:1026D00001D9032326E0064B1B6803F00073002B8F
:1026E000F0D11EE07B68DB69012B07D1012319E0E3
:1026F0000010024000700040600042420B4B5B68DB
:10270000FB60FB6803F480327B681B6A9A4206D147
:10271000FB6803F470127B685B6A9A4201D0012364
:1027200000E0002318461837BD4680BD0010024067
:1027300080B584B000AF786039607B68002B01D130
:102740000123D0E06A4B1B6803F007033A689A4202
:1027500010D9674B1B6823F0070265493B68134398
:102760000B60634B1B6803F007033A689A4201D081
:102770000123B8E07B681B6803F00203002B20D024
:102780007B681B6803F00403002B05D0594B5B6882
:10279000584A43F4E06353607B681B6803F0080306
:1027A000002B05D0534B5B68524A43F4605353608F
:1027B000504B5B6823F0F0027B689B684D491343E4
:1027C0004B607B681B6803F00103002B40D07B68E3
:1027D0005B68012B07D1474B1B6803F40033002BC8
:1027E00015D101237FE07B685B68022B07D1414B49
:1027F0001B6803F00073002B09D1012373E03D4BEC
:102800001B6803F00203002B01D101236BE0394B5D
:102810005B6823F003027B685B68364913434B60B7
:10282000FEF7E0FBF8600AE0FEF7DCFB0246FB681F
:10283000D31A41F28832934201D9032353E02D4B3E
:102840005B6803F00C027B685B689B009A42EBD1EB
:10285000274B1B6803F007033A689A4210D2244BB7
:102860001B6823F0070222493B6813430B60204B8F
:102870001B6803F007033A689A4201D0012332E053
:102880007B681B6803F00403002B08D0194B5B68BE
:1028900023F4E0627B68DB68164913434B607B6876
:1028A0001B6803F00803002B09D0124B5B6823F46C
:1028B00060527B681B69DB000E4913434B6000F0DC
:1028C00021F802460B4B5B681B0903F00F030A4912
:1028D000CB5C22FA03F3094A1360094B1B681846C4
:1028E000FEF7C8F8002318461037BD4680BD00BF6C
:1028F0000020024000100240EC710008000000209F
:102900000400002080B487B000AF0023FB600023E8
:10291000BB6000237B6100237B6000233B611E4B77
:102920005B68FB60FB6803F00C03042B02D0082BF0
:1029300003D027E0194B3B6127E0FB689B0C03F0B9
:102940000F03174AD35C7B60FB6803F48033002BD2
:1029500010D0114B5B685B0C03F00103114AD35C90
:10296000BB607B680D4A03FB02F2BB68B2FBF3F36A
:102970007B6104E07B680C4A02FB03F37B617B69AB
:102980003B6102E0054B3B6100BF3B6918461C37C9
:10299000BD4680BC704700BF0010024000127A00A4
:1029A000047200081472000800093D0080B400AFF2
:1029B000024B1B681846BD4680BC704700000020D3
:1029C00080B500AFFFF7F2FF0246054B5B681B0ABC
:1029D00003F007030349CB5C22FA03F3184680BDDA
:1029E00000100240FC71000880B500AFFFF7DEFF69
:1029F0000246054B5B68DB0A03F007030349CB5C27
:102A000022FA03F3184680BD00100240FC71000852
:102A100080B483B000AF786039607B680F221A60A1
:102A2000114B5B6803F003027B685A600E4B5B68D6
:102A300003F0F0027B689A600B4B5B6803F4E06282
:102A40007B68DA60084B5B68DB0803F4E0627B6854
:102A50001A61064B1B6803F007023B681A6000BF4F
:102A60000C37BD4680BC7047001002400020024079
:102A700080B485B000AF78600A4B1B680A4AA2FB9D
:102A800003235B0A7A6802FB03F3FB6000BFFB6869
:102A90005A1EFA60002BF9D100BF00BF1437BD46A3
:102AA00080BC704700000020D34D621080B586B016
:102AB00000AF786000233B610023FB607B681B68EC
:102AC00003F00103002B7DD00023FB754F4BDB6926
:102AD00003F08053002B0DD14C4BDB694B4A43F084
:102AE0008053D361494BDB6903F08053BB60BB6803
:102AF0000123FB75464B1B6803F48073002B18D130
:102B0000434B1B68424A43F480731360FEF76AFA32
:102B1000386108E0FEF766FA02463B69D31A642B77
:102B200001D903236DE03A4B1B6803F48073002B3B
:102B3000F0D0364B1B6A03F44073FB60FB68002B3C
:102B40002ED07B685B6803F44073FA689A4227D002
:102B50002E4B1B6A23F44073FB602E4B01221A603C
:102B60002C4B00221A60294AFB681362FB6803F0B1
:102B70000103002B14D0FEF735FA38610AE0FEF7A6
:102B800031FA02463B69D31A41F28832934201D9A5
:102B9000032336E01D4B1B6A03F00203002BEED02B
:102BA0001A4B1B6A23F440727B685B681749134316
:102BB0000B62FB7D012B05D1144BDB69134A23F01B
:102BC0008053D3617B681B6803F00203002B08D09D
:102BD0000E4B5B6823F440427B689B680B491343B0
:102BE0004B607B681B6803F01003002B08D0074B79
:102BF0005B6823F480027B68DB68044913434B6005
:102C0000002318461837BD4680BD00BF00100240A3
:102C1000007000404004424280B582B000AF78604E
:102C20007B68002B01D1012341E07B6893F83D30A4
:102C3000DBB2002B06D17B68002283F83C20786849
:102C4000FEF7A2F87B68022283F83D207B681A68B1
:102C50007B6804331946104600F018FC7B6801229B
:102C600083F846207B68012283F83E207B6801229E
:102C700083F83F207B68012283F840207B68012293
:102C800083F841207B68012283F842207B6801227F
:102C900083F843207B68012283F844207B6801226B
:102CA00083F845207B68012283F83D2000231846E5
:102CB0000837BD4680BD000080B485B000AF7860A5
:102CC0007B6893F83D30DBB2012B01D001233AE061
:102CD0007B68022283F83D207B681B68DA687B688A
:102CE0001B6842F00102DA607B681B68184A934255
:102CF0000ED07B681B68B3F1804F09D07B681B68DE
:102D0000144A934204D07B681B68134A934211D142
:102D10007B681B689B6803F00703FB60FB68062B5E
:102D200010D07B681B681A687B681B6842F0010240
:102D30001A6007E07B681B681A687B681B6842F0B2
:102D400001021A60002318461437BD4680BC704744
:102D5000002C0140000400400008004080B582B013
:102D600000AF78607B68002B01D1012341E07B68D4
:102D700093F83D30DBB2002B06D17B68002283F84C
:102D80003C20786800F039F87B68022283F83D2007
:102D90007B681A687B6804331946104600F076FB9E
:102DA0007B68012283F846207B68012283F83E205D
:102DB0007B68012283F83F207B68012283F8402052
:102DC0007B68012283F841207B68012283F842203E
:102DD0007B68012283F843207B68012283F844202A
:102DE0007B68012283F845207B68012283F83D201F
:102DF000002318460837BD4680BD80B483B000AFBD
:102E0000786000BF0C37BD4680BC704780B584B089
:102E100000AF786039603B68002B09D17B6893F87C
:102E20003E30DBB2012B14BF01230023DBB222E0D2
:102E30003B68042B09D17B6893F83F30DBB2012B50
:102E400014BF01230023DBB215E03B68082B09D136
:102E50007B6893F84030DBB2012B14BF01230023C1
:102E6000DBB208E07B6893F84130DBB2012B14BF82
:102E700001230023DBB2002B01D001235EE03B687D
:102E8000002B04D17B68022283F83E2013E03B68CC
:102E9000042B04D17B68022283F83F200BE03B68BF
:102EA000082B04D17B68022283F8402003E07B6872
:102EB000022283F841207B681B680122396818468A
:102EC00000F070FD7B681B681E4A934207D17B6847
:102ED0001B685A6C7B681B6842F400425A647B682A
:102EE0001B68184A93420ED07B681B68B3F1804F71
:102EF00009D07B681B68144A934204D07B681B6826
:102F0000124A934211D17B681B689B6803F0070348
:102F1000FB60FB68062B10D07B681B681A687B6817
:102F20001B6842F001021A6007E07B681B681A68A0
:102F30007B681B6842F001021A60002318461037B4
:102F4000BD4680BD002C0140000400400008004048
:102F500080B584B000AF78607B681B68DB68FB607D
:102F60007B681B681B69BB60BB6803F00203002B16
:102F700020D0FB6803F00203002B1BD07B681B688A
:102F80006FF002021A617B6801221A777B681B6866
:102F90009B6903F00303002B03D0786800F05AFA12
:102FA00005E0786800F04DFA786800F05CFA7B681C
:102FB00000221A77BB6803F00403002B20D0FB68C3
:102FC00003F00403002B1BD07B681B686FF0040226
:102FD0001A617B6802221A777B681B689B6903F47D
:102FE0004073002B03D0786800F034FA05E078686D
:102FF00000F027FA786800F036FA7B6800221A772A
:10300000BB6803F00803002B20D0FB6803F0080323
:10301000002B1BD07B681B686FF008021A617B686D
:1030200004221A777B681B68DB6903F00303002B1B
:1030300003D0786800F00EFA05E0786800F001FA35
:10304000786800F010FA7B6800221A77BB6803F0FA
:103050001003002B20D0FB6803F01003002B1BD0C3
:103060007B681B686FF010021A617B6808221A7770
:103070007B681B68DB6903F44073002B03D078681E
:1030800000F0E8F905E0786800F0DBF9786800F016
:10309000EAF97B6800221A77BB6803F00103002B72
:1030A0000CD0FB6803F00103002B07D07B681B6882
:1030B0006FF001021A617868FDF78CFCBB6803F0C1
:1030C0008003002B0CD0FB6803F08003002B07D09B
:1030D0007B681B686FF080021A61786800F0EDFC75
:1030E000BB6803F04003002B0CD0FB6803F04003E7
:1030F000002B07D07B681B686FF040021A6178686C
:1031000000F0BAF9BB6803F02003002B0CD0FB6879
:1031100003F02003002B07D07B681B686FF02002B0
:103120001A61786800F0C0FC00BF1037BD4680BD52
:1031300080B586B000AFF860B9607A600023FB7597
:10314000FB6893F83C30012B01D10223AEE0FB6811
:10315000012283F83C207B680C2B00F29F8001A2A7
:1031600052F823F0993100089D3200089D32000882
:103170009D320008D93100089D3200089D320008B8
:103180009D3200081B3200089D3200089D32000865
:103190009D3200085B320008FB681B68B96818465E
:1031A00000F0E2F9FB681B689A69FB681B6842F053
:1031B00008029A61FB681B689A69FB681B6822F029
:1031C00004029A61FB681B689969BB681A69FB680D
:1031D0001B680A439A6164E0FB681B68B96818467B
:1031E00000F028FAFB681B689A69FB681B6842F4C8
:1031F00000629A61FB681B689A69FB681B6822F48D
:1032000080629A61FB681B689969BB681B691A0236
:10321000FB681B680A439A6143E0FB681B68B96856
:10322000184600F071FAFB681B68DA69FB681B68D6
:1032300042F00802DA61FB681B68DA69FB681B6808
:1032400022F00402DA61FB681B68D969BB681A695D
:10325000FB681B680A43DA6123E0FB681B68B968F6
:10326000184600F0BBFAFB681B68DA69FB681B684C
:1032700042F40062DA61FB681B68DA69FB681B686C
:1032800022F48062DA61FB681B68D969BB681B693C
:103290001A02FB681B680A43DA6102E00123FB752E
:1032A00000BFFB68002283F83C20FB7D18461837DE
:1032B000BD4680BD80B584B000AF78603960002322
:1032C000FB737B6893F83C30012B01D10223B4E0FF
:1032D0007B68012283F83C207B68022283F83D2032
:1032E0007B681B689B68BB60BB6823F07703BB608F
:1032F000BB6823F47F43BB607B681B68BA689A6035
:103300003B681B68B3F5005F3ED0B3F5005F00F289
:103310008780B3F5805F00F08680B3F5805F7FD84B
:10332000702B1AD0702B7BD8602B50D0602B77D8A5
:10333000502B3CD0502B73D8402B58D0402B6FD8FB
:10334000302B64D0302B6BD8202B60D0202B67D84B
:10335000002B5CD0102B5AD062E07B6818683B6869
:1033600099683B685A683B68DB6800F0FCFA7B6848
:103370001B689B68BB60BB6843F07703BB607B68DE
:103380001B68BA689A604FE07B6818683B68996868
:103390003B685A683B68DB6800F0E5FA7B681B68AD
:1033A0009A687B681B6842F480429A603CE07B68C4
:1033B00018683B6859683B68DB681A4600F05CFA9D
:1033C0007B681B685021184600F0B3FA2CE07B683C
:1033D00018683B6859683B68DB681A4600F07AFA5F
:1033E0007B681B686021184600F0A3FA1CE07B682C
:1033F00018683B6859683B68DB681A4600F03CFA7D
:103400007B681B684021184600F093FA0CE07B684B
:103410001A683B681B681946104600F08AFA03E0F8
:103420000123FB7300E000BF7B68012283F83D208D
:103430007B68002283F83C20FB7B18461037BD4692
:1034400080BD80B483B000AF786000BF0C37BD464C
:1034500080BC704780B483B000AF786000BF0C3789
:10346000BD4680BC704780B483B000AF786000BFB9
:103470000C37BD4680BC704780B483B000AF786025
:1034800000BF0C37BD4680BC7047000080B485B0DB
:1034900000AF786039607B681B68FB607B682F4AEF
:1034A00093420BD07B68B3F1804F07D07B682C4AE6
:1034B000934203D07B682B4A934208D1FB6823F0E8
:1034C0007003FB603B685B68FA681343FB607B68D2
:1034D000224A93420BD07B68B3F1804F07D07B68C0
:1034E0001F4A934203D07B681E4A934208D1FB686F
:1034F00023F44073FB603B68DB68FA681343FB60AE
:10350000FB6823F080023B685B691343FB607B68C8
:10351000FA681A603B689A687B68DA623B681A68E6
:103520007B689A627B680D4A934203D13B681A69B3
:103530007B681A637B6801225A617B681B6903F010
:103540000103002B05D07B681B6923F001027B6817
:103550001A6100BF1437BD4680BC7047002C014083
:10356000000400400008004080B487B000AF7860DD
:1035700039607B681B6A7B617B681B6A23F00102F0
:103580007B681A627B685B683B617B689B69FB6058
:10359000FB6823F07003FB60FB6823F00303FB6010
:1035A0003B681B68FA681343FB607B6923F00203E6
:1035B0007B613B689B687A6913437B617B681C4A2B
:1035C00093420CD17B6923F008037B613B68DB6885
:1035D0007A6913437B617B6923F004037B617B6819
:1035E000134A934211D13B6923F480733B613B69D9
:1035F00023F400733B613B685B693A6913433B61A9
:103600003B689B693A6913433B617B683A695A603E
:103610007B68FA689A613B685A687B685A637B6882
:103620007A691A6200BF1C37BD4680BC704700BF74
:10363000002C014080B487B000AF786039607B68AF
:103640001B6A7B617B681B6A23F010027B681A622D
:103650007B685B683B617B689B69FB60FB6823F46C
:10366000E043FB60FB6823F44073FB603B681B682E
:103670001B02FA681343FB607B6923F020037B6124
:103680003B689B681B017A6913437B617B681D4A19
:1036900093420DD17B6923F080037B613B68DB683B
:1036A0001B017A6913437B617B6923F040037B61D3
:1036B0007B68144A934213D13B6923F480633B61D6
:1036C0003B6923F400633B613B685B699B003A699B
:1036D00013433B613B689B699B003A6913433B6121
:1036E0007B683A695A607B68FA689A613B685A68F5
:1036F0007B689A637B687A691A6200BF1C37BD4693
:1037000080BC7047002C014080B487B000AF786067
:1037100039607B681B6A7B617B681B6A23F480725B
:103720007B681A627B685B683B617B68DB69FB6076
:10373000FB6823F07003FB60FB6823F00303FB606E
:103740003B681B68FA681343FB607B6923F40073D2
:103750007B613B689B681B027A6913437B617B68D2
:103760001D4A93420DD17B6923F400637B613B6862
:10377000DB681B027A6913437B617B6923F48063F6
:103780007B617B68144A934213D13B6923F48053D5
:103790003B613B6923F400533B613B685B691B0160
:1037A0003A6913433B613B689B691B013A691343C8
:1037B0003B617B683A695A607B68FA68DA613B680A
:1037C0005A687B68DA637B687A691A6200BF1C37C3
:1037D000BD4680BC704700BF002C014080B487B05C
:1037E00000AF786039607B681B6A3B617B681B6A4D
:1037F00023F480527B681A627B685B687B617B681C
:10380000DB69FB60FB6823F4E043FB60FB6823F4A7
:103810004073FB603B681B681B02FA681343FB6044
:103820003B6923F400533B613B689B681B033A6987
:1038300013433B617B680F4A934209D17B6923F4B0
:1038400080437B613B685B699B017A6913437B61C1
:103850007B687A695A607B68FA68DA613B685A6803
:103860007B681A647B683A691A6200BF1C37BD46E0
:1038700080BC7047002C014080B487B000AFF86076
:10388000B9607A60FB681B6A7B61FB681B6A23F086
:103890000102FB681A62FB689B693B613B6923F08C
:1038A000F0033B617B681B013A6913433B617B6911
:1038B00023F00A037B617A69BB6813437B61FB6871
:1038C0003A699A61FB687A691A6200BF1C37BD4683
:1038D00080BC704780B487B000AFF860B9607A6090
:1038E000FB681B6A7B61FB681B6A23F01002FB68A4
:1038F0001A62FB689B693B613B6923F470433B613F
:103900007B681B033A6913433B617B6923F0A00387
:103910007B61BB681B017A6913437B61FB683A6971
:103920009A61FB687A691A6200BF1C37BD4680BC89
:10393000704780B485B000AF786039607B689B6861
:10394000FB60FB6823F07003FB603A68FB6813437D
:1039500043F00703FB607B68FA689A6000BF143786
:10396000BD4680BC704780B487B000AFF860B960D6
:103970007A603B60FB689B687B617B6923F47F43D3
:103980007B613B681A027B681A43BB6813437A6900
:1039900013437B61FB687A699A6000BF1C37BD46A0
:1039A00080BC704780B487B000AFF860B9607A60BF
:1039B000BB6803F01F03012202FA03F37B61FB687B
:1039C0001A6A7B69DB431A40FB681A62FB681A6A51
:1039D000BB6803F01F03796801FA03F31A43FB681D
:1039E0001A6200BF1C37BD4680BC704780B485B0EA
:1039F00000AF786039607B6893F83C30012B01D1CF
:103A0000022346E07B68012283F83C207B68022287
:103A100083F83D207B681B685B68FB607B681B68E4
:103A20009B68BB60FB6823F07003FB603B681B680E
:103A3000FA681343FB607B681B68FA685A607B680E
:103A40001B68164A93420ED07B681B68B3F1804F07
:103A500009D07B681B68124A934204D07B681B68BC
:103A6000104A93420CD1BB6823F08003BB603B68D3
:103A70005B68BA681343BB607B681B68BA689A606E
:103A80007B68012283F83D207B68002283F83C207C
:103A9000002318461437BD4680BC7047002C0140F7
:103AA000000400400008004080B483B000AF78609C
:103AB00000BF0C37BD4680BC704780B483B000AFF8
:103AC000786000BF0C37BD4680BC704780B582B0BF
:103AD00000AF78607B68002B01D1012342E07B6856
:103AE00093F84130DBB2002B06D17B68002283F8CB
:103AF00040207868FDF7D4F97B68242283F84120C0
:103B00007B681B68DA687B681B6822F40052DA6005
:103B1000786800F0B7FD7B681B681A697B681B68D2
:103B200022F490421A617B681B685A697B681B68A3
:103B300022F02A025A617B681B68DA687B681B687E
:103B400042F40052DA607B6800225A647B682022CB
:103B500083F841207B68202283F842207B68002282
:103B60005A63002318460837BD4680BD80B58AB029
:103B700002AFF860B9603B601346FB8000237B61B5
:103B8000FB6893F84130DBB2202B75D1BB68002B6A
:103B900002D0FB88002B01D101236EE0FB680022DC
:103BA0005A64FB68212283F84120FDF71BFA7861F3
:103BB000FB68FA889A84FB68FA88DA84FB689B6859
:103BC000B3F5805F08D1FB681B69002B04D100238B
:103BD000FB61BB68BB6103E0BB68FB610023BB61A9
:103BE0002EE03B6800937B6900228021F86800F09A
:103BF0001CFB0346002B05D0FB68202283F84120E4
:103C000003233AE0FB69002B0BD1BB691B881A46E2
:103C1000FB681B68C2F308025A60BB690233BB61D0
:103C200007E0FB691A78FB681B685A60FB6901337F
:103C3000FB61FB68DB8C9BB2013B9AB2FB68DA84C8
:103C4000FB68DB8C9BB2002BCBD13B6800937B697C
:103C500000224021F86800F0E8FA0346002B05D066
:103C6000FB68202283F84120032306E0FB68202222
:103C700083F84120002300E0022318462037BD4688
:103C800080BD80B584B000AFF860B9601346FB809A
:103C9000FB6893F84230DBB2202B12D1BB68002BBB
:103CA00002D0FB88002B01D101230BE0FB6800222E
:103CB0001A63FB881A46B968F86800F00FFB0346E0
:103CC00000E0022318461037BD4680BD80B5BAB06B
:103CD00000AF78607B681B681B68C7F8E4307B68BE
:103CE0001B68DB68C7F8E0307B681B685B69C7F856
:103CF000DC300023C7F8D8300023C7F8D430D7F819
:103D0000E43003F00F03C7F8D830D7F8D830002BD1
:103D10000FD1D7F8E43003F02003002B09D0D7F8F7
:103D2000E03003F02003002B03D0786800F0ECFBB8
:103D30005BE2D7F8D830002B00F0DE80D7F8DC301B
:103D400003F00103002B06D1D7F8E03003F49073A1
:103D5000002B00F0D180D7F8E43003F00103002BF2
:103D60000BD0D7F8E03003F48073002B05D07B68CC
:103D70005B6C43F001027B685A64D7F8E43003F0CF
:103D80000403002B0BD0D7F8DC3003F00103002B29
:103D900005D07B685B6C43F002027B685A64D7F8FD
:103DA000E43003F00203002B0BD0D7F8DC3003F033
:103DB0000103002B05D07B685B6C43F004027B6839
:103DC0005A64D7F8E43003F00803002B11D0D7F879
:103DD000E03003F02003002B05D1D7F8DC3003F0EE
:103DE0000103002B05D07B685B6C43F008027B6805
:103DF0005A647B685B6C002B00F0F281D7F8E430EA
:103E000003F02003002B08D0D7F8E03003F02003A4
:103E1000002B02D0786800F077FB7B681B685B6939
:103E200003F04003002B14BF01230023DBB2C7F8CB
:103E3000D4307B685B6C03F00803002B03D1D7F808
:103E4000D430002B4FD0786800F081FA7B681B6873
:103E50005B6903F04003002B41D07B681B6814337F
:103E6000C7F89C30D7F89C3053E8003FC7F898302B
:103E7000D7F8983023F04003C7F8D0307B681B6830
:103E80001433D7F8D020C7F8A820C7F8A430D7F843
:103E9000A410D7F8A82041E80023C7F8A030D7F82D
:103EA000A030002BD9D17B68DB6B002B13D07B6853
:103EB000DB6B7E4A5A637B68DB6B1846FDF73EFE80
:103EC0000346002B16D07B68DB6B5B6B7A68D26B8A
:103ED000104698470EE0786800F093F90AE0786899
:103EE00000F08FF906E0786800F08BF97B6800221B
:103EF0005A6475E100BF73E17B681B6B012B40F0D6
:103F00004F81D7F8E43003F01003002B00F0488114
:103F1000D7F8E03003F01003002B00F041810023BC
:103F2000BB607B681B681B68BB607B681B685B6849
:103F3000BB60BB687B681B685B6903F04003002BB8
:103F400000F0B6807B68DB6B1B685B68A7F8BE304F
:103F5000B7F8BE30002B00F045817B689B8DB7F829
:103F6000BE209A4280F03E817B68B7F8BE20DA8599
:103F70007B68DB6B9B69202B00F088807B681B686B
:103F80000C33C7F88830D7F8883053E8003FC7F8BB
:103F90008430D7F8843023F48073C7F8B8307B6856
:103FA0001B680C33D7F8B820C7F89420C7F89030B6
:103FB000D7F89010D7F8942041E80023C7F88C3048
:103FC000D7F88C30002BD9D17B681B6814337B6702
:103FD0007B6F53E8003F3B673B6F23F00103C7F85B
:103FE000B4307B681B681433D7F8B420C7F880203E
:103FF000FB67F96FD7F8802041E80023BB67BB6FF0
:10400000002BE1D17B681B6814333B663B6E53E8A1
:10401000003FFB65FB6D23F04003C7F8B0307B68C1
:104020001B681433D7F8B020FA66BB66B96EFA6E17
:1040300041E800237B667B6E002BE3D17B68202266
:1040400083F842207B6800221A637B681B680C336C
:10405000FB64FB6C53E8003FBB64BB6C23F01003B4
:10406000C7F8AC307B681B680C33D7F8AC20BA6556
:104070007B65796DBA6D41E800233B653B6D002B94
:10408000E3D17B68DB6B1846FDF71CFD7B680222E1
:104090005A637B689A8D7B68DB8D9BB2D31A9BB287
:1040A0001946786800F0B6F89CE000BF1344000899
:1040B0007B689A8D7B68DB8D9BB2D31AA7F8CE30D4
:1040C0007B68DB8D9BB2002B00F08E80B7F8CE3082
:1040D000002B00F089807B681B680C33BB63BB6BD3
:1040E00053E8003F7B637B6B23F49073C7F8C830C1
:1040F0007B681B680C33D7F8C8207A643B64396C42
:104100007A6C41E80023FB63FB6B002BE3D17B68F7
:104110001B6814337B627B6A53E8003F3B623B6A57
:1041200023F00103C7F8C4307B681B681433D7F849
:10413000C4203A63FB62F96A3A6B41E80023BB6230
:10414000BB6A002BE3D17B68202283F842207B6886
:1041500000221A637B681B680C333B613B6953E8A0
:10416000003FFB60FB6823F01003C7F8C0307B689A
:104170001B680C33D7F8C020FA61BB61B969FA69D2
:1041800041E800237B617B69002BE3D17B6802223D
:104190005A63B7F8CE301946786800F03BF823E050
:1041A000D7F8E43003F08003002B09D0D7F8E030D3
:1041B00003F08003002B03D0786800F03EF914E090
:1041C000D7F8E43003F04003002B0ED0D7F8E030EE
:1041D00003F04003002B08D0786800F07DF904E07C
:1041E00000BF02E000BF00E000BFE837BD4680BD71
:1041F00080B483B000AF786000BF0C37BD4680BC90
:10420000704780B483B000AF786000BF0C37BD4604
:1042100080BC704780B483B000AF78600B467B8071
:1042200000BF0C37BD4680BC704780B586B000AF7C
:10423000F860B9603B601346FB713BE03B6AB3F149
:10424000FF3F37D0FCF7CEFE02463B68D31A3A6AEE
:104250009A4202D33B6A002B01D103233AE0FB6868
:104260001B68DB6803F00403002B23D0BB68802BA2
:1042700020D0BB68402B1DD0FB681B681B6803F077
:104280000803082B16D100237B61FB681B681B68A1
:104290007B61FB681B685B687B617B69F86800F089
:1042A00056F8FB6808225A64FB68002283F8402015
:1042B00001230FE0FB681B681A68BB681340BA68EB
:1042C0009A420CBF01230023DBB21A46FB799A42C3
:1042D000B4D0002318461837BD4680BD80B485B0E1
:1042E00000AFF860B9601346FB80FB68BA689A6259
:1042F000FB68FA889A85FB68FA88DA85FB680022F1
:104300005A64FB68222283F84220FB681B69002B59
:1043100007D0FB681B68DA68FB681B6842F4807290
:10432000DA60FB681B685A69FB681B6842F001028F
:104330005A61FB681B68DA68FB681B6842F0200260
:10434000DA60002318461437BD4680BC704780B43D
:1043500095B000AF78607B681B680C337B637B6B28
:1043600053E8003F3B633B6B23F49073FB647B6833
:104370001B680C33FA6C3A64FB63F96B3A6C41E8E6
:104380000023BB63BB6B002BE5D17B681B68143338
:104390003B623B6A53E8003FFB61FB6923F001038A
:1043A000BB647B681B681433BA6CFA62BB62B96A7F
:1043B000FA6A41E800237B627B6A002BE5D17B68C7
:1043C0001B6B012B19D17B681B680C33FB60FB68EE
:1043D00053E8003FBB60BB6823F010037B647B683D
:1043E0001B680C337A6CBA617B617969BA6941E800
:1043F00000233B613B69002BE5D17B68202283F8D9
:1044000042207B6800221A6300BF5437BD4680BC3F
:10441000704780B584B000AF78607B685B6AFB60F2
:10442000FB680022DA85FB680022DA84F868FFF76F
:10443000E8FE00BF1037BD4680BD80B485B000AF38
:1044400078607B6893F84130DBB2212B3ED17B68EA
:104450009B68B3F5805F14D17B681B69002B10D17A
:104460007B681B6AFB60FB681B881A467B681B68BD
:10447000C2F308025A607B681B6A9A1C7B681A6246
:1044800008E07B681B6A591C7A6811621A787B689D
:104490001B685A607B68DB8C9BB2013B9BB27A68DD
:1044A0001946D184002B0FD17B681B68DA687B68C2
:1044B0001B6822F08002DA607B681B68DA687B6820
:1044C0001B6842F04002DA60002300E00223184635
:1044D0001437BD4680BC704780B582B000AF7860AD
:1044E0007B681B68DA687B681B6822F04002DA6030
:1044F0007B68202283F841207868FFF779FE00234B
:1045000018460837BD4680BD80B58CB000AF7860D6
:104510007B6893F84230DBB2222B40F0AE807B68A0
:104520009B68B3F5805F17D17B681B69002B13D1A3
:104530000023FB627B689B6ABB627B681B685B68CD
:104540009BB2C3F308039AB2BB6A1A807B689B6A6A
:104550009A1C7B689A6226E07B689B6AFB62002358
:10456000BB627B689B68B3F5805F07D07B689B6804
:10457000002B0AD17B681B69002B06D17B681B6866
:104580005B68DAB2FB6A1A7008E07B681B685B68DC
:10459000DBB203F07F03DAB2FB6A1A707B689B6AB6
:1045A0005A1C7B689A627B68DB8D9BB2013B9BB295
:1045B0007A681946D185002B5DD17B681B68DA6863
:1045C0007B681B6822F02002DA607B681B68DA686F
:1045D0007B681B6822F48072DA607B681B685A690A
:1045E0007B681B6822F001025A617B68202283F8F5
:1045F00042207B6800225A637B681B6B012B35D1FC
:104600007B6800221A637B681B680C337B617B69C3
:1046100053E8003F3B613B6923F010037B627B68FA
:104620001B680C337A6A3A62FB61F9693A6A41E8BD
:104630000023BB61BB69002BE5D17B681B681B684D
:1046400003F01003102B0AD10023FB607B681B686A
:104650001B68FB607B681B685B68FB60FB687B68B2
:104660009B8D19467868FFF7D5FD02E07868FBF767
:1046700033FE002302E0002300E002231846303717
:10468000BD4680BD80B584B000AF78607B681B6894
:104690001B6923F440517B68DA687B681B680A4316
:1046A0001A617B689A687B681B691A437B685B693F
:1046B0001343BB607B681B68DB6823F4B05323F0B3
:1046C0000C037A681268B9680B43D3607B681B6877
:1046D0005B6923F440717B689A697B681B680A43B5
:1046E0005A617B681B682C4A934203D1FEF77CF920
:1046F000F86002E0FEF764F9F860FA6813469B0080
:1047000013449A001A447B685B689B00B2FBF3F386
:10471000224AA2FB03235B091901FA6813469B0096
:1047200013449A001A447B685B689B00B2FBF3F267
:104730001A4BA3FB02035B09642000FB03F3D31AAB
:104740001B013233154AA2FB03235B0903F0F0037C
:104750001944FA6813469B0013449A001A447B6874
:104760005B689B00B2FBF3F20C4BA3FB02035B09FB
:10477000642000FB03F3D31A1B013233074AA2FB68
:1047800003235B0903F00F027B681B680A449A60ED
:1047900000BF1037BD4680BD003801401F85EB517A
:1047A00080B485B000AF0346FB800023FB60B7F9FF
:1047B0000630842B05D0B7F90620FB681344033379
:1047C000FB60FB6818461437BD4680BC704780B458
:1047D00083B000AFEFF305837B607B68002B14BFD1
:1047E00001230023DBB218460C37BD4680BC70475E
:1047F00080B500AF01F06EF90023184680BDF0B51A
:1048000089B004AF786039607B685B69002B20D089
:104810007B689B69002B1CD07B685C687B681D688B
:104820007B681E697B68B3F908301846FFF7B8FF4C
:1048300001467B685B697A689269029201930091F4
:104840003B6832462946204600F05FFF0346FB6086
:104850001CE07B685C687B681D687B681B699EB296
:104860007B68B3F908301846FFF79AFF024607F154
:104870000C03019300923B6832462946204600F023
:10488000A4FF0346012B01D0002300E0FB6818467B
:104890001437BD46F0BD80B584B000AF78607B684A
:1048A000FB60FB68002B01D0FB6800E00123184689
:1048B00001F0DAF8002318461037BD4680BD80B5F8
:1048C00082B000AF78607B685B68002B07D07B68A4
:1048D0005B681946012000F0B2FA034603E00120AC
:1048E00000F095FA034618460837BD4680BD000023
:1048F00080B584B000AF786039600023BB607B680E
:10490000002B01D180233AE00023FB603B68B3F128
:10491000FF3F03D14FF0FF33FB6009E03B68002B02
:1049200006D03B68FB60FB68002B01D10123FB60D4
:10493000FFF74DFF0346002B17D007F108031A4677
:104940000021786800F038FD0346012B01D0FF23D9
:1049500015E0BB68002B11D00B4B4FF080521A6052
:10496000BFF34F8FBFF36F8F08E0F968786800F0EE
:1049700013FC0346012B01D0FF2300E0002318465F
:104980001037BD4680BD00BF04ED00E080B584B0A7
:1049900000AF78600023FB600023BB60FFF717FFC8
:1049A0000346002B16D007F108031946786800F07B
:1049B00063FB0346012B01D0FF2317E0BB68002BEC
:1049C00013D00C4B4FF080521A60BFF34F8FBFF3E0
:1049D0006F8F0AE0002300220021786800F04AFA75
:1049E0000346012B01D0FF23FB60FB6818461037FC
:1049F000BD4680BD04ED00E080B483B000AF7860B8
:104A00007B6803F108027B685A607B684FF0FF32D5
:104A10009A607B6803F108027B68DA607B6803F1C7
:104A200008027B681A617B6800221A6000BF0C379D
:104A3000BD4680BC704780B483B000AF78607B68AF
:104A400000221A6100BF0C37BD4680BC704780B49D
:104A500085B000AF786039607B685B68FB603B685D
:104A6000FA685A60FB689A683B689A60FB689B68C2
:104A70003A685A60FB683A689A603B687A681A61DB
:104A80007B681B685A1C7B681A6000BF1437BD46E0
:104A900080BC704780B485B000AF786039603B68F7
:104AA0001B68BB60BB68B3F1FF3F03D17B681B6928
:104AB000FB600CE07B680833FB6002E0FB685B682E
:104AC000FB60FB685B681B68BA689A42F6D2FB68B9
:104AD0005A683B685A603B685B683A689A603B6812
:104AE000FA689A60FB683A685A603B687A681A61AB
:104AF0007B681B685A1C7B681A6000BF1437BD4670
:104B000080BC704780B485B000AF78607B681B695B
:104B1000FB607B685B687A6892689A607B689B68D8
:104B20007A6852685A60FB685B687A689A4203D177
:104B30007B689A68FB685A607B6800221A61FB6890
:104B40001B685A1EFB681A60FB681B6818461437FE
:104B5000BD4680BC7047000080B584B000AF78606F
:104B600039607B68FB60FB68002B0BD14FF0500372
:104B700083F31188BFF36F8FBFF34F8FBB6000BF0C
:104B800000BFFDE701F0EAFEFB681A68FB68DB6B1B
:104B9000F968096C01FB03F31A44FB689A60FB682F
:104BA00000229A63FB681A68FB685A60FB681A68FF
:104BB000FB68DB6B013BF968096C01FB03F31A44EA
:104BC000FB68DA60FB68FF2283F84420FB68FF2261
:104BD00083F845203B68002B14D1FB681B69002B30
:104BE0001AD0FB681033184601F0DAF90346002B9F
:104BF00012D00D4B4FF080521A60BFF34F8FBFF3AE
:104C00006F8F09E0FB6810331846FFF7F5FEFB686D
:104C100024331846FFF7F0FE01F0D0FE01231846BA
:104C20001037BD4680BD00BF04ED00E080B58EB0FA
:104C300002AFF860B9607A603B60FB68002B0BD173
:104C40004FF0500383F31188BFF36F8FBFF34F8F83
:104C5000BB6200BF00BFFDE73B68002B0BD14FF0EC
:104C6000500383F31188BFF36F8FBFF34F8F7B62C5
:104C700000BF00BFFDE77B68002B02D0BB68002BA4
:104C800001D0012300E00023002B0BD14FF0500393
:104C900083F31188BFF36F8FBFF34F8F3B6200BF69
:104CA00000BFFDE77B68002B02D1BB68002B01D160
:104CB000012300E00023002B0BD14FF0500383F3BE
:104CC0001188BFF36F8FBFF34F8FFB6100BF00BF31
:104CD000FDE748237B617B69482B0BD04FF05003E5
:104CE00083F31188BFF36F8FBFF34F8FBB6100BF9A
:104CF00000BFFDE77B693B68FB62FB6A002B0DD0C0
:104D0000FB6A012283F8462097F83820FB6A00935B
:104D100013467A68B968F86800F040F8FB6A1846EC
:104D20003037BD4680BD80B58AB002AFF860B9604B
:104D30001346FB71FB68002B0BD14FF0500383F33C
:104D40001188BFF36F8FBFF34F8F3B6100BF00BF70
:104D5000FDE7FB68BA6802FB03F3FB61FB694833BC
:104D6000184601F0FDFEB861BB69002B11D0BB698C
:104D70007B617B6948337B61BB69002283F84620F5
:104D8000FA79BB69009313467A69B968F86800F04C
:104D900005F8BB6918462037BD4680BD80B584B094
:104DA00000AFF860B9607A60FB70BB68002B03D17C
:104DB000BB69BA691A6002E0BB697A681A60BB69AC
:104DC000FA68DA63BB69BA681A640121B869FFF747
:104DD000C3FE00BF1037BD4680BD80B582B000AFB6
:104DE00078607B68002B0ED07B6800229A607B681D
:104DF00000221A607B680022DA6000230022002172
:104E0000786800F037F800BF0837BD4680BD80B530
:104E100086B000AF0346FB7101237B6100233B6139
:104E2000FB791A4639697869FFF77DFFF860F86801
:104E3000FFF7D3FFFB6818461837BD4680BD80B525
:104E400088B002AF03463960FB7101237B61002308
:104E50003B61FB7900933B68002239697869FFF771
:104E6000E5FEF860F868FFF7B8FFFB6818461837EA
:104E7000BD4680BD80B58EB000AFF860B9607A6085
:104E80003B6000237B63FB683B633B6B002B0BD1D8
:104E90004FF0500383F31188BFF36F8FBFF34F8F31
:104EA000BB6200BF00BFFDE7BB68002B03D13B6BBB
:104EB0001B6C002B01D1012300E00023002B0BD140
:104EC0004FF0500383F31188BFF36F8FBFF34F8F01
:104ED0007B6200BF00BFFDE73B68022B03D13B6B49
:104EE000DB6B012B01D1012300E00023002B0BD150
:104EF0004FF0500383F31188BFF36F8FBFF34F8FD1
:104F00003B6200BF00BFFDE701F010FA0346002B33
:104F100002D17B68002B01D1012300E00023002B8C
:104F20000BD14FF0500383F31188BFF36F8FBFF3A2
:104F30004F8FFB6100BF00BFFDE701F00FFD3B6B32
:104F40009A6B3B6BDB6B9A4202D33B68022B29D1F5
:104F50003A68B968386B00F0C8FAF8623B6B5B6A74
:104F6000002B10D03B6B2433184601F019F8034690
:104F7000002B13D03F4B4FF080521A60BFF34F8F7E
:104F8000BFF36F8F0AE0FB6A002B07D0394B4FF05D
:104F900080521A60BFF34F8FBFF36F8F01F00EFD89
:104FA000012363E07B68002B03D101F007FD0023A0
:104FB0005CE07B6B002B06D107F11403184601F06F
:104FC00053F801237B6301F0F9FC00F0EDFD01F0E3
:104FD000C5FC3B6B93F844305BB2B3F1FF3F03D1A8
:104FE0003B6B002283F844203B6B93F845305BB267
:104FF000B3F1FF3F03D13B6B002283F8452001F062
:10500000DDFC3A1D07F114031146184601F042F881
:105010000346002B24D1386B00F05FFB0346002BC6
:1050200018D03B6B10337A681146184600F092FF97
:10503000386B00F0EAFA00F0C5FD0346002B7FF460
:105040007CAF0C4B4FF080521A60BFF34F8FBFF311
:105050006F8F72E7386B00F0D8FA00F0B3FD6CE7A1
:10506000386B00F0D2FA00F0ADFD00231846383757
:10507000BD4680BD04ED00E080B58EB000AF786025
:1050800039607B683B633B6B002B0BD14FF05003C7
:1050900083F31188BFF36F8FBFF34F8F3B6200BF65
:1050A00000BFFDE73B6B1B6C002B0BD04FF0500398
:1050B00083F31188BFF36F8FBFF34F8FFB6100BF86
:1050C00000BFFDE73B6B1B68002B03D13B6B9B686C
:1050D000002B01D1012300E00023002B0BD14FF066
:1050E000500383F31188BFF36F8FBFF34F8FBB6102
:1050F00000BF00BFFDE701F0F3FCEFF311824FF0BA
:10510000500383F31188BFF36F8FBFF34F8F7A6122
:105110003B617B69FB623B6B9B6BBB623B6BDB6BFD
:10512000BA6A9A422BD23B6B93F8453087F8273006
:10513000BB6A5A1C3B6B9A6397F92730B3F1FF3F68
:1051400012D13B6B5B6A002B16D03B6B24331846A5
:1051500000F026FF0346002B0ED03B68002B0BD03F
:105160003B6801221A6007E097F827300133DBB271
:105170005AB23B6B83F8452001237B6301E0002397
:105180007B63FB6AFB60FB6883F3118800BF7B6B6A
:1051900018463837BD4680BD80B58EB000AF786008
:1051A000396000237B637B68FB6200233B63FB6AFF
:1051B000002B0BD14FF0500383F31188BFF36F8F97
:1051C000BFF34F8F3B6200BF00BFFDE7FB6A1B6C64
:1051D000002B0BD04FF0500383F31188BFF36F8F78
:1051E000BFF34F8FFB6100BF00BFFDE701F09EF8EA
:1051F0000346002B02D13B68002B01D1012300E0C4
:105200000023002B0BD14FF0500383F31188BFF321
:105210006F8FBFF34F8FBB6100BF00BFFDE701F091
:105220009DFBFB6A9B6BBB62BB6A002B24D0BB6AF5
:105230005A1EFB6A9A63FB6A1B68002B04D101F0BB
:1052400021FA0246FB6A9A60FB6A1B69002B0FD0A9
:10525000FB6A1033184600F0A3FE0346002B07D06C
:10526000544B4FF080521A60BFF34F8FBFF36F8FD4
:1052700001F0A4FB012398E03B68002B12D13B6BAB
:10528000002B0BD04FF0500383F31188BFF36F8FC7
:10529000BFF34F8F7B6100BF00BFFDE701F08EFBC6
:1052A000002382E07B6B002B06D107F10C0318462C
:1052B00000F0DAFE01237B6301F080FB00F074FC58
:1052C00001F04CFBFB6A93F844305BB2B3F1FF3F53
:1052D00003D1FB6A002283F84420FB6A93F845302F
:1052E0005BB2B3F1FF3F03D1FB6A002283F8452094
:1052F00001F064FB3A4607F10C031146184600F032
:10530000C9FE0346002B32D1F86A00F0D0F90346FB
:10531000002B26D0FB6A1B68002B09D101F01EFB75
:10532000FB6A9B68184601F01FF8386301F046FBE2
:10533000FB6A24333A681146184600F00BFEF86AFF
:1053400000F063F900F03EFC0346002B7FF467AFEA
:10535000184B4FF080521A60BFF34F8FBFF36F8F1F
:105360005DE7F86A00F051F900F02CFC57E7F86AA5
:1053700000F04BF900F026FCF86A00F098F90346BB
:10538000002B3FF44CAF3B6B002B0DD001F0E6FA45
:10539000F86A00F093F87862FB6A9B68796A1846AD
:1053A00001F0E0F801F00AFB002318463837BD464B
:1053B00080BD00BF04ED00E080B58EB000AFF860A6
:1053C000B9607A60FB683B633B6B002B0BD14FF0FD
:1053D000500383F31188BFF36F8FBFF34F8F3B628E
:1053E00000BF00BFFDE7BB68002B03D13B6B1B6C0C
:1053F000002B01D1012300E00023002B0BD14FF043
:10540000500383F31188BFF36F8FBFF34F8FFB619E
:1054100000BF00BFFDE701F063FBEFF311824FF027
:10542000500383F31188BFF36F8FBFF34F8FBA61BF
:105430007B61BB69FB623B6B9B6BBB62BB6A002BF6
:105440002FD03B6B93F8443087F82730B968386B1E
:1054500000F0B5F8BB6A5A1E3B6B9A6397F9273088
:10546000B3F1FF3F12D13B6B1B69002B16D03B6B96
:105470001033184600F094FD0346002B0ED07B68D5
:10548000002B0BD07B6801221A6007E097F82730C9
:105490000133DBB25AB23B6B83F8442001237B63B8
:1054A00001E000237B63FB6A3B613B6983F3118866
:1054B00000BF7B6B18463837BD4680BD80B485B0D1
:1054C00000AF78607B685B6A002B06D07B681B6B43
:1054D0001B68C3F10703FB6001E00023FB60FB686E
:1054E00018461437BD4680BC704780B586B000AF03
:1054F000F860B9607A6000237B61FB689B6B3B615D
:10550000FB681B6C002B0DD1FB681B68002B4DD179
:10551000FB689B68184600F09DFF7861FB680022DD
:105520009A6043E07B68002B19D1FB685868FB68E0
:105530001B6C1A46B96801F08BFDFB685A68FB6862
:105540001B6C1A44FB685A60FB685A68FB689B68CE
:105550009A422BD3FB681A68FB685A6026E0FB6806
:10556000D868FB681B6C1A46B96801F071FDFB68CE
:10557000DA68FB681B6C5B421A44FB68DA60FB6804
:10558000DA68FB681B689A4207D2FB689A68FB6876
:105590001B6C5B421A44FB68DA607B68022B05D106
:1055A0003B69002B02D03B69013B3B613B695A1CC4
:1055B000FB689A637B6918461837BD4680BD80B585
:1055C00082B000AF786039607B681B6C002B18D00C
:1055D0007B68DA687B681B6C1A447B68DA607B68DE
:1055E000DA687B689B689A4203D37B681A687B6899
:1055F000DA607B68D9687B681B6C1A46386801F0F2
:1056000027FD00BF0837BD4680BD80B584B000AF20
:10561000786001F0A3F97B6893F84530FB7311E0E3
:105620007B685B6A002B12D07B682433184600F03D
:10563000B7FC0346002B01D000F090FDFB7B013B43
:10564000DBB2FB7397F90F30002BE9DC00E000BF01
:105650007B68FF2283F8452001F0B0F901F07EF964
:105660007B6893F84430BB7311E07B681B69002BA7
:1056700012D07B681033184600F092FC0346002BD2
:1056800001D000F06BFDBB7B013BDBB2BB7397F934
:105690000E30002BE9DC00E000BF7B68FF2283F8BE
:1056A000442001F08BF900BF1037BD4680BD80B5A6
:1056B00084B000AF786001F051F97B689B6B002BE0
:1056C00002D10123FB6001E00023FB6001F076F9C9
:1056D000FB6818461037BD4680BD80B584B000AF6A
:1056E000786001F03BF97B689A6B7B68DB6B9A42D0
:1056F00002D10123FB6001E00023FB6001F05EF9B1
:10570000FB6818461037BD4680BD80B58EB004AF2B
:10571000F860B9607A603B607B6B002B0BD14FF077
:10572000500383F31188BFF36F8FBFF34F8F3B623A
:1057300000BF00BFFDE7BB6B002B0BD14FF0500348
:1057400083F31188BFF36F8FBFF34F8FFB6100BFEF
:1057500000BFFDE7A0233B613B69A02B0BD04FF0BE
:10576000500383F31188BFF36F8FBFF34F8FBB617B
:1057700000BF00BFFDE73B69BB6B002B1ED07B6BFE
:10578000002B1BD0BB6B7B627B6A7A6B1A637B6AD4
:10579000022283F89D20002303937B6A029307F182
:1057A000140301933B6B00933B687A68B968F8680F
:1057B00000F050F8786A00F0EDF801E000237B611A
:1057C0007B6918462837BD4680BD80B58CB004AFD4
:1057D000F860B9603B601346FB80FB889B0018466D
:1057E00001F0BEF978617B69002B0ED0A02001F09A
:1057F000B7F9F861FB69002B03D0FB697A691A637A
:1058000005E0786901F07AFA01E00023FB61FB69A9
:10581000002B17D0FB69002283F89D20FA88002313
:105820000393FB690293FB6A0193BB6A00933B6895
:10583000B968F86800F00EF8F86900F0ABF80123D9
:10584000BB6102E04FF0FF33BB61BB6918462037F4
:10585000BD4680BD80B588B000AFF860B9607A60A1
:105860003B603B6B1A6B7B6803F18043013B9B0001
:105870001344BB61BB6923F00703BB61BB6903F041
:105880000703002B0BD04FF0500383F31188BFF3B5
:105890006F8FBFF34F8F7B6100BF00BFFDE7BB6819
:1058A000002B1FD00023FB6112E0BA68FB69134490
:1058B00019783A6BFB69134434330A461A70BA6894
:1058C000FB6913441B78002B06D0FB690133FB6195
:1058D000FB690F2BE9D900E000BF3B6B002283F886
:1058E000432003E03B6B002283F83420BB6A062B85
:1058F00001D90623BB623B6BBA6ADA623B6BBA6AB8
:105900005A643B6B00229A643B6B04331846FFF7E2
:1059100092F83B6B18331846FFF78DF83B6B3A6BE8
:105920001A61BB6AC3F107023B6B9A613B6B3A6B2E
:105930005A623B6B0022C3F898203B6B002283F82D
:105940009C203B6B4C334C220021184601F0F4FAAA
:105950003B6B0D4A1A653B6B0C4A5A653B6B0C4A14
:105960009A653A68F968B86900F006FF02463B6B31
:105970001A60FB6A002B02D0FB6A3A6B1A6000BF08
:105980002037BD4680BD00BF40160020A81600206D
:105990001017002080B582B000AF786000F0DEFF05
:1059A0002A4B1B680133294A1360294B1B68002BC3
:1059B00009D1274A7B681360244B1B68012B10D147
:1059C00000F0F0FB0DE0234B1B68002B09D1204BAE
:1059D0001B68DA6A7B68DB6A9A4202D81C4A7B68D9
:1059E00013601D4B1B6801331B4A13607B68DB6A25
:1059F00001229A40194B1B681343184A13607B68B5
:105A0000DA6A13469B0013449B00154A1A447B68CC
:105A1000043319461046FFF71AF800F0CFFF0D4B7C
:105A20001B68002B0ED00A4B1B68DA6A7B68DB6AA6
:105A30009A4207D20B4B4FF080521A60BFF34F8F40
:105A4000BFF36F8F00BF0837BD4680BDEC05002057
:105A5000EC040020F805002008060020F4050020D2
:105A6000F004002004ED00E080B584B000AF786061
:105A70000023FB607B68002B18D0144B1B68002BA5
:105A80000BD04FF0500383F31188BFF36F8FBFF338
:105A90004F8FBB6000BF00BFFDE700F085F800211D
:105AA000786800F003FE00F08DF8F860FB68002BCA
:105AB00007D1074B4FF080521A60BFF34F8FBFF3EF
:105AC0006F8F00BF1037BD4680BD00BF1406002099
:105AD00004ED00E080B58AB004AF0023BB60002372
