:020000040800F2
:1000000000500020ED220008151F00081D1F0008E9
:10001000251F00082D1F0008351F000800000000E4
:100020000000000000000000000000004187000800
:100030003D1F0008000000002189000869890008B0
:100040003523000835230008352300083523000830
:100050003523000835230008352300083523000820
:10006000352300083523000835230008491F000800
:100070003523000835230008352300083523000800
:1000800035230008352300083523000835230008F0
:1000900035230008352300083523000835230008E0
:1000A00035230008352300083523000835230008D0
:1000B00035230008352300085D1F0008352300089C
:1000C00035230008352300083523000835230008B0
:1000D00035230008711F0008352300083523000868
:1000E00035230008352300083523000800000000F0
:1000F0000000000000000000000000000000000000
:0C01000000000000000000005FF808F1A3
:1001100010B5054C237833B9044B13B10448AFF341
:1001200000800123237010BD60000020000000004B
:100130002490000808B5034B1BB103490348AFF3F3
:10014000008008BD0000000064000020249000082A
:1001500080F0004002E000BF81F0004142001FBF7C
:100160005FEA410392EA030F7FEA226C7FEA236C85
:100170006AD04FEA1262D2EB1363C1BFD21841407A
:1001800048404140B8BF5B42192B88BF704710F010
:10019000004F40F4000020F07F4018BF404211F0B3
:1001A000004F41F4000121F07F4118BF494292EA1B
:1001B000030F3FD0A2F1010241FA03FC10EB0C0047
:1001C000C3F1200301FA03F100F0004302D54942D4
:1001D00060EB4000B0F5000F13D3B0F1807F06D381
:1001E00040084FEA310102F10102FE2A51D2B1F179
:1001F000004F40EBC25008BF20F0010040EA03006E
:100200007047490040EB0000013A28BFB0F5000FED
:10021000EDD2B0FA80FCACF1080CB2EB0C0200FAA3
:100220000CF0AABF00EBC25052421843BCBFD040F2
:100230001843704792F0000F81F4000106BF80F46C
:1002400000000132013BB5E74FEA41037FEA226C2F
:1002500018BF7FEA236C21D092EA030F04D092F0FA
:10026000000F08BF0846704790EA010F1CBF00202E
:10027000704712F07F4F04D1400028BF40F000408B
:10028000704712F100723CBF00F50000704700F0AB
:10029000004343F0FE4040F4000070477FEA2262D2
:1002A00016BF08467FEA23630146420206BF5FEAA3
:1002B000412390EA010F40F4800070474FF00003A3
:1002C00004E000BF10F0004348BF40425FEA000C6A
:1002D00008BF704743F0964301464FF000001CE012
:1002E00050EA010208BF70474FF000030AE000BF68
:1002F00050EA010208BF704711F0004302D54042A6
:1003000061EB41015FEA010C02BF84460146002017
:1003100043F0B64308BFA3F18053A3F50003BCFA32
:100320008CF2083AA3EBC25310DB01FA02FC6344DF
:1003300000FA02FCC2F12002BCF1004F20FA02F2E6
:1003400043EB020008BF20F00100704702F12002D9
:1003500001FA02FCC2F1200250EA4C0021FA02F23A
:1003600043EB020008BF20EADC7070474FF0FF0C3F
:100370001CEAD0521EBF1CEAD15392EA0C0F93EA3A
:100380000C0F6FD01A4480EA010C400218BF5FEADC
:1003900041211ED04FF0006343EA501043EA51114F
:1003A000A0FB01310CF00040B1F5000F3EBF490049
:1003B00041EAD3715B0040EA010062F17F02FD2A4D
:1003C0001DD8B3F1004F40EBC25008BF20F0010030
:1003D000704790F0000F0CF0004C08BF49024CEA47
:1003E000502040EA51207F3AC2BFD2F1FF0340EAD9
:1003F000C250704740F400004FF00003013A5DDC4A
:1004000012F1190FDCBF00F000407047C2F100028A
:10041000410021FA02F1C2F1200200FA02FC5FEA77
:10042000310040F1000053EA4C0308BF20EADC70C1
:10043000704792F0000F00F0004C02BF400010F433
:10044000000F013AF9D040EA0C0093F0000F01F0E0
:10045000004C02BF490011F4000F013BF9D041EA02
:100460000C018FE70CEAD15392EA0C0F18BF93EA04
:100470000C0F0AD030F0004C18BF31F0004CD8D12E
:1004800080EA010000F00040704790F0000F17BFB5
:1004900090F0004F084691F0000F91F0004F14D0FB
:1004A00092EA0C0F01D142020FD193EA0C0F03D153
:1004B0004B0218BF084608D180EA010000F0004056
:1004C00040F0FE4040F40000704740F0FE4040F431
:1004D000400070474FF0FF0C1CEAD0521EBF1CEAD0
:1004E000D15392EA0C0F93EA0C0F69D0A2EB0302EE
:1004F00080EA010C49024FEA402037D04FF0805388
:1005000043EA111143EA10130CF000408B4238BF4C
:100510005B0042F17D024FF4000C8B4224BF5B1A5A
:1005200040EA0C00B3EB510F24BFA3EB510340EAA8
:100530005C00B3EB910F24BFA3EB910340EA9C0056
:10054000B3EBD10F24BFA3EBD10340EADC001B01C6
:1005500018BF5FEA1C1CE0D1FD2A3FF650AF8B426A
:1005600040EBC25008BF20F0010070470CF0004C77
:100570004CEA50207F32C2BFD2F1FF0340EAC250A2
:10058000704740F400004FF00003013A37E792F063
:10059000000F00F0004C02BF400010F4000F013AC1
:1005A000F9D040EA0C0093F0000F01F0004C02BFBC
:1005B000490011F4000F013BF9D041EA0C0195E725
:1005C0000CEAD15392EA0C0F08D142027FF47DAFBE
:1005D00093EA0C0F7FF470AF084676E793EA0C0FAE
:1005E00004D14B023FF44CAF08466EE730F0004CAC
:1005F00018BF31F0004CCAD130F000427FF45CAF3C
:1006000031F000437FF43CAF5FE700BF42000ED201
:10061000B2F1FE4F0BD34FF09E03B3EB126209D43D
:100620004FEA002343F0004323FA02F070474FF0F3
:100630000000704712F1610F01D1420202D14FF068
:10064000FF3070474FF00000704700BF7BB972B9B0
:100650000029BEBF00204FF0004106E008BF00287F
:100660001CBF6FF000414FF0FF3000F0BFB9ADF19B
:10067000080C6DE904CE002909DB002B1ADB00F021
:1006800035F8DDF804E0DDE9022304B070474042AC
:1006900061EB4101002B1BDB00F028F8DDF804E0E2
:1006A000DDE9022304B0404261EB4101524263EBB9
:1006B00043037047524263EB430300F017F8DDF841
:1006C00004E0DDE9022304B0404261EB41017047E0
:1006D000524263EB430300F009F8DDF804E0DDE982
:1006E000022304B0524263EB430370472DE9F04705
:1006F000089D8E4604468846002B4AD18A421746FA
:1007000062D9B2FA82F64EB1C6F1200301FA06F8B8
:1007100020FA03F3B74043EA0808B4404FEA174E03
:10072000B8FBFEF11FFA87FC0EFB118801FB0CF2EF
:10073000230C43EA08439A4209D9FB1801F1FF3020
:1007400080F0EB809A4240F2E88002393B449A1AEA
:10075000B2FBFEF00EFB102200FB0CFCA3B243EA3E
:1007600002439C4509D9FB1800F1FF3280F0D78085
:100770009C4540F2D4803B44023840EA01400021CD
:10078000A3EB0C031DB10022F340C5E90032BDE824
:10079000F0878B4205D90DB1C5E90001002108465B
:1007A000F5E7B3FA83F1002946D1734502D38242BB
:1007B00000F20881841A6EEB030201209046002D9E
:1007C000E5D0C5E90048E2E7002A00F09180B2FADE
:1007D00082F6002E40F0A5808A1A0121030C4FEA10
:1007E000174E80B2BCB2B2FBFEFC0EFB1C2243EAE9
:1007F000024304FB0CF29A4207D9FB180CF1FF38B4
:1008000002D29A4200F2E380C4469B1AB3FBFEF286
:100810000EFB123302FB04F440EA03439C4207D967
:10082000FB1802F1FF3002D29C4200F2CD8002465A
:100830001B1B42EA0C40A5E7C1F120068B4022FABF
:1008400006F71F432EFA06FA4FEA1749BAFBF9F8E2
:100850000EFA01FE20FA06F309FB18AA1FFA87FC1C
:1008600043EA0E0300FA01FE08FB0CF01C0C44EAFC
:100870000A44A04202FA01F20AD93C1908F1FF3AEF
:1008800080F09E80A04240F29B80A8F102083C4488
:10089000241A98B2B4FBF9F309FB134403FB0CFCD4
:1008A00040EA0444A44509D93C1903F1FF3080F023
:1008B0008580A44540F28280023B3C4443EA0840E4
:1008C000A4EB0C04A0FB028C64454346E14664D3D0
:1008D00061D05DB1BEEB030264EB090404FA06F6D5
:1008E00022FA01F31E43CC40C5E9006400214EE723
:1008F000B1FBF2FC010C41EA0E4180B240EA014238
:100900003B46B1FBF7F138463C46B846BE4620268A
:10091000A2EB080241EA0C4165E7014617E71046E1
:100920002BE7C6F120012EFA01FCB7400EFA06FEB5
:1009300020FA01F141EA0E014FEA174EBCFBFEF826
:10094000BCB20EFB18CC08FB04F90A0C42EA0C42BC
:10095000B04091454FEA104380B23ED9BA1808F131
:10096000FF3C01D291451FD8A2EB0902B2FBFEF970
:1009700009FB04F80EFB192A8AB242EA0A424245F0
:1009800029D2BA1809F1FF31C2D24245C0D2A9F129
:1009900002013A44BCE7C6459BD2B8EB02036CEBBC
:1009A000070C0138E14694E7A7EB09094A44B2FB7A
:1009B000FEF9A8F1020C09FB04F8DBE703467DE72A
:1009C000D04665E70846FAE63B44023A30E7ACF128
:1009D000020C3B4419E749469AE7A2EB0902B2FB35
:1009E000FEF9C44609FB04F8C4E700BF704700BF26
:1009F00080B584B000AF3B1D00221A605A609A6037
:100A0000274B284A1A60264B4FF480729A60244B79
:100A100001221A73224B00221A75214B4FF46022D7
:100A2000DA611F4B00225A601D4B03221A611C48D9
:100A300001F0D8FC0346002B01D001F02DF9002372
:100A40007B600123BB600723FB603B1D19461448F4
:100A500001F09AFE0346002B01D001F01DF901239D
:100A60007B600223BB603B1D19460D4801F08CFEE4
:100A70000346002B01D001F00FF902237B60032312
:100A8000BB603B1D1946064801F07EFE0346002B65
:100A900001D001F001F900BF1037BD4680BD00BF95
:100AA0007C0000200024014080B588B000AF786051
:100AB00007F1100300221A605A609A60DA607B68BE
:100AC0001B68284A934249D1274B9B69264A43F425
:100AD00000739361244B9B6903F40073FB60FB6814
:100AE000214B9B69204A43F0040393611E4B9B6991
:100AF00003F00403BB60BB6807233B6103237B61F6
:100B000007F110031946194802F0BAFB184B194AAD
:100B10001A60174B00225A60154B00229A60144B42
:100B20008022DA60124B4FF480721A61104B4FF43E
:100B300080625A610E4B20229A610D4B0022DA61CD
:100B40000B4802F0FBF80346002B01D001F0A4F89B
:100B50007B68074A1A62064A7B68536200BF2037E7
:100B6000BD4680BD00240140001002400008014045
:100B7000AC0000200800024080B500AF044B1B68A9
:100B8000044A11880022184602F015FD00BF80BDFE
:100B9000F4000020F800002080B500AF044B1B6873
:100BA000044A11880122184602F005FD00BF80BDED
:100BB000F4000020F800002080B584B000AF0346A8
:100BC0000A46FB711346BB71FB7903F07F03DBB26E
:100BD0003B73BB797B73FFF7CFFF084B186807F1B6
:100BE0000C016423022203F091FA0346FB73FFF722
:100BF000D3FFFB7B18461037BD4680BDF0000020B8
:100C000080B584B000AF03463960FB711346BB80EA
:100C1000FB7963F07F03DBB2FB71FFF7ADFF114B94
:100C20001868F91D6423012203F070FA0346FB7370
:100C30000C4B1868BA886423396803F0ABFB034691
:100C4000BB73FFF7A9FFFB7B002B02D1BB7B002B03
:100C500001D0012300E00023DBB218461037BD4667
:100C600080BD00BFF000002080B586B000AF3B46DD
:100C7000182219468820FFF7C3FF0346002B01D036
:100C800000237AE07B781BB21B021AB23B781BB2BE
:100C900013431BB29AB23B4B1A80FB781BB21B0268
:100CA0001AB2BB781BB213431AB2364B5A807B7907
:100CB0001BB21B021AB23B791BB213431AB2314B5F
:100CC0009A80FB791BB21B021AB2BB791BB2134389
:100CD0001BB29AB22B4BDA807B7A1BB21B021AB280
:100CE0003B7A1BB213431AB2264B1A81FB7A1BB212
:100CF0001B021AB2BB7A1BB213431AB2214B5A81A0
:100D00007B7B1BB21B021AB23B7B1BB213431AB292
:100D10001C4B9A81FB7B1BB21B021AB2BB7B1BB222
:100D200013431AB2174BDA817B7C1BB21B021AB237
:100D30003B7C1BB213431AB2124B1A82FB7C1BB2D0
:100D40001B021AB2BB7C1BB213431AB20D4B5A8260
:100D50007B7D1BB21B021AB23B7D1BB213431AB23E
:100D6000084B9A82FB7D1BB21B021AB2BB7D1BB2E1
:100D700013431AB2034BDA82012318461837BD46D3
:100D800080BD00BFFC00002080B586B000AFF860D9
:100D9000B9601346FB80264AFB681360254ABB688E
:100DA0001360254AFB881380FFF7F6FE642001F0EC
:100DB000F5FAB621E020FFF7FFFE0346002B01D035
:100DC000002330E0642001F0E9FA0023FB7507F10D
:100DD000170301221946D020FFF712FF0346002B0C
:100DE00002D1FB7D582B01D000231CE0FFF73CFF14
:100DF000034683F00103DBB2002B01D0002312E095
:100E00002721F420FFF7D8FE0346002B01D0002352
:100E100009E00021F520FFF7CFFE0346002B01D0AB
:100E2000002300E0012318461837BD4680BD00BFEF
:100E3000F0000020F4000020F800002080B586B00B
:100E400000AF3B1D03221946FA20FFF7D9FE0346E7
:100E5000002B01D0234B40E03B791A037B791B0127
:100E60001343BA791209D2B213437B617B69DA105A
:100E70001D4B1B885B00D31A1B4AB2F9022002FBF0
:100E800003F3DB123B617B691B11174A12889B1A23
:100E90007A69121114490988521A02FB03F31B13D1
:100EA000114AB2F9042002FB03F39B13FB603A6979
:100EB000FB6813440D4A13600C4B1A6813469B00E1
:100EC000134480331B121846FFF7FCF90346BB603E
:100ED0000749B868FFF7FEFA034618461837BD46BB
:100EE00080BD00BF00007AC4FC0000201401002077
:100EF0000000C8422DE9B04FCCB000AF07F58673B3
:100F000003221946F720FFF77BFE0346002B01D092
:100F1000B14BB5E297F80C311A0397F80D311B016C
:100F20001A4397F80E311B09DBB21343C7F82C3173
:100F3000AA4B1B68DA17C7F8C830C7F8CC20D7E926
:100F400032231146B1F5FA31B96443F1FF33FB6442
:100F5000D7E91223C7E94823D7F82421D7F820314D
:100F600003FB02F1D7F82421D7F8203102FB03F369
:100F7000CA18D7F82031A3FB034553191D46984BD7
:100F8000B3F910301BB2DA17C7F8C030C7F8C42065
:100F9000D7E93001034603FB05F20B4604FB03F3DC
:100FA00013440246A4FB02894B449946C7E946898B
:100FB000C7E946898A4BB3F90E301BB2DA17C7F876
:100FC000B830C7F8BC20D7F82031D7E92E452A46DB
:100FD00002FB03F2D7F82431214601FB03F31A4444
:100FE000D7F820312146A3FB01AB02EB0B039B4654
:100FF0004FF000004FF000014FEA4B4141EADA3177
:101000004FEA4A40D7E9462314183C644B417B64BD
:10101000D7E91034C7E94634714BB3F90C301BB231
:10102000DA17C7F8B030C7F8B4204FF000004FF01F
:101030000001D7F8B030D9000020D7E946231418B2
:10104000BC634B41FB63D7E90E34C7E94634D7F89C
:101050002421D7F8203103FB02F1D7F82421D7F857
:10106000203102FB03F3CA18D7F82031A3FB033168
:10107000C7F80411C7F80031D7F80431D318C7F8FE
:101080000431574BB3F90A301BB2DA17C7F8A8304E
:10109000C7F8AC20D7E940342246D7E92A8941462F
:1010A00001FB02F24D4618462146034603FB05F3B9
:1010B000134402464146A2FB0121C7F8FC10C7F8C1
:1010C000F820D7F8FC201344C7F8FC304FF000009C
:1010D0004FF00001D7E93E452346180A2A4640EA68
:1010E00002602B4619123E4BB3F908301BB2DA17D7
:1010F000C7F8A030C7F8A420D7F82031D7E928894D
:101100004A4602FB03F2D7F82431444604FB03F3BA
:101110001A44D7F820314446A3FB0434C7F8F440FE
:10112000C7F8F030D7F8F430D318C7F8F4304FF0E0
:1011300000024FF00003D7E93C894C462303C44624
:1011400043EA1C534446220384183C6341EB0303E7
:101150007B63D7E90C34C7E94834D7E9482303F562
:101160000041C7F89C10C7F898201D4BDB889BB244
:101170000022C7F89030C7F89420D7E926342246D9
:10118000D7E92489414601FB02F24D461846214623
:10119000034603FB05F3134402464146A2FB01212B
:1011A000C7F8EC10C7F8E820D7F8EC201344C7F8CC
:1011B000EC304FF000024FF00003D7E93A452946E2
:1011C0004A102946CB17C7E94823D7E948231343D8
:1011D00008D14FF0000353E1000080BF140100204C
:1011E000FC000020D7F82C31C3F58013DA17BB625E
:1011F000FA62D7E90A34C7E94434D7F810315B10F2
:10120000C7F88C30D7F81031DB07C7F88830D7E93A
:101210004623D7E922010446A41AC7F8804061EBAF
:101220000303C7F88430D7E9204522462B4691189E
:1012300039625B417B62D7E9082321465118B961C5
:1012400029464B41FB614FF000024FF00003D7E904
:10125000068949468B01414643EA916341468A012A
:10126000414689183961494643EB010179614FF0E4
:1012700000024FF00003D7E9048949468B00C446B9
:1012800043EA9C7341468A001046194603462246AB
:101290009B18BB600B462A4642EB0303FB604FF0F2
:1012A00000024FF00003D7E9028949468B00C4468B
:1012B00043EA9C7341468A0010461946034622467B
:1012C0009B18BB672B460A4642EB0303FB67D7E933
:1012D0004823D7E91E01FFF7B9F902460B46C7E9D3
:1012E00044236A4BB3F916301BB2DA173B677A67AF
:1012F000D7E944234FF000004FF00001500B40EAC3
:10130000C3405913D7E91C452B4600FB03F2234683
:1013100003FB01F313442246A2FB0021C7F8E410AB
:10132000C7F8E020D7F8E4201344C7F8E430D7E941
:1013300044234FF000004FF00001500B40EAC3403F
:101340005913D7E938452B4600FB03F2234603FB2C
:1013500001F313442246A2FB0021C7F8DC10C7F8B2
:10136000D820D7F8DC201344C7F8DC304FF0000257
:101370004FF00003D7E9364521464A0E204629465C
:101380000C4642EAC4124B16C7E948233F4BB3F957
:1013900014301BB2DA17BB66FA66D7F81031D7E9FA
:1013A0001A452A4602FB03F2D7F81431214601FB05
:1013B00003F31344D7F810212146A2FB0121C7F8FB
:1013C000D410C7F8D020D7F8D4201344C7F8D430AD
:1013D0004FF000024FF00003D7E934452146CA0C14
:1013E000204629460C4642EA4432CB14C7E946233C
:1013F000D7E94401D7E9482384183C6641EB03034D
:101400007B66D7E94623D7E9184521468918B9658F
:10141000294643EB0101F9654FF000004FF0000150
:10142000D7E916452346180A2A4640EA02602B46A9
:101430001912164BB3F912301BB2DA173B657A65F5
:101440004FF000024FF00003D7E914894C46230106
:10145000C44643EA1C734446220184183C6041EBB5
:1014600003037B60D7E90034C7E94434D7E944017A
:10147000FEF73EFF034606491846FFF72BF80346E2
:10148000184607F59877BD46BDE8B08FFC000020F0
:101490000000C84680B584B000AF78607B681B68E8
:1014A0000F4A934217D106210E4800F021F8034657
:1014B000FB730C4B9B79DBB2FA7B9A4203D10A4B4C
:1014C00001221A7002E0084B00221A700722054917
:1014D000064804F060FB00BF1037BD4680BD00BF6A
:1014E000003801401C0100201801002024050020C4
:1014F00080B485B000AF78600B46FB700023FB73AF
:101500000023BB7323E0BB7B7A6813441A78FB7B10
:101510005340FB7300237B7313E097F90F30002BCC
:1015200008DA97F90F305B005BB283F007035BB218
:10153000DBB202E0FB7B5B00DBB2FB737B7B013346
:101540007B737B7B072BE8D9BB7B0133BB73BA7BF7
:10155000FB789A42D7D3FB7B18461437BD4680BC34
:101560007047000080B582B000AF0C4B5B690B4A3E
:1015700043F001035361094B5B6903F001037B6096
:101580007B68002205210B2001F0ADFB0B2001F050
:10159000C6FB00BF0837BD4680BD00BF001002403B
:1015A00080B485B000AFF860B9607A60FB68064A25
:1015B0001A60BB68054A1A607B6880221A6000BF07
:1015C0001437BD4680BC70474C010020EC01002060
:1015D000B0B5A6B000AF0023C7F890300023C7F81D
:1015E000943007F19003184605F0F3F80346344AA7
:1015F0001360344805F0EDF80346334A1360334B6B
:1016000007F174041D460FCD0FC495E8070084E868
:10161000070007F174030021184605F07AF8034625
:101620002B4A13602B4B07F158041D460FCD0FC4F6
:1016300095E8070084E8070007F1580300211846E1
:1016400005F067F80346244A1360244B07F13C0475
:101650001D460FCD0FC495E8070084E8070007F189
:101660003C030021184605F054F803461C4A136059
:101670001C4B07F120041D460FCD0FC495E8070051
:1016800084E8070007F120030021184605F041F81F
:101690000346154A1360154B3C1D1D460FCD0FC464
:1016A00095E8070084E807003B1D0021184605F077
:1016B00030F803460E4A136000BF9837BD46B0BDF0
:1016C000300100201C9100083401002048900008DF
:1016D00038010020749000083C010020A090000810
:1016E00040010020C490000844010020EC90000854
:1016F0004801002080B582B000AF7860012005F07D
:1017000054F8FBE780B58AB000AF78604FF47A7385
:101710003B624F4A07F1080307CA83E807004D4BB5
:101720001B684FF0FF31184605F06CF801237B620F
:101730000CE0494A7B6A1344197807F108027B6A76
:1017400013440A461A707B6A01337B627B6A0A2B58
:10175000EFDD404B1B68184605F0A2F807F10803BF
:101760000B211846FFF7C4FE0346FB743B4B1B6876
:101770004FF0FF31184605F045F807F108016423E2
:101780000C22374804F07CF9344B1B68184605F0EE
:1017900087F806F03FFAF86102E00A2005F005F844
:1017A000304B1B78DBB283F00103DBB2002B07D098
:1017B00006F030FA0246FB69D31A3A6A9A42ECD82C
:1017C000284B1B78DBB2002B3ED007F04FF8264A9F
:1017D00007F11403106818609188927999809A71C2
:1017E000204B00221A7007F071F87B7D03F0010393
:1017F000DBB21A4608211D4801F0DDFE7B7D5B103F
:10180000DBB203F00103DBB21A461021174801F0E6
:10181000D2FE7B7D9B10DBB203F00103DBB21A46E4
:101820002021124801F0C7FEBB7D1A46FB7D1B023A
:101830001A430F4B1B685A633B7E1A467B7E1B0282
:101840001A430B4B1B689A630A2004F0AEFF66E74D
:1018500008910008340100202401002030010020FC
:1018600024050020180100201C0100200008014070
:10187000DC04002080B582B000AF7860264B1B6886
:101880004FF0FF31184604F0BDFF244B0022DA71FF
:101890000821234801F078FE0346002B0CBF0123EA
:1018A0000023DBB219461D4BDB795AB24BB213430E
:1018B0005BB2DAB2194BDA711021194801F064FEFB
:1018C0000346002B01D1022100E00021134BDB79FC
:1018D0005AB24BB213435BB2DAB2104BDA71402109
:1018E0000F4801F051FE0346002B01D1042100E016
:1018F00000210A4BDB795AB24BB213435BB2DAB226
:10190000064BDA71044B1B68184604F0C9FF6420CB
:1019100004F04BFFB2E700BF340100202401002097
:10192000000C014080B584B000AF7860184B1B6894
:101930004FF0FF31184604F065FF0023FB601AE00A
:10194000144AFB6832F813309AB2FB685B0001332B
:10195000D1B2114AD1540F4AFB6832F813309BB20E
:101960001B0A9AB2FB6801335B00D1B20A4AD15418
:10197000FB680133FB60FB68022BE1DD044B1B6855
:10198000184604F08DFF322004F00FFFCEE700BFB1
:1019900034010020EC0300202401002080B586B033
:1019A00000AF78600023FB754FF480521B491C4840
:1019B000FFF7EAF9FFF742FA3861FFF79BFAF860A0
:1019C000F868FEF723FE0346BB60164B1B684FF01A
:1019D000FF31184604F016FF3869FEF717FE03467C
:1019E000FB75114AFB7D1372BB681B0ADAB20E4B02
:1019F0005A72BB68DAB20C4B9A720A4B1B681846D3
:101A000004F04EFF4FF40051084801F0ECFD4FF494
:101A1000FA7004F0CAFE00BFCCE700BF000C014022
:101A2000F4030020340100202401002000100140B4
:101A300080B588B000AF07F1100300221A605A6029
:101A40009A60DA603E4B9B693D4A43F01003936114
:101A50003B4B9B6903F01003FB60FB68384B9B69B1
:101A6000374A43F020039361354B9B6903F0200311
:101A7000BB60BB68324B9B69314A43F004039361FE
:101A80002F4B9B6903F004037B607B682C4B9B69A5
:101A90002B4A43F008039361294B9B6903F0080329
:101AA0003B603B6800224FF40051264801F083FD63
:101AB00000223821244801F07EFD01224FF480519C
:101AC000224801F078FD4FF400533B6101237B6114
:101AD0000023BB610223FB6107F11003194619487B
:101AE00001F0CEFB38233B6101237B610023BB6106
:101AF0000123FB6107F110031946134801F0C0FBF5
:101B00004FF480533B6101237B610223BB610123BE
:101B1000FB6107F1100319460C4801F0B1FB582393
:101B20003B6100237B610123BB6107F11003194670
:101B3000064801F0A5FB00BF2037BD4680BD00BFB1
:101B4000001002400010014000080140000C01405C
:101B500080B500AF00F0F0FB00F030F8FFF768FF51
:101B6000FFF700FD00F044FB00F05EFA00F010FA11
:101B7000FEF73EFF00F096F807220B490B4804F0F1
:101B80000AF800210A4803F0CBF80421084803F0C2
:101B9000C7F803220749084800F0FCFCFFF718FDCE
:101BA00004F0B0FD00BFFDE71C010020240500206B
:101BB000DC040020EC0300207C00002080B594B001
:101BC00000AF07F1280328220021184607F03CF94E
:101BD00007F1140300221A605A609A60DA601A61F1
:101BE0003B1D00221A605A609A60DA600123BB62D2
:101BF0004FF48033FB6200233B630123BB6302236A
:101C00007B644FF48033BB644FF4E013FB6407F153
:101C10002803184601F000FD0346002B01D000F018
:101C20003BF80F237B610223BB610023FB614FF470
:101C300080633B6200237B6207F114030221184694
:101C400001F06CFF0346002B01D000F025F80223C1
:101C50007B604FF40043FB603B1D184602F01CF90B
:101C60000346002B01D000F017F800BF5037BD46E7
:101C700080BD000080B582B000AF78607B681B68D3
:101C8000044A934201D100F06DFB00BF0837BD4606
:101C900080BD00BF0008004080B400AF72B600BF36
:101CA00000BFFDE780B500AF174B184A1A60164B0E
:101CB0004FF482725A60144B00229A60124B002239
:101CC000DA60114B00221A610F4B00225A610E4B51
:101CD0004FF400729A610C4B1022DA610A4B002219
:101CE0001A62094B00225A62074B00229A62064B85
:101CF0000A22DA62044802F085F90346002B01D07B
:101D0000FFF7CAFF00BF80BDF40300200038004089
:101D100080B588B000AF786007F1100300221A6028
:101D20005A609A60DA607B681B681C4A934231D122
:101D30001B4BDB691A4A43F48043D361184BDB69C0
:101D400003F48043FB60FB68154B9B69144A43F026
:101D500008039361124B9B6903F00803BB60BB68E7
:101D60004FF420433B6102237B610323FB6107F1B6
:101D7000100319460B4801F083FA4FF480433B618E
:101D800000237B610023BB6107F11003194605485E
:101D900001F076FA00BF2037BD4680BD0038004014
:101DA00000100240000C014080B584B000AF184B19
:101DB0009B69174A43F001039361154B9B6903F03C
:101DC0000103BB60BB68124BDB69114A43F08053CF
:101DD000D3610F4BDB6903F080537B607B6800228B
:101DE0000F216FF0010000F07EFF0A4B5B68FB6083
:101DF000FB6823F0E063FB60FB6843F00073FB606B
:101E0000044AFB68536000BF1037BD4680BD00BF69
:101E1000001002400000014080B58EB000AF786035
:101E20000023FB620023BB62002387F83330344B6E
:101E3000DB69334A43F00403D361314BDB6903F0C0
:101E40000403FB60FB6807F1100207F1140311465D
:101E5000184601F0D3FF3B6AFB62FB6A002B03D1FB
:101E600001F0A4FF786304E001F0A0FF03465B00EB
:101E70007B637B6B234AA2FB03239B0C013BBB626E
:101E8000214B224A1A60204B40F2E732DA601E4AA8
:101E9000BB6A53601C4B00221A611B4B00229A60E4
:101EA000194B00229A61184802F041FE034687F858
:101EB000333097F83330002B1BD1134802F086FEE5
:101EC000034687F8333097F83330002B11D11E20AA
:101ED00000F025FF7B680F2B08D8002279681E20B0
:101EE00000F001FF0A4A7B68136002E0012387F8D3
:101EF000333097F8333018463837BD4680BD00BFC1
:101F00000010024083DE1B434C0400200008004008
:101F10000400002080B400AF00BFFDE780B400AF34
:101F200000BFFDE780B400AF00BFFDE780B400AFA5
:101F300000BFFDE780B400AF00BFFDE780B400AF95
:101F400000BFBD4680BC704780B500AF024801F0BD
:101F500063F800BF80BD00BFAC00002080B500AFBB
:101F6000024802F07FFF00BF80BD00BF4C0400208C
:101F700080B500AF024803F033FE00BF80BD00BF54
:101F80002405002080B400AF00BFBD4680BC704770
:101F900080B586B000AF07F1080300221A605A60CE
:101FA0009A60DA603B4600221A605A601D4B4FF07F
:101FB00080421A601B4B47225A601A4B00229A60DB
:101FC000184B6322DA60174B00221A61154B00226E
:101FD0009A61144802F0ABFD0346002B01D0FFF7D5
:101FE0005BFE4FF48053BB6007F1080319460D48B0
:101FF00003F0EAF80346002B01D0FFF74DFE202343
:102000003B6000237B603B461946064803F078FCA2
:102010000346002B01D0FFF73FFE00BF1837BD4637
:1020200080BD00BF9404002080B58EB000AF07F1E2
:10203000280300221A605A609A60DA6007F12003D0
:1020400000221A605A603B1D00221A605A609A6092
:10205000DA601A615A619A61324B334A1A60314B25
:1020600002225A602F4B00229A602E4B40F2FF3220
:10207000DA602C4B00221A612A4B80229A6129488F
:1020800002F055FD0346002B01D0FFF705FE4FF48B
:102090008053BB6207F128031946224803F094F8E5
:1020A0000346002B01D0FFF7F7FD1E4802F0E0FDCC
:1020B0000346002B01D0FFF7EFFD00233B62002316
:1020C0007B6207F120031946164803F019FC03460A
:1020D000002B01D0FFF7E0FD60237B600023BB6095
:1020E0000023FB6000237B613B1D002219460D4845
:1020F00002F0A8FF0346002B01D0FFF7CDFD3B1DEA
:1021000004221946074802F09DFF0346002B01D028
:10211000FFF7C2FD034800F039F800BF3837BD466D
:1021200080BD00BFDC0400200004004080B485B006
:1021300000AF78607B681B68B3F1804F0CD1114B06
:10214000DB69104A43F00103D3610E4BDB6903F0F6
:102150000103FB60FB6810E07B681B680A4A93423E
:102160000BD1084BDB69074A43F00203D361054BEF
:10217000DB6903F00203BB60BB6800BF1437BD46D8
:1021800080BC7047001002400004004080B588B059
:1021900000AF786007F1100300221A605A609A605D
:1021A000DA607B681B680F4A934217D10E4B9B691C
:1021B0000D4A43F0040393610B4B9B6903F0040346
:1021C000FB60FB68C0233B6102237B610123FB6151
:1021D00007F110031946054801F052F800BF2037F7
:1021E000BD4680BD000400400010024000080140D0
:1021F00080B500AF114B124A1A60104B4FF4E13218
:102200005A600E4B00229A600C4B0022DA600B4B96
:1022100000221A61094B0C225A61084B00229A6174
:10222000064B0022DA61054803F0DAFB0346002B77
:1022300001D0FFF731FD00BF80BD00BF24050020A5
:102240000038014080B588B000AF786007F1100316
:1022500000221A605A609A60DA607B681B68204A24
:10226000934239D11F4B9B691E4A43F480439361CB
:102270001C4B9B6903F48043FB60FB68194B9B6913
:10228000184A43F004039361164B9B6903F004035F
:10229000BB60BB684FF400733B6102237B61032387
:1022A000FB6107F1100319460F4800F0E9FF4FF4F6
:1022B00080633B6100237B610023BB6107F1100356
:1022C0001946094800F0DCFF00220521252000F016
:1022D0000AFD252000F023FD00BF2037BD4680BD4C
:1022E000003801400010024000080140FFF74AFE9C
:1022F0000B480C490C4A002302E0D458C450043364
:10230000C4188C42F9D3094A094C002301E0136038
:102310000432A242FBD306F0FDFDFFF719FC704723
:102320000000002060000020609100086000002094
:1023300004200020FEE7000080B500AF084B1B68BA
:10234000074A43F010031360032000F0C1FC0F2084
:10235000FFF762FDFFF728FD0023184680BD00BF90
:102360000020024080B400AF054B1B781A46054B95
:102370001B681344034A136000BFBD4680BC70470E
:10238000080000206C05002080B400AF024B1B68E1
:102390001846BD4680BC70476C05002080B584B0EF
:1023A00000AF7860FFF7F0FFB8607B68FB60FB6808
:1023B000B3F1FF3F05D00A4B1B781A46FB68134464
:1023C000FB6000BFFFF7E0FF0246BB68D31AFA6864
:1023D0009A42F7D800BF00BF1037BD4680BD00BF8E
:1023E0000800002080B586B000AF78600023FB7540
:1023F00000233B610023BB600023FB607B68002B54
:1024000001D10123BEE07B689B68002B7B689B6A3F
:10241000002B09D17B680022DA627B68002283F8F6
:1024200024207868FEF740FB786800F0FFFA034646
:10243000FB757B689B6A03F01003002B40F09980CA
:10244000FB7D002B40F095807B689B6A23F48853CA
:1024500023F0020343F002027B689A627B685A68A9
:102460007B68DB691A437B681B7B5B001343BA689C
:102470001343BB607B689B68B3F5807F03D07B68A8
:102480009B68012B02D14FF4807300E000233A696E
:1024900013433B617B681B7D012B19D17B681B7B40
:1024A000002B09D17B689B69013B5A033B691343AD
:1024B00043F400633B610BE07B689B6A43F02002BE
:1024C0007B689A627B68DB6A43F001027B68DA62B0
:1024D0007B681B685B6823F469417B681B683A6909
:1024E0000A435A607B681B689A68284B13407A68D5
:1024F0001268B9680B4393607B689B68B3F5807F73
:1025000003D07B689B68012B04D17B681B69013B6E
:102510001B05FB607B681B68DB6A23F470017B682A
:102520001B68FA680A43DA627B681B689A68184B72
:102530001340BA689A420BD17B680022DA627B684A
:102540009B6A23F0030343F001027B689A6218E060
:102550007B689B6A23F0120343F010027B689A6247
:102560007B68DB6A43F001027B68DA620123FB755A
:1025700007E07B689B6A43F010027B689A62012344
:10258000FB75FB7D18461837BD4680BDFDF7E1FFA2
:10259000FE0E1FFF80B586B000AFF860B9607A60AC
:1025A0000023FB75FB681B68644A934204D0FB68F8
:1025B0001B68634A934206D1604B5B6803F4702347
:1025C000002B40F0B380FB6893F82430012B01D13D
:1025D0000223AEE0FB68012283F82420F86800F0B3
:1025E000CBF90346FB75FB7D002B40F09A80FB681E
:1025F0009B6A23F4706323F0010343F48072FB6849
:102600009A62FB681B684E4A934205D14B4B5B684C
:1026100003F47023002B15D1FB689B6A23F480120E
:10262000FB689A62FB681B685B6803F48063002B9D
:1026300026D0FB689B6A23F4405343F48052FB6826
:102640009A621DE0FB689B6A43F48012FB689A6201
:10265000FB681B68394A934204D0FB681B68384A00
:1026600093420DD1354B5B6803F48063002B07D098
:10267000FB689B6A23F4405343F48052FB689A62E0
:10268000FB689B6A03F48053002B06D0FB68DB6A6F
:1026900023F00602FB68DA6202E0FB680022DA62DD
:1026A000FB68002283F82420FB681B6A254A9A6293
:1026B000FB681B6A244ADA62FB681B6A234A1A63B6
:1026C000FB681B686FF002021A60FB681B689A685F
:1026D000FB681B6842F480729A60FB68186AFB68AA
:1026E0001B684C331946BA687B6800F081FBFB68B5
:1026F0001B689B6803F46023B3F5602F08D1FB6867
:102700001B689A68FB681B6842F4A0029A600FE09D
:10271000FB681B689A68FB681B6842F480129A6029
:1027200006E0FB68002283F8242001E00123FB750A
:10273000FB7D18461837BD4680BD00BF0024014010
:1027400000280140AF2A00082B2B0008472B000867
:1027500080B483B000AF786000BF0C37BD4680BC4A
:10276000704780B483B000AF786000BF0C37BD46BF
:1027700080BC704780B483B000AF786000BF0C3776
:10278000BD4680BC7047000080B485B000AF786063
:1027900039600023FB730023BB607B6893F824300F
:1027A000012B01D10223DCE07B68012283F8242085
:1027B0003B685B68062B1CD87B681B68596B3B68C1
:1027C0005A6813469B001344053B1F2202FA03F389
:1027D000DB4319403B6818683B685A6813469B0006
:1027E0001344053B00FA03F27B681B680A435A63F3
:1027F0003CE03B685B680C2B1CD87B681B68196B42
:102800003B685A6813469B001344233B1F2202FA7D
:1028100003F3DB4319403B6818683B685A6813466A
:102820009B001344233B00FA03F27B681B680A43B6
:102830001A631BE07B681B68D96A3B685A681346B9
:102840009B001344413B1F2202FA03F3DB43194070
:102850003B6818683B685A6813469B001344413B29
:1028600000FA03F27B681B680A43DA623B681B6864
:10287000092B1CD97B681B68D9683B681A6813460A
:102880005B0013441E3B072202FA03F3DB431940AB
:102890003B6898683B681A6813465B0013441E3B0C
:1028A00000FA03F27B681B680A43DA6019E07B6870
:1028B0001B6819693B681A6813465B0013440722BA
:1028C00002FA03F3DB4319403B6898683B681A68D7
:1028D00013465B00134400FA03F27B681B680A434B
:1028E0001A613B681B68102B03D03B681B68112BD7
:1028F00032D17B681B681D4A934225D17B681B68D7
:102900009B6803F40003002B26D17B681B689A6840
:102910007B681B6842F400029A603B681B68102BBE
:102920001AD1134B1B68134AA2FB03239A0C1346BC
:102930009B0013445B00BB6002E0BB68013BBB60D3
:10294000BB68002BF9D107E07B689B6A43F020024B
:102950007B689A620123FB737B68002283F8242042
:10296000FB7B18461437BD4680BC704700240140ED
:102970000000002083DE1B4380B584B000AF786088
:102980000023FB600023BB607B681B689B6803F02F
:102990000103012B40D07B681B689A687B681B6829
:1029A00042F001029A601F4B1B681F4AA2FB0323DF
:1029B0009B0CBB6002E0BB68013BBB60BB68002BAB
:1029C000F9D1FFF7E1FCF8601FE0FFF7DDFC0246FC
:1029D000FB68D31A022B18D97B681B689B6803F02D
:1029E0000103012B11D07B689B6A43F010027B68C6
:1029F0009A627B68DB6A43F001027B68DA627B687B
:102A0000002283F82420012307E07B681B689B6871
:102A100003F00103012BD8D1002318461037BD461F
:102A200080BD00BF0000002083DE1B4380B584B062
:102A300000AF78600023FB607B681B689B6803F035
:102A40000103012B2ED17B681B689A687B681B6889
:102A500022F001029A60FFF797FCF8601BE0FFF795
:102A600093FC0246FB68D31A022B14D97B681B68BF
:102A70009B6803F00103012B0DD17B689B6A43F037
:102A800010027B689A627B68DB6A43F001027B6814
:102A9000DA62012307E07B681B689B6803F001038F
:102AA000012BDCD0002318461037BD4680BD80B511
:102AB00084B000AF78607B685B6AFB60FB689B6AF0
:102AC00003F05003002B27D1FB689B6A43F400728C
:102AD000FB689A62FB681B689B6803F46023B3F58C
:102AE000602F15D1FB681B7B002B11D1FB689B6A03
:102AF00023F48072FB689A62FB689B6A03F480533C
:102B0000002B05D1FB689B6A43F00102FB689A62C7
:102B1000F868FFF71DFE04E0FB681B6A1B6B786812
:102B2000984700BF1037BD4680BD80B584B000AF68
:102B300078607B685B6AFB60F868FFF712FE00BF95
:102B40001037BD4680BD80B584B000AF78607B682B
:102B50005B6AFB60FB689B6A43F04002FB689A6219
:102B6000FB68DB6A43F00402FB68DA62F868FFF78F
:102B700001FE00BF1037BD4680BD000080B485B0A7
:102B800000AF78607B6803F00703FB600C4BDB68E9
:102B9000BB60BA684FF6FF031340BB60FB681A02C4
:102BA000BB68134343F0BF6343F40033BB60044A84
:102BB000BB68D36000BF1437BD4680BC704700BF00
:102BC00000ED00E080B400AF044BDB681B0A03F0AB
:102BD00007031846BD4680BC704700BF00ED00E00B
:102BE00080B483B000AF0346FB7197F90730002B28
:102BF0000BDBFB7903F01F02064997F907305B09ED
:102C0000012000FA02F241F8232000BF0C37BD4634
:102C100080BC704700E100E080B483B000AF0346A1
:102C20003960FB7197F90730002B0ADB3B68DAB299
:102C30000C4997F907301201D2B20B4483F80023F4
:102C40000AE03B68DAB20849FB7903F00F03043B62
:102C50001201D2B20B441A7600BF0C37BD4680BCBD
:102C6000704700BF00E100E000ED00E080B489B0F3
:102C700000AFF860B9607A60FB6803F00703FB619E
:102C8000FB69C3F10703042B28BF0423BB61FB6965
:102C90000433062B02D9FB69033B00E000237B6170
:102CA0004FF0FF32BB6902FA03F3DA43BB681A4004
:102CB0007B699A404FF0FF317B6901FA03F3D943F6
:102CC0007B680B40134318462437BD4680BC7047D1
:102CD00080B582B000AF78607868FFF74FFF00BF23
:102CE0000837BD4680BD80B586B000AF0346B960E9
:102CF0007A60FB7300237B61FFF764FF78617A6879
:102D0000B9687869FFF7B2FF024697F90F301146AC
:102D10001846FFF781FF00BF1837BD4680BD80B55C
:102D200082B000AF0346FB7197F907301846FFF7F2
:102D300057FF00BF0837BD4680BD000080B485B096
:102D400000AF78600023FB607B68002B01D101237A
:102D500043E07B681B681A46224B1344224AA2FBBD
:102D600003231B099A007B681A647B681F4ADA6395
:102D70007B68022283F821207B681B681B68FB604C
:102D8000FB6823F47F5323F03003FB607B685A68B1
:102D90007B689B681A437B68DB681A437B681B6906
:102DA0001A437B685B691A437B689B691A437B689B
:102DB000DB691343FA681343FB607B681B68FA689E
:102DC0001A607B6800229A637B68012283F82120C5
:102DD0007B68002283F82020002318461437BD4664
:102DE00080BC7047F8FFFDBFCDCCCCCC00000240CA
:102DF00080B586B000AFF860B9607A603B600023B0
:102E0000FB75FB6893F82030012B01D102234BE0C6
:102E1000FB68012283F82020FB6893F82130DBB2A5
:102E2000012B3AD1FB68022283F82120FB680022A3
:102E30009A63FB681B681A68FB681B6822F0010232
:102E40001A603B687A68B968F86800F0EBF9FB68CB
:102E5000DB6A002B08D0FB681B681A68FB681B68DC
:102E600042F00E021A600FE0FB681B681A68FB68EC
:102E70001B6822F004021A60FB681B681A68FB6872
:102E80001B6842F00A021A60FB681B681A68FB683C
:102E90001B6842F001021A6005E0FB68002283F81B
:102EA00020200223FB75FB7D18461837BD4680BDE8
:102EB00080B485B000AF78600023FB737B6893F823
:102EC0002130DBB2022B08D07B6804229A637B6836
:102ED000002283F82020012320E07B681B681A6809
:102EE0007B681B6822F00E021A607B681B681A68F8
:102EF0007B681B6822F001021A607B681A6C7B6891
:102F0000DB6B012101FA02F25A607B68012283F82F
:102F100021207B68002283F82020FB7B1846143791
:102F2000BD4680BC7047000080B584B000AF7860BB
:102F30000023FB737B6893F82130DBB2022B05D0B2
:102F40007B6804229A630123FB7351E07B681B6852
:102F50001A687B681B6822F00E021A607B681B6887
:102F60001A687B681B6822F001021A607B681B6884
:102F7000224A934229D07B681B68214A934222D07F
:102F80007B681B681F4A93421AD07B681B681E4AE5
:102F9000934212D07B681B681C4A93420AD07B681C
:102FA0001B681B4A934202D14FF480130EE04FF08E
:102FB00080730BE04FF4803308E04FF4805305E05A
:102FC0004FF4807302E0102300E00123114A5360A4
:102FD0007B68012283F821207B68002283F820206F
:102FE0007B685B6B002B03D07B685B6B78689847D2
:102FF000FB7B18461037BD4680BD00BF080002406D
:103000001C000240300002404400024058000240D0
:103010006C0002400000024080B584B000AF7860D0
:103020007B68DB6B1B68FB607B681B681B68BB6095
:103030007B681B6C04229A40FB681340002B4FD026
:10304000BB6803F00403002B4AD07B681B681B6835
:1030500003F02003002B07D17B681B681A687B688C
:103060001B6822F004021A607B681B68664A934260
:1030700029D07B681B68654A934222D07B681B6815
:10308000634A93421AD07B681B68624A934212D00B
:103090007B681B68604A93420AD07B681B685F4A62
:1030A000934202D14FF480030EE04FF080630BE0B7
:1030B0004FF4802308E04FF4804305E04FF4806331
:1030C00002E0402300E00423554A53607B68DB6A3A
:1030D000002B00F094807B68DB6A786898478EE06C
:1030E0007B681B6C02229A40FB681340002B56D071
:1030F000BB6803F00203002B51D07B681B681B6880
:1031000003F02003002B0BD17B681B681A687B68D7
:103110001B6822F00A021A607B68012283F82120D2
:103120007B681B68384A934229D07B681B68374A02
:10313000934222D07B681B68354A93421AD07B6841
:103140001B68344A934212D07B681B68324A934210
:103150000AD07B681B68314A934202D14FF40013B6
:103160000EE04FF000730BE04FF4003308E04FF433
:10317000005305E04FF4007302E0202300E0022337
:10318000274A53607B68002283F820207B689B6A73
:10319000002B34D07B689B6A786898472FE07B6867
:1031A0001B6C08229A40FB681340002B28D0BB6898
:1031B00003F00803002B23D07B681B681A687B6828
:1031C0001B6822F00E021A607B681A6C7B68DB6B4E
:1031D000012101FA02F25A607B6801229A637B683E
:1031E000012283F821207B68002283F820207B685D
:1031F0001B6B002B04D07B681B6B7868984700BF63
:1032000000BF1037BD4680BD080002401C000240D0
:103210003000024044000240580002406C0002406E
:103220000000024080B485B000AFF860B9607A60F9
:103230003B60FB681A6CFB68DB6B012101FA02F250
:103240005A60FB681B683A685A60FB685B68102B21
:1032500008D1FB681B687A689A60FB681B68BA68CB
:10326000DA6007E0FB681B68BA689A60FB681B6855
:103270007A68DA6000BF1437BD4680BC7047000032
:1032800080B48BB000AF7860396000237B6200238C
:103290003B6269E101227B6A02FA03F3FB613B684E
:1032A0001B68FA691340BB61BA69FB699A4240F036
:1032B00058813B685B689A4A93425ED0984A934231
:1032C00075D8984A934258D0964A93426FD8964AF6
:1032D000934252D0944A934269D8944A93424CD034
:1032E000924A934263D8924A934246D0904A93427C
:1032F0005DD8122B2AD8122B59D801A252F823F0EC
:103300007B3300085533000867330008A9330008F1
:10331000AF330008AF330008AF330008AF33000805
:10332000AF330008AF330008AF330008AF330008F5
:10333000AF330008AF330008AF330008AF330008E5
:10334000AF3300085D33000871330008794A9342B7
:1033500013D02CE03B68DB683B6229E03B68DB680C
:1033600004333B6224E03B68DB6808333B621FE0C8
:103370003B68DB680C333B621AE03B689B68002BC0
:1033800002D104233B6213E03B689B68012B05D10B
:1033900008233B627B68FA691A6109E008233B62F3
:1033A0007B68FA695A6103E000233B6200E000BFDA
:1033B000BB69FF2B01D87B6801E07B6804337B612C
:1033C000BB69FF2B02D87B6A9B0002E07B6A083B4B
:1033D0009B003B617B691A680F213B6901FA03F38B
:1033E000DB431A40396A3B6901FA03F31A437B69EC
:1033F0001A603B685B6803F08053002B00F0B180DB
:103400004D4B9B694C4A43F0010393614A4B9B69C6
:1034100003F00103BB60BB68484A7B6A9B08023328
:1034200052F82330FB607B6A03F003039B000F22FA
:1034300002FA03F3DB43FA681340FB607B68404AFF
:10344000934213D07B683F4A93420DD07B683E4A3B
:10345000934207D07B683D4A934201D1032306E0A3
:10346000042304E0022302E0012300E000237A6A3F
:1034700002F0030292009340FA681343FB602F4965
:103480007B6A9B080233FA6841F823203B685B683B
:1034900003F48013002B06D02D4B9A682C49BB698E
:1034A00013438B6006E02A4B9A68BB69DB432849CB
:1034B00013408B603B685B6803F40013002B06D05D
:1034C000234BDA682249BB691343CB6006E0204BEB
:1034D000DA68BB69DB431E491340CB603B685B681D
:1034E00003F40033002B06D0194B5A681849BB6906
:1034F00013434B6006E0164B5A68BB69DB43144923
:1035000013404B603B685B6803F48033002B21D091
:103510000F4B1A680E49BB6913430B6021E000BFD3
:1035200000003210000031100000221000002110B5
:1035300000001210000011100010024000000140B5
:1035400000080140000C014000100140001401403F
:10355000000401400B4B1A68BB69DB430949134067
:103560000B607B6A01337B623B681A687B6A22FAD4
:1035700003F3002B7FF48EAE00BF00BF2C37BD4697
:1035800080BC70470004014080B485B000AF786013
:103590000B467B807B689A687B881340002B02D0A7
:1035A0000123FB7301E00023FB73FB7B18461437F8
:1035B000BD4680BC704780B483B000AF78600B46D6
:1035C0007B8013467B707B78002B03D07A887B68E6
:1035D0001A6103E07B881A047B681A6100BF0C370C
:1035E000BD4680BC704780B485B000AF78600B46A4
:1035F0007B807B68DB68FB607A88FB6813401A0479
:10360000FB68D9437B880B401A437B681A6100BF73
:103610001437BD4680BC704780B586B000AF786077
:103620007B68002B01D1012372E27B681B6803F0E9
:103630000103002B00F08780924B5B6803F00C03C2
:10364000042B0CD08F4B5B6803F00C03082B12D1BA
:103650008C4B5B6803F48033B3F5803F0BD1894B0F
:103660001B6803F40033002B6CD07B685B68002B75
:1036700068D101234CE27B685B68B3F5803F06D1DB
:10368000804B1B687F4A43F4803313602EE07B68D5
:103690005B68002B0CD17B4B1B687A4A23F4803388
:1036A0001360784B1B68774A23F4802313601DE076
:1036B0007B685B68B3F5A02F0CD1724B1B68714A15
:1036C00043F4802313606F4B1B686E4A43F48033CE
:1036D00013600BE06B4B1B686A4A23F48033136062
:1036E000684B1B68674A23F4802313607B685B6820
:1036F000002B13D0FEF748FE386108E0FEF744FEC9
:1037000002463B69D31A642B01D9032300E25D4BC7
:103710001B6803F40033002BF0D014E0FEF734FEF6
:10372000386108E0FEF730FE02463B69D31A642B8D
:1037300001D90323ECE1534B1B6803F40033002B46
:10374000F0D100E000BF7B681B6803F00203002B90
:1037500063D04C4B5B6803F00C03002B0BD0494B40
:103760005B6803F00C03082B1CD1464B5B6803F429
:103770008033002B16D1434B1B6803F00203002B50
:1037800005D07B681B69012B01D00123C0E13D4BB3
:103790001B6823F0F8027B685B69DB00394913433F
:1037A0000B603AE07B681B69002B20D0364B01226E
:1037B0001A60FEF7E9FD386108E0FEF7E5FD024614
:1037C0003B69D31A022B01D90323A1E12D4B1B68BE
:1037D00003F00203002BF0D02A4B1B6823F0F80201
:1037E0007B685B69DB00274913430B6015E0264BC0
:1037F00000221A60FEF7C8FD386108E0FEF7C4FD3C
:1038000002463B69D31A022B01D9032380E11D4BE9
:103810001B6803F00203002BF0D17B681B6803F0E8
:103820000803002B3AD07B689B69002B19D0174BFB
:1038300001221A60FEF7A8FD386108E0FEF7A4FD3A
:1038400002463B69D31A022B01D9032360E10D4BD9
:103850005B6A03F00203002BF0D0012000F0FEFAB7
:103860001CE00A4B00221A60FEF78EFD38610FE063
:10387000FEF78AFD02463B69D31A022B08D90323BF
:1038800046E100BF00100240000042428004424274
:10389000924B5B6A03F00203002BE9D17B681B6843
:1038A00003F00403002B00F0A6800023FB758B4B74
:1038B000DB6903F08053002B0DD1884BDB69874A0D
:1038C00043F08053D361854BDB6903F08053BB60C9
:1038D000BB680123FB75824B1B6803F48073002BCC
:1038E00018D17F4B1B687E4A43F480731360FEF748
:1038F0004BFD386108E0FEF747FD02463B69D31AED
:10390000642B01D9032303E1754B1B6803F4807317
:10391000002BF0D07B68DB68012B06D16F4B1B6A54
:103920006E4A43F0010313622DE07B68DB68002BD5
:103930000CD16A4B1B6A694A23F001031362674B7F
:103940001B6A664A23F0040313621CE07B68DB6891
:10395000052B0CD1614B1B6A604A43F004031362D0
:103960005E4B1B6A5D4A43F0010313620BE05B4B45
:103970001B6A5A4A23F001031362584B1B6A574AC9
:1039800023F0040313627B68DB68002B15D0FEF77D
:10399000FBFC38610AE0FEF7F7FC02463B69D31AEC
:1039A00041F28832934201D90323B1E04B4B1B6AA9
:1039B00003F00203002BEED014E0FEF7E5FC3861C3
:1039C0000AE0FEF7E1FC02463B69D31A41F2883275
:1039D000934201D903239BE0404B1B6A03F002038F
:1039E000002BEED1FB7D012B05D13C4BDB693B4A23
:1039F00023F08053D3617B68DB69002B00F0878064
:103A0000364B5B6803F00C03082B61D07B68DB69E5
:103A1000022B46D1334B00221A60FEF7B5FC386109
:103A200008E0FEF7B1FC02463B69D31A022B01D92C
:103A300003236DE0294B1B6803F00073002BF0D1CA
:103A40007B681B6AB3F5803F08D1244B5B6823F485
:103A500000327B689B68214913434B601F4B5B68B6
:103A600023F474127B68196A7B685B6A0B431B49F9
:103A700013434B601B4B01221A60FEF785FC386133
:103A800008E0FEF781FC02463B69D31A022B01D9FC
:103A900003233DE0114B1B6803F00073002BF0D0B3
:103AA00035E0104B00221A60FEF76EFC386108E02A
:103AB000FEF76AFC02463B69D31A022B01D90323A5
:103AC00026E0064B1B6803F00073002BF0D11EE0CC
:103AD0007B68DB69012B07D1012319E0001002404C
:103AE00000700040600042420B4B5B68FB60FB686B
:103AF00003F480327B681B6A9A4206D1FB6803F4A8
:103B000070127B685B6A9A4201D0012300E00023B7
:103B100018461837BD4680BD0010024080B584B0FD
:103B200000AF786039607B68002B01D10123D0E0C1
:103B30006A4B1B6803F007033A689A4210D9674B37
:103B40001B6823F0070265493B6813430B60634B16
:103B50001B6803F007033A689A4201D00123B8E0DA
:103B60007B681B6803F00203002B20D07B681B6876
:103B700003F00403002B05D0594B5B68584A43F40B
:103B8000E06353607B681B6803F00803002B05D0DB
:103B9000534B5B68524A43F460535360504B5B682D
:103BA00023F0F0027B689B684D4913434B607B68B0
:103BB0001B6803F00103002B40D07B685B68012B7E
:103BC00007D1474B1B6803F40033002B15D10123A9
:103BD0007FE07B685B68022B07D1414B1B6803F0D9
:103BE0000073002B09D1012373E03D4B1B6803F0E8
:103BF0000203002B01D101236BE0394B5B6823F0FA
:103C000003027B685B68364913434B60FEF7BCFBDD
:103C1000F8600AE0FEF7B8FB0246FB68D31A41F2EF
:103C20008832934201D9032353E02D4B5B6803F0A4
:103C30000C027B685B689B009A42EBD1274B1B68A8
:103C400003F007033A689A4210D2244B1B6823F012
:103C5000070222493B6813430B60204B1B6803F0AB
:103C600007033A689A4201D0012332E07B681B685F
:103C700003F00403002B08D0194B5B6823F4E062C7
:103C80007B68DB68164913434B607B681B6803F055
:103C90000803002B09D0124B5B6823F460527B6849
:103CA0001B69DB000E4913434B6000F021F802460C
:103CB0000B4B5B681B0903F00F030A49CB5C22FA2C
:103CC00003F3094A1360094B1B681846FEF7A4F872
:103CD000002318461037BD4680BD00BF00200240BB
:103CE0000010024024910008000000200400002081
:103CF00080B487B000AF0023FB600023BB600023CB
:103D00007B6100237B6000233B611E4B5B68FB6093
:103D1000FB6803F00C03042B02D0082B03D027E030
:103D2000194B3B6127E0FB689B0C03F00F03174A1C
:103D3000D35C7B60FB6803F48033002B10D0114B05
:103D40005B685B0C03F00103114AD35CBB607B68CA
:103D50000D4A03FB02F2BB68B2FBF3F37B6104E0A4
:103D60007B680C4A02FB03F37B617B693B6102E0E9
:103D7000054B3B6100BF3B6918461C37BD4680BC04
:103D8000704700BF0010024000127A003C9100080A
:103D90004C91000800093D0080B400AF024B1B6845
:103DA0001846BD4680BC70470000002080B500AFBB
:103DB000FFF7F2FF0246054B5B681B0A03F007039F
:103DC0000349CB5C22FA03F3184680BD0010024081
:103DD0003491000880B500AFFFF7DEFF0246054BC7
:103DE0005B68DB0A03F007030349CB5C22FA03F3A9
:103DF000184680BD001002403491000880B483B0A2
:103E000000AF786039607B680F221A60114B5B68E5
:103E100003F003027B685A600E4B5B6803F0F0020C
:103E20007B689A600B4B5B6803F4E0627B68DA6046
:103E3000084B5B68DB0803F4E0627B681A61064BA1
:103E40001B6803F007023B681A6000BF0C37BD46D1
:103E500080BC7047001002400020024080B485B052
:103E600000AF78600A4B1B680A4AA2FB03235B0A77
:103E70007A6802FB03F3FB6000BFFB685A1EFA601E
:103E8000002BF9D100BF00BF1437BD4680BC70477E
:103E900000000020D34D621080B586B000AF78607E
:103EA00000233B610023FB607B681B6803F0010378
:103EB000002B7DD00023FB754F4BDB6903F0805353
:103EC000002B0DD14C4BDB694B4A43F08053D3613F
:103ED000494BDB6903F08053BB60BB680123FB7572
:103EE000464B1B6803F48073002B18D1434B1B68AF
:103EF000424A43F480731360FEF746FA386108E0E3
:103F0000FEF742FA02463B69D31A642B01D9032318
:103F10006DE03A4B1B6803F48073002BF0D0364BF6
:103F20001B6A03F44073FB60FB68002B2ED07B6898
:103F30005B6803F44073FA689A4227D02E4B1B6AE1
:103F400023F44073FB602E4B01221A602C4B00229D
:103F50001A60294AFB681362FB6803F00103002B17
:103F600014D0FEF711FA38610AE0FEF70DFA0246A6
:103F70003B69D31A41F28832934201D9032336E0D8
:103F80001D4B1B6A03F00203002BEED01A4B1B6A79
:103F900023F440727B685B68174913430B62FB7D17
:103FA000012B05D1144BDB69134A23F08053D361F5
:103FB0007B681B6803F00203002B08D00E4B5B6884
:103FC00023F440427B689B680B4913434B607B683A
:103FD0001B6803F01003002B08D0074B5B6823F429
:103FE00080027B68DB68044913434B60002318465A
:103FF0001837BD4680BD00BF001002400070004071
:104000004004424280B582B000AF78607B68002BEC
:1040100001D1012376E07B685B6A002B08D17B68C5
:104020005B68B3F5827F09D07B680022DA6105E026
:104030007B6800221A617B6800225A617B6800223B
:104040009A627B6893F85130DBB2002B06D17B6813
:10405000002283F850207868FDF75AFE7B68022220
:1040600083F851207B681B681A687B681B6822F004
:1040700040021A607B685B6803F482727B689B680D
:1040800003F404431A437B68DB6803F400631A43B8
:104090007B681B6903F002031A437B685B6903F0CA
:1040A00001031A437B689B6903F400731A437B681E
:1040B000DB6903F038031A437B681B6A03F0800353
:1040C00042EA03017B689B6A03F400527B681B6829
:1040D0000A431A607B689B691A0C7B681B6802F0B4
:1040E00004025A607B681B68DA697B681B6822F4EB
:1040F0000062DA617B6800225A657B68012283F8DE
:104100005120002318460837BD4680BD80B588B0D1
:1041100000AFF860B9603B601346FB80FEF734F9EE
:10412000F861FB887B83FB6893F85130DBB2012B8D
:1041300001D002232AE1BB68002B02D0FB88002BB0
:1041400001D1012322E1FB6893F85030012B01D10A
:1041500002231BE1FB68012283F85020FB68032245
:1041600083F85120FB6800225A65FB68BA681A631D
:10417000FB68FA889A86FB68FA88DA86FB68002270
:104180009A63FB6800229A87FB680022DA87FB6843
:1041900000225A64FB6800221A64FB689B68B3F52E
:1041A000004F0FD1FB681B681A68FB681B6822F080
:1041B00040021A60FB681B681A68FB681B6842F4BF
:1041C00080421A60FB681B681B6803F04003402BA9
:1041D00007D0FB681B681A68FB681B6842F0400246
:1041E0001A60FB68DB68B3F5006F52D1FB685B684F
:1041F000002B02D07B8B012B45D1FB681B6B1A88EF
:10420000FB681B68DA60FB681B6B9A1CFB681A630F
:10421000FB68DB8E9BB2013B9AB2FB68DA8632E028
:10422000FB681B689B6803F00203022B12D1FB683A
:104230001B6B1A88FB681B68DA60FB681B6B9A1C97
:10424000FB681A63FB68DB8E9BB2013B9AB2FB688A
:10425000DA8618E0FEF798F80246FB69D31A3A6846
:104260009A4203D83B68B3F1FF3F02D13B68002B71
:1042700009D1FB68012283F85120FB68002283F8F2
:104280005020032382E0FB68DB8E9BB2002BC7D15A
:1042900053E0FB685B68002B02D07B8B012B47D17E
:1042A000FB681A6BFB681B680C3312781A70FB688A
:1042B0001B6B5A1CFB681A63FB68DB8E9BB2013BCD
:1042C0009AB2FB68DA8633E0FB681B689B6803F0F0
:1042D0000203022B13D1FB681A6BFB681B680C33BB
:1042E00012781A70FB681B6B5A1CFB681A63FB6818
:1042F000DB8E9BB2013B9AB2FB68DA8618E0FEF7D0
:1043000043F80246FB69D31A3A689A4203D83B68DD
:10431000B3F1FF3F02D13B68002B09D1FB680122BA
:1043200083F85120FB68002283F8502003232DE0FE
:10433000FB68DB8E9BB2002BC6D1FA693968F8683E
:1043400000F0C4FB0346002B02D0FB6820225A6514
:10435000FB689B68002B0AD100237B61FB681B680C
:10436000DB687B61FB681B689B687B617B69FB6822
:10437000012283F85120FB68002283F85020FB685B
:104380005B6D002B01D0012300E00023184620378D
:10439000BD4680BD80B588B002AFF860B9603B60B3
:1043A0001346FB80FB6893F85130DBB2012B01D040
:1043B000022304E1FB685B68B3F5827F12D1FB68DE
:1043C0009B68002B0ED1FB68042283F85120FA88E9
:1043D0003B6800931346BA68B968F86800F0F3F8D0
:1043E0000346ECE0FDF7D0FF7861BB68002B02D0FC
:1043F000FB88002B01D10123E1E0FB6893F85030EA
:10440000012B01D10223DAE0FB68012283F850205E
:10441000FB68042283F85120FB6800225A65FB6880
:10442000BA689A63FB68FA889A87FB68FA88DA8721
:10443000FB6800221A63FB6800229A86FB68002250
:10444000DA86FB6800221A64FB6800225A64FB6863
:104450009B68B3F5004F0FD1FB681B681A68FB68B7
:104460001B6822F040021A60FB681B681A68FB6830
:104470001B6822F480421A60FB681B681B6803F00B
:104480004003402B07D0FB681B681A68FB681B6859
:1044900042F040021A60FB68DB68002B70D135E007
:1044A000FB681B689B6803F00103012B15D1FB68B7
:1044B0001B6803F10C02FB689B6B1278D2B21A7076
:1044C000FB689B6B5A1CFB689A63FB68DB8F9BB293
:1044D000013B9AB2FB68DA8718E0FDF755FF024608
:1044E0007B69D31A3A689A4203D83B68B3F1FF3F1D
:1044F00002D13B68002B09D1FB68012283F85120CF
:10450000FB68002283F85020032358E0FB68DB8F10
:104510009BB2002BC4D138E0FB681B689B6803F09A
:104520000103012B13D1FB681B68DA68FB689B6BE6
:1045300092B21A80FB689B6B9A1CFB689A63FB68BB
:10454000DB8F9BB2013B9AB2FB68DA8718E0FDF77C
:104550001BFF02467B69D31A3A689A4203D83B682C
:10456000B3F1FF3F02D13B68002B09D1FB68012268
:1045700083F85120FB68002283F8502003231EE0BB
:10458000FB68DB8F9BB2002BC6D17A693968F8686B
:1045900000F04AFA0346002B02D0FB6820225A653D
:1045A000FB68012283F85120FB68002283F8502029
:1045B000FB685B6D002B01D0012300E0002318464F
:1045C0001837BD4680BD80B58AB000AFF860B960CD
:1045D0007A607B8001237B62FDF7D6FE3862FB6840
:1045E00093F85130FB77FB685B68BB617B88FB828B
:1045F000FB7F012B0CD0BB69B3F5827F06D1FB6832
:104600009B68002B02D1FB7F042B01D002237FE1AA
:10461000BB68002B05D07B68002B02D07B88002B69
:1046200001D1012374E1FB6893F85030012B01D1D3
:1046300002236DE1FB68012283F85020FB6893F8A8
:104640005130DBB2042B03D0FB68052283F85120E4
:10465000FB6800225A65FB687A689A63FB687A886F
:10466000DA87FB687A889A87FB68BA681A63FB68FE
:104670007A88DA86FB687A889A86FB6800221A6450
:10468000FB6800225A64FB681B681B6803F0400348
:10469000402B07D0FB681B681A68FB681B6842F058
:1046A00040021A60FB68DB68B3F5006F7ED1FB68DF
:1046B0005B68002B02D0FB8A012B6CD1FB681B6B63
:1046C0001A88FB681B68DA60FB681B6B9A1CFB6826
:1046D0001A63FB68DB8E9BB2013B9AB2FB68DA86F9
:1046E00059E0FB681B689B6803F00203022B1BD197
:1046F000FB68DB8E9BB2002B16D07B6A012B13D19B
:10470000FB681B6B1A88FB681B68DA60FB681B6B15
:104710009A1CFB681A63FB68DB8E9BB2013B9AB262
:10472000FB68DA8600237B62FB681B689B6803F0EA
:104730000103012B19D1FB68DB8F9BB2002B14D036
:10474000FB681B68DA68FB689B6B92B21A80FB6897
:104750009B6B9A1CFB689A63FB68DB8F9BB2013BE7
:104760009AB2FB68DA8701237B62FDF70DFE0246F1
:104770003B6AD31A3A6B9A420DD83B6BB3F1FF3FB9
:1047800009D0FB68012283F85120FB68002283F8DE
:1047900050200323BCE0FB68DB8E9BB2002BA0D132
:1047A000FB68DB8F9BB2002B9BD182E0FB685B68D0
:1047B000002B02D0FB8A012B71D1FB681A6BFB68BE
:1047C0001B680C3312781A70FB681B6B5A1CFB6851
:1047D0001A63FB68DB8E9BB2013B9AB2FB68DA86F8
:1047E0005DE0FB681B689B6803F00203022B1CD191
:1047F000FB68DB8E9BB2002B17D07B6A012B14D198
:10480000FB681A6BFB681B680C3312781A70FB6824
:104810001B6B5A1CFB681A63FB68DB8E9BB2013B67
:104820009AB2FB68DA8600237B62FB681B689B6890
:1048300003F00103012B19D1FB68DB8F9BB2002B26
:1048400014D0FB681B68DA68FB689B6BD2B21A70E5
:10485000FB689B6B5A1CFB689A63FB68DB8F9BB2FF
:10486000013B9AB2FB68DA8701237B62FDF78CFD7E
:1048700002463B6AD31A3A6B9A4203D83B6BB3F1B8
:10488000FF3F02D13B6B002B09D1FB68012283F86B
:104890005120FB68002283F85020032338E0FB6896
:1048A000DB8E9BB2002B9CD1FB68DB8F9BB2002B75
:1048B00097D13A6A396BF86800F008F90346002B83
:1048C00008D0FB6820225A65FB68002283F850203C
:1048D00001231DE0FB689B68002B0AD100233B618C
:1048E000FB681B68DB683B61FB681B689B683B617E
:1048F0003B69FB68012283F85120FB68002283F8A2
:104900005020FB685B6D002B01D0012300E00023E9
:1049100018462837BD4680BD80B588B000AFF86026
:10492000B9603B601346FB71FDF72EFD0246BB6A82
:104930009B1A3A681344FB61FDF726FDB861394BB9
:104940001B685B011B0DFA6902FB03F37B6154E0FA
:104950003B68B3F1FF3F50D0FDF716FD0246BB693F
:10496000D31AFA699A4202D9FB69002B3DD1FB6840
:104970001B685A68FB681B6822F0E0025A60FB68FB
:104980005B68B3F5827F11D1FB689B68B3F5004F7C
:1049900004D0FB689B68B3F5806F07D1FB681B6888
:1049A0001A68FB681B6822F040021A60FB689B6A69
:1049B000B3F5005F0FD1FB681B681A68FB681B68C2
:1049C00022F400521A60FB681B681A68FB681B68B7
:1049D00042F400521A60FB68012283F85120FB6800
:1049E000002283F85020032317E07B69002B01D1BC
:1049F0000023FB617B69013B7B61FB681B689A6854
:104A0000BB681340BA689A420CBF01230023DBB293
:104A10001A46FB799A429BD1002318462037BD469F
:104A200080BD00BF0000002080B586B002AFF860F6
:104A3000B9607A60FB685B68B3F5827F11D1FB686F
:104A40009B68B3F5004F04D0FB689B68B3F5806F9B
:104A500007D1FB681B681A68FB681B6822F04002DC
:104A60001A60FB685B68B3F5827F17D1FB689B68AF
:104A7000B3F5806F12D17B680093BB6800220121DF
:104A8000F868FFF749FF0346002B1AD0FB685B6DFF
:104A900043F02002FB685A65032313E07B68009310
:104AA000BB6800228021F868FFF736FF0346002B21
:104AB00007D0FB685B6D43F02002FB685A65032357
:104AC00000E0002318461037BD4680BD80B586B093
:104AD00002AFF860B9607A607B680093BB6801221E
:104AE0000221F868FFF718FF0346002B07D0FB6888
:104AF0005B6D43F02002FB685A65032313E07B687B
:104B00000093BB6800228021F868FFF705FF034689
:104B1000002B07D0FB685B6D43F02002FB685A65F1
:104B2000032300E0002318461037BD4680BD80B542
:104B300082B000AF78607B68002B01D1012341E097
:104B40007B6893F83D30DBB2002B06D17B680022F6
:104B500083F83C207868FDF7E9FA7B68022283F845
:104B60003D207B681A687B6804331946104600F0C4
:104B700017FC7B68012283F846207B68012283F8BA
:104B80003E207B68012283F83F207B68012283F866
:104B900040207B68012283F841207B68012283F852
:104BA00042207B68012283F843207B68012283F83E
:104BB00044207B68012283F845207B68012283F82A
:104BC0003D20002318460837BD4680BD80B485B01F
:104BD00000AF78607B6893F83D30DBB2012B01D0E9
:104BE00001233AE07B68022283F83D207B681B6842
:104BF000DA687B681B6842F00102DA607B681B6838
:104C0000184A93420ED07B681B68B3F1804F09D0DD
:104C10007B681B68144A934204D07B681B68134A64
:104C2000934211D17B681B689B6803F00703FB600C
:104C3000FB68062B10D07B681B681A687B681B68B2
:104C400042F001021A6007E07B681B681A687B6803
:104C50001B6842F001021A60002318461437BD4653
:104C600080BC7047002C0140000400400008004058
:104C700080B582B000AF78607B68002B01D1012342
:104C800041E07B6893F83D30DBB2002B06D17B68B6
:104C9000002283F83C20786800F039F87B68022213
:104CA00083F83D207B681A687B68043319461046F8
:104CB00000F076FB7B68012283F846207B680122A6
:104CC00083F83E207B68012283F83F207B68012225
:104CD00083F840207B68012283F841207B68012211
:104CE00083F842207B68012283F843207B680122FD
:104CF00083F844207B68012283F845207B680122E9
:104D000083F83D20002318460837BD4680BD80B497
:104D100083B000AF786000BF0C37BD4680BC7047E1
:104D200080B584B000AF786039603B68002B09D152
:104D30007B6893F83E30DBB2012B14BF01230023C4
:104D4000DBB222E03B68042B09D17B6893F83F304B
:104D5000DBB2012B14BF01230023DBB215E03B685B
:104D6000082B09D17B6893F84030DBB2012B14BFCC
:104D700001230023DBB208E07B6893F84130DBB20B
:104D8000012B14BF01230023DBB2002B01D0012330
:104D90005EE03B68002B04D17B68022283F83E2052
:104DA00013E03B68042B04D17B68022283F83F2088
:104DB0000BE03B68082B04D17B68022283F840207B
:104DC00003E07B68022283F841207B681B68012294
:104DD0003968184600F070FD7B681B681E4A9342D4
:104DE00007D17B681B685A6C7B681B6842F40042E1
:104DF0005A647B681B68184A93420ED07B681B6814
:104E0000B3F1804F09D07B681B68144A934204D0E9
:104E10007B681B68124A934211D17B681B689B68B0
:104E200003F00703FB60FB68062B10D07B681B6850
:104E30001A687B681B6842F001021A6007E07B6811
:104E40001B681A687B681B6842F001021A60002325
:104E500018461037BD4680BD002C014000040040BC
:104E60000008004080B584B000AF78607B681B68A4
:104E7000DB68FB607B681B681B69BB60BB6803F079
:104E80000203002B20D0FB6803F00203002B1BD091
:104E90007B681B686FF002021A617B6801221A7737
:104EA0007B681B689B6903F00303002B03D07868C1
:104EB00000F05AFA05E0786800F04DFA786800F0E2
:104EC0005CFA7B6800221A77BB6803F00403002BAE
:104ED00020D0FB6803F00403002B1BD07B681B6809
:104EE0006FF004021A617B6802221A777B681B68E4
:104EF0009B6903F44073002B03D0786800F034FA08
:104F000005E0786800F027FA786800F036FA7B68E8
:104F100000221A77BB6803F00803002B20D0FB683F
:104F200003F00803002B1BD07B681B686FF008029E
:104F30001A617B6804221A777B681B68DB6903F0BF
:104F40000303002B03D0786800F00EFA05E07868C0
:104F500000F001FA786800F010FA7B6800221A77F6
:104F6000BB6803F01003002B20D0FB6803F0100394
:104F7000002B1BD07B681B686FF010021A617B68E6
:104F800008221A777B681B68DB6903F44073002BE7
:104F900003D0786800F0E8F905E0786800F0DBF904
:104FA000786800F0EAF97B6800221A77BB6803F0A2
:104FB0000103002B0CD0FB6803F00103002B07D08A
:104FC0007B681B686FF001021A617868FCF752FE7B
:104FD000BB6803F08003002B0CD0FB6803F0800358
:104FE000002B07D07B681B686FF080021A6178681D
:104FF00000F0EDFCBB6803F04003002B0CD0FB6815
:1050000003F04003002B07D07B681B686FF0400261
:105010001A61786800F0BAF9BB6803F02003002B2E
:105020000CD0FB6803F02003002B07D07B681B68C3
:105030006FF020021A61786800F0C0FC00BF1037E2
:10504000BD4680BD80B586B000AFF860B9607A60BB
:105050000023FB75FB6893F83C30012B01D1022340
:10506000AEE0FB68012283F83C207B680C2B00F249
:105070009F8001A252F823F0AD500008B151000802
:10508000B1510008B1510008ED500008B1510008BD
:10509000B1510008B15100082F510008B15100086A
:1050A000B1510008B15100086F510008FB681B683E
:1050B000B968184600F0E2F9FB681B689A69FB685A
:1050C0001B6842F008029A61FB681B689A69FB68DA
:1050D0001B6822F004029A61FB681B689969BB682F
:1050E0001A69FB681B680A439A6164E0FB681B68E5
:1050F000B968184600F028FAFB681B689A69FB68D3
:105100001B6842F400629A61FB681B689A69FB683D
:105110001B6822F480629A61FB681B689969BB680E
:105120001B691A02FB681B680A439A6143E0FB682B
:105130001B68B968184600F071FAFB681B68DA69E9
:10514000FB681B6842F00802DA61FB681B68DA69D9
:10515000FB681B6822F00402DA61FB681B68D969EE
:10516000BB681A69FB681B680A43DA6123E0FB68C5
:105170001B68B968184600F0BBFAFB681B68DA695F
:10518000FB681B6842F40062DA61FB681B68DA693D
:10519000FB681B6822F48062DA61FB681B68D969CE
:1051A000BB681B691A02FB681B680A43DA6102E0EC
:1051B0000123FB7500BFFB68002283F83C20FB7DC8
:1051C00018461837BD4680BD80B584B000AF786002
:1051D00039600023FB737B6893F83C30012B01D1CD
:1051E0000223B4E07B68012283F83C207B68022222
:1051F00083F83D207B681B689B68BB60BB6823F01D
:105200007703BB60BB6823F47F43BB607B681B688C
:10521000BA689A603B681B68B3F5005F3ED0B3F58F
:10522000005F00F28780B3F5805F00F08680B3F501
:10523000805F7FD8702B1AD0702B7BD8602B50D01A
:10524000602B77D8502B3CD0502B73D8402B58D0A4
:10525000402B6FD8302B64D0302B6BD8202B60D0F4
:10526000202B67D8002B5CD0102B5AD062E07B68D3
:1052700018683B6899683B685A683B68DB6800F0CF
:10528000FCFA7B681B689B68BB60BB6843F07703D4
:10529000BB607B681B68BA689A604FE07B681868DF
:1052A0003B6899683B685A683B68DB6800F0E5FA40
:1052B0007B681B689A687B681B6842F480429A602E
:1052C0003CE07B6818683B6859683B68DB681A46B5
:1052D00000F05CFA7B681B685021184600F0B3FAB6
:1052E0002CE07B6818683B6859683B68DB681A46A5
:1052F00000F07AFA7B681B686021184600F0A3FA78
:105300001CE07B6818683B6859683B68DB681A4694
:1053100000F03CFA7B681B684021184600F093FAC5
:105320000CE07B681A683B681B681946104600F061
:105330008AFA03E00123FB7300E000BF7B680122CF
:1053400083F83D207B68002283F83C20FB7B1846D5
:105350001037BD4680BD80B483B000AF786000BF19
:105360000C37BD4680BC704780B483B000AF786016
:1053700000BF0C37BD4680BC704780B483B000AF1F
:10538000786000BF0C37BD4680BC704780B483B0E6
:1053900000AF786000BF0C37BD4680BC704700008E
:1053A00080B485B000AF786039607B681B68FB60B3
:1053B0007B682F4A93420BD07B68B3F1804F07D0B4
:1053C0007B682C4A934203D07B682B4A934208D1D6
:1053D000FB6823F07003FB603B685B68FA6813436B
:1053E000FB607B68224A93420BD07B68B3F1804F0D
:1053F00007D07B681F4A934203D07B681E4A9342C2
:1054000008D1FB6823F44073FB603B68DB68FA68F3
:105410001343FB60FB6823F080023B685B69134326
:10542000FB607B68FA681A603B689A687B68DA629E
:105430003B681A687B689A627B680D4A934203D185
:105440003B681A697B681A637B6801225A617B6832
:105450001B6903F00103002B05D07B681B6923F057
:1054600001027B681A6100BF1437BD4680BC7047DB
:10547000002C0140000400400008004080B487B0C8
:1054800000AF786039607B681B6A7B617B681B6A50
:1054900023F001027B681A627B685B683B617B6872
:1054A0009B69FB60FB6823F07003FB60FB6823F0E3
:1054B0000303FB603B681B68FA681343FB607B696E
:1054C00023F002037B613B689B687A6913437B612D
:1054D0007B681C4A93420CD17B6923F008037B61F3
:1054E0003B68DB687A6913437B617B6923F00403C3
:1054F0007B617B68134A934211D13B6923F480732B
:105500003B613B6923F400733B613B685B693A692B
:1055100013433B613B689B693A6913433B617B687A
:105520003A695A607B68FA689A613B685A687B6896
:105530005A637B687A691A6200BF1C37BD4680BC1B
:10554000704700BF002C014080B487B000AF786086
:1055500039607B681B6A7B617B681B6A23F01002E1
:105560007B681A627B685B683B617B689B69FB6058
:10557000FB6823F4E043FB60FB6823F44073FB60AB
:105580003B681B681B02FA681343FB607B6923F0CE
:1055900020037B613B689B681B017A6913437B6135
:1055A0007B681D4A93420DD17B6923F080037B61A8
:1055B0003B68DB681B017A6913437B617B6923F0DD
:1055C00040037B617B68144A934213D13B6923F407
:1055D00080633B613B6923F400633B613B685B692B
:1055E0009B003A6913433B613B689B699B003A69A6
:1055F00013433B617B683A695A607B68FA689A6139
:105600003B685A687B689A637B687A691A6200BF54
:105610001C37BD4680BC7047002C014080B487B069
:1056200000AF786039607B681B6A7B617B681B6AAE
:1056300023F480727B681A627B685B683B617B68DD
:10564000DB69FB60FB6823F07003FB60FB6823F001
:105650000303FB603B681B68FA681343FB607B69CC
:1056600023F400737B613B689B681B027A691343D8
:105670007B617B681D4A93420DD17B6923F40063F3
:105680007B613B68DB681B027A6913437B617B6942
:1056900023F480637B617B68144A934213D13B6996
:1056A00023F480533B613B6923F400533B613B6827
:1056B0005B691B013A6913433B613B689B691B01B2
:1056C0003A6913433B617B683A695A607B68FA68C0
:1056D000DA613B685A687B68DA637B687A691A62C8
:1056E00000BF1C37BD4680BC704700BF002C014086
:1056F00080B487B000AF786039607B681B6A3B611B
:105700007B681B6A23F480527B681A627B685B6843
:105710007B617B68DB69FB60FB6823F4E043FB6033
:10572000FB6823F44073FB603B681B681B02FA684C
:105730001343FB603B6923F400533B613B689B6868
:105740001B033A6913433B617B680F4A934209D1BB
:105750007B6923F480437B613B685B699B017A69C9
:1057600013437B617B687A695A607B68FA68DA6107
:105770003B685A687B681A647B683A691A6200BFA2
:105780001C37BD4680BC7047002C014080B487B0F8
:1057900000AFF860B9607A60FB681B6A7B61FB68E8
:1057A0001B6A23F00102FB681A62FB689B693B617C
:1057B0003B6923F0F0033B617B681B013A691343AB
:1057C0003B617B6923F00A037B617A69BB68134301
:1057D0007B61FB683A699A61FB687A691A6200BF6B
:1057E0001C37BD4680BC704780B487B000AFF860FE
:1057F000B9607A60FB681B6A7B61FB681B6A23F0F7
:105800001002FB681A62FB689B693B613B6923F4E9
:1058100070433B617B681B033A6913433B617B69BF
:1058200023F0A0037B61BB681B017A6913437B6192
:10583000FB683A699A61FB687A691A6200BF1C3793
:10584000BD4680BC704780B485B000AF78603960D9
:105850007B689B68FB60FB6823F07003FB603A6821
:10586000FB68134343F00703FB607B68FA689A60A8
:1058700000BF1437BD4680BC704780B487B000AF0E
:10588000F860B9607A603B60FB689B687B617B690C
:1058900023F47F437B613B681A027B681A43BB6831
:1058A00013437A6913437B61FB687A699A6000BF8E
:1058B0001C37BD4680BC704780B487B000AFF8602D
:1058C000B9607A60BB6803F01F03012202FA03F398
:1058D0007B61FB681A6A7B69DB431A40FB681A62CA
:1058E000FB681A6ABB6803F01F03796801FA03F3C7
:1058F0001A43FB681A6200BF1C37BD4680BC704764
:1059000080B485B000AF786039607B6893F83C3034
:10591000012B01D1022346E07B68012283F83C2061
:105920007B68022283F83D207B681B685B68FB6014
:105930007B681B689B68BB60FB6823F07003FB609F
:105940003B681B68FA681343FB607B681B68FA6856
:105950005A607B681B68164A93420ED07B681B68AE
:10596000B3F1804F09D07B681B68124A934204D080
:105970007B681B68104A93420CD1BB6823F08003FC
:10598000BB603B685B68BA681343BB607B681B689D
:10599000BA689A607B68012283F83D207B68002208
:1059A00083F83C20002318461437BD4680BC70475E
:1059B000002C0140000400400008004080B483B087
:1059C00000AF786000BF0C37BD4680BC704780B424
:1059D00083B000AF786000BF0C37BD4680BC704715
:1059E00080B582B000AF78607B68002B01D10123C5
:1059F00042E07B6893F84130DBB2002B06D17B6834
:105A0000002283F840207868FCF71CFC7B68242285
:105A100083F841207B681B68DA687B681B6822F486
:105A20000052DA60786800F0B7FD7B681B681A697D
:105A30007B681B6822F490421A617B681B685A6974
:105A40007B681B6822F02A025A617B681B68DA684F
:105A50007B681B6842F40052DA607B6800225A645B
:105A60007B68202283F841207B68202283F8422033
:105A70007B6800225A63002318460837BD4680BD64
:105A800080B58AB002AFF860B9603B601346FB8016
:105A900000237B61FB6893F84130DBB2202B75D18A
:105AA000BB68002B02D0FB88002B01D101236EE0E4
:105AB000FB6800225A64FB68212283F84120FCF72E
:105AC00063FC7861FB68FA889A84FB68FA88DA8458
:105AD000FB689B68B3F5805F08D1FB681B69002BEE
